:020000040800F2
:10000000C86B00208502000875320008432D0008E7
:100010007D3100083D070008ED48000800000000A1
:10002000000000000000000000000000C501000802
:10003000D90F00080000000021020008DB41000881
:100040009F0200089F0200089F0200089F0200080C
:100050009F0200089F0200089F0200089F020008FC
:100060009F0200089F0200089F0200089F020008EC
:100070009F0200089F0200089F0200089F020008DC
:100080009F0200089F0200089F0200089F020008CC
:10009000410700089F0200089F0200089F02000815
:1000A0009F0200089F0200089F0200089F020008AC
:1000B0009F0200089F0200089F0200089F0200089C
:1000C0009F0200089F0200089F0200089F0200088C
:1000D0009F020008194800089F0200089F020008BC
:1000E0009F0200089F0200089F0200089F0200086C
:1000F0009F020008A54200089F0200089F02000816
:100100009F0200089F0200089F0200089F0200084B
:100110009F0200089F0200089F0200089F0200083B
:100120009F020008190A0008250A00089F0200081B
:100130009F0200089F0200089F0200089F0200081B
:100140004D0700089F0200089F0200089F02000858
:100150009F020008310A00089F0200082548000895
:100160009F0200089F0200089F0200089F020008EB
:100170009F0200089F0200089F0200080000000084
:100180009F0200089F0200089F0200089F020008CB
:100190009F0200089F0200089F0200089F020008BB
:1001A00000000000000000009F020008DFF810D0EF
:1001B00000F034FA00480047794A0008AFF30080A5
:1001C000C86B00202C4B19680868B0E8F04F80F32A
:1001D0000988BFF36F8F4FF0000080F311887047DC
:1001E0000000000008480068006880F308884FF0AD
:1001F000000080F3148862B661B6BFF34F8FBFF37F
:100200006F8F00DF00BF00BF08ED00E0DFF80C00DB
:10021000016841F470010160704700BF88ED00E0A3
:10022000EFF30980BFF36F8F134B1A681EF0100FA6
:1002300008BF20ED108A20E9F04F106009B44FF09C
:10024000500080F31188BFF34F8FBFF36F8F05F01D
:1002500081FB4FF0000080F3118809BC1968086821
:10026000B0E8F04F1EF0100F08BFB0EC108A80F31A
:100270000988BFF36F8F704728000020EFF30580D7
:10028000704700000648804706480047FEE7FEE743
:10029000FEE7FEE7FEE7FEE7FEE7FEE7FEE7FEE736
:1002A00089420008AD0100082DE9F05F05460020F5
:1002B00092469B4688460646814640241BE02846D7
:1002C00041464746224600F005F953465A46C01AB1
:1002D000914110D311461846224600F0ECF82D1A31
:1002E00067EB01084F4622460120002100F0E3F8A9
:1002F00017EB00094E41201EA4F10104DFDC484643
:1003000031462A464346BDE8F09F40EA01039B0779
:1003100003D009E008C9121F08C0042AFAD203E07A
:1003200011F8013B00F8013B521EF9D27047D2B2DE
:1003300001E000F8012B491EFBD270470022F6E7CE
:1003400010B513460A4604461946FFF7F0FF20464B
:1003500010BD2DE9FE4F81EA030404F0004421F0B2
:10036000004100944FF0000B23F0004350EA0104D9
:100370005ED052EA03045BD0C3F30A54C1F30A55BA
:100380002C44A4F2F3340194A0FB0254C1F31301F2
:1003900041F48011C3F3130343F4801301FB0244BF
:1003A00000FB034E840A970A44EA815447EA8357C4
:1003B000A4FB076802958D0A05FB07854FEA932C7D
:1003C00004FB0C542705029D4FEA065847EA1637EE
:1003D000B5EB08056EEB070C870E920E47EA811706
:1003E00042EA8312A7FB0201B6EB0B0164EB0004A7
:1003F0002B0D43EA0C335E1844EB1C50DA46514691
:10040000E7FB0201C5F313044FEA0B3343EA14532D
:100410004FEA0432019C43EA0603A4F10C0402945F
:10042000009CCDE900B400F0ABF803B0BDE8F08F5C
:1004300000200146F9E70EB5C10F80EAE0700844DC
:10044000CA07002140F233438DE80E000A460B46EE
:1004500000F096F803B000BD00F0004230F000401C
:100460000AD0C10D01F56071C0F3160042EA0151D6
:10047000C20840071143704700200146704701F051
:10048000004330B421F0004150EA010206D00A0DC9
:10049000A2F56072C1F31301002A02DC30BC002017
:1004A0007047440F44EAC104C100E01830BC00EBBF
:1004B000C25000F01FB8202A04DB203A00FA02F1F3
:1004C000002070479140C2F1200320FA03F3194342
:1004D00090407047202A04DB203A21FA02F00021E4
:1004E000704721FA02F3D040C2F120029140084344
:1004F000194670470029A8BF7047401C490008BF33
:1005000020F00100704710B4B0FA80FC00FA0CF043
:1005100050EA010404BF10BC704749B1CCF120047B
:1005200021FA04F411FA0CF118BF01212143084308
:10053000A3EB0C01CB1D4FEA00614FEA102042BF34
:10054000002010BC704700EBC35010440029A4BF2A
:1005500010BC7047401C490008BF20F0010010BCCF
:10056000704710B5141E73F1000408DA401C41F105
:10057000000192185B411A4301D120F0010010BD27
:100580002DE9F04D92469B4611B1B1FA81F202E09D
:10059000B0FA80F220329046FFF78DFF04460F46F6
:1005A00040EA0A0041EA0B0153465A46084313D079
:1005B000114653EA010019D0C8F140025046FFF736
:1005C00089FF05460E46504659464246FFF773FFDF
:1005D000084305D0012004E020463946BDE8F08DEF
:1005E0000020054346EAE0762C4337430A9863052A
:1005F000E40AA0EB08000022FD0A44EA47540A304E
:1006000002D500200146E9E7010510196941DDE93D
:10061000084500196941BDE8F04DA2E7064C074DB9
:1006200006E0E06840F0010394E8070098471034C2
:10063000AC42F6D3FFF7BEFD7C6800089C6800085A
:1006400070B58C1810F8015B15F0070301D110F894
:10065000013B2A1106D110F8012B03E010F8016BC1
:1006600001F8016B5B1EF9D12B0705D40023521E44
:100670000DD401F8013BFAE710F8013BCB1A921CAC
:1006800003E013F8015B01F8015B521EF9D5A142AA
:10069000D8D3002070BD000010B50821094802F031
:1006A000B7F9094942F20F700860084C012211465F
:1006B000204601F06CFB20460022BDE810400221DC
:1006C00001F065BBC00100203C0C0040001402405A
:1006D00070B5174C606820B1A06930B1401EA061B0
:1006E00023E000F07BF960601FE0E06880B12069E2
:1006F000012588B10F49104A0020487115608A6BA6
:10070000521E8A636060E06020616061012070BDFC
:1007100002F032FBE06008E0606918B90A2004F0DA
:10072000D1F9656102F0CAFF2061002070BD0000B0
:1007300018010020805E002038010020FEE7000044
:10074000014800F0C8BD000070010020014800F021
:10075000C2BD00009801002010B5A0F201200C4697
:10076000092839D2DFE800F0050B11171D232938BD
:100770002F00022002F054FB2146184828E00320F5
:1007800002F04EFB2146164822E0042002F048FB0E
:10079000214614481CE0052002F042FB2146124885
:1007A00016E0062002F03CFB2146104810E007202E
:1007B00002F036FB21460E480AE0082002F030FB2A
:1007C00021460C4804E0092002F02AFB0A48214691
:1007D000BDE8104002F0D4BC10BD0000CC4C00209D
:1007E000DC4D0020EC4E0020FC4F00200C5100207E
:1007F0001C5200202C5300203C54002010B5A0F2C5
:1008000001200C46092839D2DFE800F0050B11174A
:100810001D2329382F00022002F002FB2146184830
:1008200028E0032002F0FCFA2146164822E00420CA
:1008300002F0F6FA214614481CE0052002F0F0FA16
:100840002146124816E0062002F0EAFA2146104836
:1008500010E0072002F0E4FA21460E480AE00820E2
:1008600002F0DEFA21460C4804E0092002F0D8FA32
:100870000A482146BDE8104002F082BC10BD0000CD
:100880004C5500205C5600206C5700207C580020FE
:100890008C5900209C5A0020AC5B0020BC5C0020DE
:1008A0002DE9F043DFF8B48000258BB006464045C3
:1008B00000D10595DFF8A8900E274E4500D1059789
:1008C00044F22000009044F24000019044F2A00065
:1008D0000290012444F2C000CDE90645CDE90305AC
:1008E000CDE908476946304600F0FAFB08B100F050
:1008F00074FB464500D105944E4501D10F2005906B
:1009000044F2600000904FF4814001904FF4803039
:100910000290CDE90645CDE90304CDE908476946D3
:10092000304600F0DDFB08B100F057FB304600F028
:1009300025FF08B100F051FB0221304600F04FFBCB
:1009400008B100F04AFB1021304600F048FB08B126
:1009500000F043FB0BB00020BDE8F08370010020E5
:10096000980100203EB50D0A8DF800508DF8011059
:10097000110A8DF80210069C190A8DF804108DF8E2
:100980000530210A8DF806108DF803208DF80740F8
:1009900002AB6A46014900F034FB3EBDBC000020BA
:1009A0003EB50D0A8DF800508DF80110110A8DF832
:1009B0000210069C190A8DF804108DF80530210AE2
:1009C0008DF806108DF803208DF8074002AB6A46BB
:1009D000014900F016FB3EBDD40000200C48816B9D
:1009E0000C48012910D002290BD0032904D0042976
:1009F00005D140F24E2101E040F2BF4101600120EB
:100A0000704740F23A71F9E740F6C411F6E700008A
:100A1000805E0020400C0040014800F029BF00002B
:100A2000F0020020014800F023BF000090020020E7
:100A3000014800F01DBF000050030020016818238A
:100A4000CAB2103AB2FBF3F2054B6FF30901032A65
:100A50009B5CC36500D9091D81650846704700008D
:100A60001865000810B5014600208B698A6A4FF0AE
:100A7000C07453B1B3F5005F15D072B1012A0CD028
:100A8000022A0AD0032A09D104E01AB1012A06D0A9
:100A9000022A03D1C96AC90100D5012010BDC96A63
:100AA000A142FAD010BD002AF7D0012AF2D0022AC2
:100AB000F3D0032AF3D010BD30B50468256825F4BF
:100AC00080252560046863608368402B036803D039
:100AD00099600068C26030BD9A600068C16030BD36
:100AE00010B52DED0A8B82B09FEDC10AC14880ED93
:100AF000070A9FEDC18A042180ED038A81634FF4C8
:100B000088742146BD48FFF719FC2146BC48FFF711
:100B100015FC2146BB48FFF711FC2146BA48FFF7F8
:100B20000DFC2146B948FFF709FC2146B848FFF7FC
:100B300005FC2146B748FFF701FC2146B648FFF700
:100B4000FDFB2146B548FFF7F9FB8DED018A8DEDE0
:100B5000008AF0EE487AB0EE487AF0EE486AB0EEDD
:100B6000486AF0EE485AB0EE485AF0EE484ADFEDD7
:100B7000AC8AB0EE684A9FEDAB9AF0EE493ADFEDF1
:100B8000AA9AB0EE693A9FEDA9AAF0EE4A2ADFEDE3
:100B9000A8AAB0EE6A2A9FEDA7BAF0EE4B1ADFEDD5
:100BA000A6BAB0EE6B1A9FEDA5CAB0EE000A934844
:100BB000F0EE4C0A02F031FB8DED018A8DED008ADA
:100BC000F0EE487AB0EE487AF0EE486AB0EE486A45
:100BD000F0EE485AB0EE485AF0EE484AB0EE684A95
:100BE000F0EE493AB0EE693AF0EE4A2AB0EE6A2ADF
:100BF000F0EE4B1AB0EE6B1AF0EE4C0AB0EE000AB3
:100C00007F4802F00AFB8DED018A8DED008AF0EE3F
:100C1000487AB0EE487AF0EE486AB0EE486AF0EEF4
:100C2000485AB0EE485AF0EE484AB0EE684AF0EE44
:100C3000493AB0EE693AF0EE4A2AB0EE6A2AF0EE8E
:100C40004B1AB0EE6B1AF0EE4C0AB0EE000A6D488B
:100C500002F0E3FA8DED018A8DED008AF0EE487A1C
:100C6000B0EE487AF0EE486AB0EE486AF0EE485AC4
:100C7000B0EE485AF0EE484AB0EE684AF0EE493A13
:100C8000B0EE693AF0EE4A2AB0EE6A2AF0EE4B1A5C
:100C9000B0EE6B1AF0EE4C0AB0EE000A5A4802F0C1
:100CA000BCFA8DED018A8DED008AF0EE487AB0EE47
:100CB000487AF0EE486AB0EE486AF0EE485AB0EE74
:100CC000485AF0EE484AB0EE684AF0EE493AB0EEC3
:100CD000693AF0EE4A2AB0EE6A2AF0EE4B1AB0EE0C
:100CE0006B1AF0EE4C0AB0EE000A484802F095FA92
:100CF0008DED018A8DED008AF0EE487AB0EE487AEB
:100D0000F0EE486AB0EE486AF0EE485AB0EE485A43
:100D1000F0EE484AB0EE684AF0EE493AB0EE693A71
:100D2000F0EE4A2AB0EE6A2AF0EE4B1AB0EE6B1AD9
:100D3000F0EE4C0AB0EE000A354802F06EFAF0EE22
:100D4000484AB0EE484AF0EE483AB0EE483AF0EE83
:100D5000482A9FED3B9AF0EE481AB0EE481AB0EEE2
:100D6000492AF0EE480AB0EE000A2A4802F040FA9A
:100D7000DFED348AF0EE483AB0EE483AF0EE684AD9
:100D8000B0EE684AF0EE482AB0EE492AF0EE481A72
:100D9000B0EE481AF0EE480A9FED2B0A1E4802F00A
:100DA00027FADFED2A4AB0EE684AF0EE483AB0EE94
:100DB000483ADFED272A9FED272ADFED271AB0EE0C
:100DC000481AF0EE480AB1EE040A144802F010FA8C
:100DD0000C21224801F01CFE214940F24E200860FF
:100DE00002B0BDEC0A8BBDE81040FFF755BC000017
:100DF00000003644805E0020000000000C510020FE
:100E00001C520020EC4E0020FC4F0020CC4C002057
:100E1000DC4D00204C5500205C5600206C57002013
:100E2000000080460000004800002F440000964269
:100E30000000FA430AD7233C8FC2753C9A99993F28
:100E40000000FA4500409C453333333F00401C46C8
:100E5000CDCCCC3E00007A4600000045C001002009
:100E6000400C00402DE9F0414B4CDFF830812078F8
:100E70006070216911B9B8F900102161484F6169AA
:100E800011B9B7F90010616118B99FED460A84EDF8
:100E9000060A454E002596F86C0018B1012001F0B5
:100EA00051FFE8B142489FED410A257080ED0F0ADD
:100EB000404880ED0F0A404880ED0F0A3F4880ED22
:100EC0000F0A3F4880ED0F0A3E4880ED0F0A3E486A
:100ED00080ED0F0A87ED0F0A88ED0F0ABDE8F0815B
:100EE00096F86C100222012001290AD0022919D09B
:100EF0002178012906D00229F0D134490A788AB331
:100F000044E02070A178E17096F90A30012B0BD0F3
:100F1000032B11D084F8022002F0ECFFBDE8F04171
:100F200002F08ABA2270E8E7A5700029F4D0042004
:100F3000A0636571A571EFE7A070B6F9022024499E
:100F4000A2F5C0674FF48063943F0CD09A42E3D17E
:100F50000A68012AE0D10D6061790029DCD1607155
:100F6000A071D9E70BE0B6F904209A4202D0A5712E
:100F70000D60D1E70A68002ACED10860CCE7154A97
:100F800089881288914201D06071A07102F0A8FF97
:100F9000BDE8F04102F04EBA805E00206C570020A0
:100FA0005C56002000003644E05D00200000000098
:100FB0000C5100201C520020EC4E0020FC4F002061
:100FC000CC4C0020DC4D00204C550020600100205E
:100FD0003801002044010020704772B6FEE790F807
:100FE0002020012A07D0022A05D0416A41F480213D
:100FF000416201207047006842690A434261002053
:101000007047F0B590F820500468A468012D05D011
:10101000022D03D0416A41F480215DE014F0406F5D
:1010200001D1E50055D5C4F30164022C03D9416A0E
:1010300041F4000150E00125A5401D608D684FF48A
:10104000C0739DB1CE6835434E6845EAC605066853
:1010500003EB0417F5514FF4C275076805EB04154F
:101060000E697E51097D012905D009E00E88CD6801
:1010700045EA4655EBE701684E5946F480764E51F5
:101080001179D579567941EA056195792D0445EABA
:10109000062529434FF4C676056806EB0416A951C8
:1010A0001178D57841EA0561957852782D0445EAA2
:1010B000022211434FF4C475026805EB0415515127
:1010C000006803EB0411425842F001024250002034
:1010D000F0BD416A41F4001141620120F0BD000001
:1010E00010B590F82020012A07D0022A05D0416AC5
:1010F00041F480214162012010BD3B48D0F800221C
:1011000042F00102C0F80022D0F8002222F47C5202
:10111000C0F80022D0F800224B6A42EA0322C0F84D
:1011200000220A7D02F01F0301229A40D0F81C32EF
:101130009343C0F81C32CB69B3B9D0F80C32934357
:10114000C0F80C328C894B6864F31F434C6900EB88
:10115000C404C4F840320C890B6864F31F434C6923
:1011600000EBC404C4F84432CB69012B16D1D0F88B
:101170000C321343C0F80C320C884B6864F31F43E5
:101180004C6900EBC404C4F840320C89CB6864F3AA
:101190001F434C6900EBC404C4F844328B69002B34
:1011A000D0F804320ED01343C0F804320B69002B80
:1011B000D0F8143208D01343C0F81432096A012958
:1011C00004D008E09343EFE79343F5E7D0F81C120F
:1011D0001143C0F81C12D0F8001221F00101C0F830
:1011E0000012002010BD000000640040704730B5C0
:1011F00090F82040012C05D0022C03D0416A41F424
:1012000080215DE00468002955D02469A40754D0EA
:101210004FF4D874056804EB01142D5915F004053A
:10122000956005682D594ED0ED08556005682C591C
:1012300004F00204D4604FF4DA74056804EB01147E
:101240002D5905F00F05156105682D59C5F30725C2
:10125000956105682C59240C54614FF4DC720468C4
:1012600002EB0112A4581C700468A458240A5C7094
:101270000468A458240C9C700468A258120EDA70FA
:101280004FF4DE72046802EB0112A4581C7104686A
:10129000A458240A5C710468A458240C9C71046846
:1012A000A258120EDA71006881B1016941F0200183
:1012B0000161002030BDE468A8E7416A41F40011F3
:1012C0004162012030BD6D0D1560AFE7C16841F08E
:1012D0002001C160EDE72DE9F05F054600680024BC
:1012E0004669D0F804908768D0F80CB0D0F810A008
:1012F000D0F81880F10748D0F90714D00121816097
:10130000B80703D5284600F066FA0CE0780702D546
:101310004FF4006407E0380702D54FF4805402E030
:10132000284600F057FAF80516D529684FF4807062
:101330008860B80503D5284600F04FFA0CE0780520
:1013400002D544F4005407E0380502D544F4804443
:1013500002E0284600F040FAF80316D529684FF459
:1013600080308860B80303D5284600F038FA0CE0D6
:10137000780302D544F4004407E0380302D544F46E
:10138000803402E0284600F029FA300707D55FEAEA
:10139000CB6004D52968102044F40074C86070073D
:1013A0004FF0080707D55FEA0B7004D52868C760BF
:1013B000284600F099F9B00706D52868C06880076C
:1013C00002D0284600F092F9700607D55FEACA609D
:1013D00004D52968102044F480640861B00607D55C
:1013E0005FEA0A7004D528680761284600F0A0F972
:1013F000F00606D528680069800702D0284600F06C
:1014000099F9B00308D55FEAC96005D529681020AD
:101410004860284600F0B0F9F00307D55FEA09708C
:1014200004D528684760284600F0DAF9300446D52C
:101430005FEA497040D5F00504D55FEAC87001D075
:1014400044F00104B00504D55FEA887001D544F08A
:101450000204700504D55FEA487001D544F0040425
:10146000300529D518F0700F26D008F070004028FC
:1014700015D006DC102809D020280AD0302816D133
:101480000AE050280ED0602811D10EE044F0080484
:101490000DE044F010040AE044F0200407E044F0BA
:1014A000400404E044F0800401E044F480742868BF
:1014B000816921F070018161296804204860002C55
:1014C00005D0686A204368622846FFF78FFEBDE8B2
:1014D000F09F70B5040003D094F8200010B104E030
:1014E000012070BD204600F081F82068016821F0DD
:1014F0000201016000F050FC0546052604E000F002
:101500004BFC401B0A2811D8206840688007F6D49D
:101510002068016841F00101016000F03DFC0546D2
:101520000BE000F039FC401B0A2806D9606A40F441
:101530000030606284F82060D2E720684068C0070D
:10154000EFD0207E0128206801683DD021F0800185
:101550000160607E01282068016838D021F04001D8
:101560000160A07E01282068016833D021F02001AD
:101570000160E07E0128206801682ED041F0100152
:101580000160207F01282068016829D021F008012E
:101590000160607F01282068016824D021F00401E7
:1015A0000160D4E902010843D4E90412114308435D
:1015B0006168491E08432168C861002060620120FB
:1015C00084F82000002070BD41F08001C0E741F0A8
:1015D0004001C5E741F02001CAE721F01001CFE743
:1015E00041F00801D4E741F00401D9E7F0B587B034
:1015F000044614216846FEF7A1FE364B3648DFF854
:10160000D0E01968D4F800C0334A03250226092720
:1016100010300024491CF44522D11960012907D15A
:10162000016841F000710160006800F000700590F1
:10163000106840F0080010601068CDE9005600F016
:101640000800CDE9047069462448CDE9024500F060
:1016500081FA00220521142000F02AFC142033E036
:10166000DFF87CE0F44531D1D0F800C04CF0806C5C
:10167000C0F800C0D0F800C001290CF0806CCDF893
:1016800014C0196007D1016841F000710160006861
:1016900000F000700590106840F0020010601068C3
:1016A00002AB00F0020005904FF44050CDE9000677
:1016B00083E8B00069460B4800F04CFA002205218F
:1016C000402000F0F5FB402000F0E4FB07B0F0BD47
:1016D000006400401400002030380240000C02403A
:1016E00000680040000402407047000010B588B058
:1016F00004460C4B6A460021FFF779FD08B1FFF75D
:101700006CFC0948844205D106490098FFF724F88B
:1017100008B010BD05488442FAD102490098FFF78D
:101720006DF8F5E7A8000020700100209801002066
:101730007047000010B588B004460C4B6A46012182
:10174000FFF755FD08B1FFF748FC0948844205D171
:1017500006490098FFF700F808B010BD054884421C
:10176000FAD102490098FFF749F8F5E7B0000020E8
:1017700070010020980100207047000070B50446F9
:1017800090F82000012804D0606A40F400206062D4
:1017900018E0022084F820002068016821F001018F
:1017A000016000F0F9FA05460EE000BF00F0F4FA1F
:1017B000401B0A2808D9606A40F4003060620520A6
:1017C00084F82000012070BD20684068C007EDD17A
:1017D000606270BD704770477047704770477047D0
:1017E00070472DE9F0410446876D00F0D5FA0646B2
:1017F00094F835000025022806D08020606584F822
:1018000034500120BDE8F0812068016821F0160104
:1018100001602068416921F080014161206C08B9B4
:10182000A06C20B12068016821F0080101602068E7
:10183000016821F0010101600BE000F0ADFA801BAE
:10184000052806D92020606504F8345F0320607005
:10185000D8E720680068C007EFD194F85C103F20FB
:101860008840B86004F8345F012060700020C9E748
:101870002DE9F84304464FF00009CDF80090634885
:101880004FF41651A56D0068B0FBF1F72E6894F87F
:101890005C10082000FA01F131420FD021680A687B
:1018A00052070BD50A6822F004020A6094F85C1013
:1018B0008840A860606D40F00100606594F85C109D
:1018C0004FF0010808FA01F0304208D02168496958
:1018D000090604D5A860606D40F00200606594F8C8
:1018E0005C1004208840304208D0216809688907CC
:1018F00004D5A860606D40F00400606594F85C1049
:1019000010208840304218D021680968090714D592
:10191000A86020680168490304D50068000308D561
:10192000A16C07E00168C90503D4016821F0080132
:101930000160216C09B12046884794F85C10202092
:101940008840304231D021680968C9062DD5A86089
:1019500094F8350005282068016806D0490347D56A
:10196000006800031DD4616C1CE021F016010160C9
:101970002068416921F080014161206C08B9A06CA8
:1019800020B12068016821F00801016094F85C1022
:101990003F208840A86084F8349084F83580216D19
:1019A0001FE0E16B09B120468847606D00282BD00D
:1019B000606DC00714D0052084F8350020680168E8
:1019C00021F0010101600098401C0090B84203D84A
:1019D00020680068C007F6D184F8349084F8358018
:1019E000E16C002910D001B02046BDE8F043084763
:1019F0000168C905D5D4016821F01001016084F89F
:101A0000349084F83580CCE7BDE8F88324000020CA
:101A10002DE9F041044600F0BFF906465CB100250F
:101A200084F83450022084F835002068016821F0E1
:101A3000010101600DE00120BDE8F08100F0ACF98A
:101A4000801B052805D920206065032084F8350017
:101A5000F2E720680068C007F0D1226811682048CA
:101A60000140D4E901031843D4E903363343184352
:101A700063691843A3691843E3691843236A184349
:101A80000843616A042903D1D4E90B1319430843BD
:101A9000106020684069666A20F0070130460E43F6
:101AA000012704280CD1A06A0643E06A40B1204611
:101AB000FEF7D8FF20B14020606584F83570BAE7A2
:101AC000206846612046FEF7B9FF94F85C203F216C
:101AD00091408160656584F835700020ACE70000B6
:101AE0003F8010F02DE9F0410446866D90F83400F7
:101AF000002501280DD0012084F8340094F83570B9
:101B00000020012F07D084F8340002252846BDE8C4
:101B1000F0810220FBE7022784F8357060652046DB
:101B2000FEF7CAFF94F85C103F208840B060206840
:101B3000016841F016010160206C20B12068016845
:101B400041F0080101602068016841F00101016075
:101B5000DCE700002DE9F84FDFF8F4A100220124B2
:101B60000AF1040B03254FF00F090BF1040E00BF1F
:101B70000B6804FA02F63340B3426FD10F7907F0D5
:101B80000307012F01D0022F16D187684FEA4208C0
:101B900005FA08FC27EA0C07D1F80CC00CFA08FC7F
:101BA0004CEA070CC0F808C04768B7430E79C6F383
:101BB000001696403E4346600E79F643B6070AD0BB
:101BC000C7684FEA420C05FA0CF6B7438E6806FA6E
:101BD0000CF63E43C6600E7906F00306022E10D1C5
:101BE000D60800EB8608D8F8206057074FEAD76C74
:101BF00009FA0CF7BE430F6907FA0CF73743C8F828
:101C0000207006684FEA420C05FA0CF7BE430F79C4
:101C100007F0030707FA0CF7374307604E68F60032
:101C20001CD54C4E376847F480473760366822F041
:101C3000030706F480460096474E07EB060CDCF8D7
:101C4000086897073F0F09FA07F826EA0806DFF841
:101C50000C81404503D14FF0000841E072E0DFF80D
:101C60000081404502D14FF0010839E0DFF8F480EF
:101C7000404502D14FF0020832E0DFF8EC804045E9
:101C800002D14FF003082BE0DFF8E080404502D19D
:101C90004FF0040824E0DFF8D880404502D14FF02F
:101CA00005081DE0DFF8CC80404502D14FF0060862
:101CB00016E0DFF8C480404502D14FF007080FE07E
:101CC000DFF8B880404502D14FF0080808E0DFF89F
:101CD000B080404502D14FF0090801E04FF00A08FA
:101CE00008FA07F848EA0608CCF80888DAF800602D
:101CF0005746D1F804C09E435FEACC3C00D51E4352
:101D00003E60DBF800605F46D1F804C09E435FEAA6
:101D10008C3C00D51E433E60DEF800607746D1F86B
:101D200004C09E435FEACC2C00D51E433E60084FA2
:101D30000C373E68D1F804C09E435FEA8C2C00D576
:101D40001E433E60521C102AFFF412AFBDE8F88F0C
:101D5000003C014044380240003001400000024095
:101D60000004024000080240000C02400010024043
:101D70000014024000180240001C024000200240F3
:101D8000002402400069084000D0012070470AB1D9
:101D9000816170470904FBE70148806870470000D3
:101DA0001800002002488168027811448160704761
:101DB000180000200B4810B5016841F40071016063
:101DC000016841F480610160016841F48071016043
:101DD000032000F08DF8002000F006F800F03EF837
:101DE000002010BD003C024010B5014688B0002222
:101DF0002D2000F05DF82D2000F04CF81348002451
:101E0000016841F480710160006805A900F48070E8
:101E10000690684600F018F900F036F90C494000C9
:101E2000B0FBF1F10C480B4A491E026040F2E73268
:101E3000C0E90324C0E9011400F078FB10B10120CF
:101E400008B010BD044800F0B3FBF9E74038024089
:101E500040420F0000200040B00300200C4882B038
:101E6000016841F480410160006800F48040009006
:101E70000748001F016841F080510160006800229E
:101E800000F0805000900F21901E02B000F010B8BA
:101E900044380240002809DB00F01F020121914074
:101EA0004009800000F1E020C0F8001170470000F8
:101EB000F0B40E4B1B680C46C3F30223C3F10705B5
:101EC000042D00D90425191D072901D2002300E0A3
:101ED000DB1E012606FA05F1491E214099409E406D
:101EE000761E16403143F0BC02F001BD0CED00E05F
:101EF000064900F0070208684FF6FF03184040EA61
:101F00000220034A10430860704700000CED00E017
:101F10000000FA052DE9F0470E46050065D0DFF810
:101F20001481D8F80000F7B200F00F00B04207D2D9
:101F300088F80070D8F8000000F00F00B04254D1CB
:101F400028683D4C810712D5400703D5206840F42E
:101F5000E05020602878000703D5206840F46040F6
:101F600020602068A96820F0F000084320602878ED
:101F7000C0072DD0304968680839012812D00228DE
:101F800013D0032811D00968890700292DDA2168A8
:101F900021F0030101432160FFF7FEFE814641F27B
:101FA000883A0EE009688903EFE709688901ECE7E0
:101FB000FFF7F2FEA0EB0901514502D90320BDE86D
:101FC000F0872068696800F00C00B0EB810FEFD15A
:101FD000D8F80010404601F00F01B14207D9077050
:101FE000006800F00F00B04201D00120E7E7287838
:101FF000400705D52068E96820F4E05008432060D8
:102000002878000706D52068296920F4604040EA56
:10201000C100206000F058F82168084AC1F303119C
:10202000515CC8400649086006480068FFF7DCFEBE
:102030000020C4E7003C0240083802402065000848
:10204000240000201C0000200F2202600C4A1368AC
:1020500003F003034360136803F0F0038360136825
:1020600003F4E053C36012684FF4E05303EAD20272
:1020700002610448006800F00F000860704700002B
:1020800008380240003C02400448054900680968DD
:10209000044AC1F38221515CC840704724000020EB
:1020A000083802403065000804480549006809689E
:1020B000044AC1F34231515CC840704724000020FB
:1020C0000838024030650008154810B5006810F067
:1020D0000C02144813D01449042A0FD0082A0ED138
:1020E0000F4C241F2268236802F03F025B0207D5D1
:1020F0002068C0F38810A0FB010106E0084610BD6F
:102100002168C1F38811A1FB00010023FEF7CCF880
:102110002168C1F30141491C4900B0FBF1F010BD39
:10212000083802400024F400001BB7002DE9F84FE6
:1021300004006ED02078DFF84C93C007A9F10405A5
:102140004AD009F104000168C1F38101012908D0D6
:102150000068C0F3810002280AD1D9F800004002CB
:1021600006D52868800337D560680028E1D033E0C1
:102170006068B0F5803F10D0B0F5A02F286810D06F
:1021800020F480302860286820F48020286060686F
:10219000A8B1FFF701FE06460DE0286840F4803044
:1021A000F4E740F480202860F7E700BFFFF7F4FD74
:1021B000801B642873D828688003F7D50CE0FFF7EC
:1021C000EBFD064605E000BFFFF7E6FD801B642837
:1021D000F0D828688003F7D42078DFF8AC82800735
:1021E0004FF0000A3ED5A748001D016811F00C0F02
:1021F00008D00068C0F3810002280BD1D9F8000094
:10220000400207D42868800716D5E068012800D16D
:1022100012E033E1E068B8B10120C8F80000FFF730
:10222000BBFD064605E000BFFFF7B6FD801B022898
:10223000C0D828688007F7D52868216920F0F80001
:1022400040EAC10028600DE0C8F800A0FFF7A4FD37
:10225000064604E0FFF7A0FD801B02281FD828686F
:102260008007F7D42078000722D5864F8748616918
:10227000703771B101210160FFF78EFD064604E061
:10228000FFF78AFD801B022809D838688007F7D538
:102290000EE0C0F800A0FFF77FFD064605E082E0F3
:1022A000FFF77AFD801B02287DD838688007F7D4B5
:1022B0002078400768D5DFF8CCB100270BF13C0B44
:1022C000DBF80000C0000BD4DBF8001041F08051B7
:1022D000CBF80010DBF80000012700F080500090E0
:1022E0006B4E3068C00510D4306840F480703060A8
:1022F000FFF752FD009005E0FFF74EFD0099401AF0
:10230000022850D83068C005F6D55E4EA0686C36FD
:1023100001280FD00528306810D020F0010030606F
:10232000306820F004003060A068B8B1FFF734FDD9
:1023300000900FE0306840F00100F4E740F0040046
:102340003060F7E7FFF728FD0099411A41F2883025
:10235000814266D830688007F4D50EE0FFF71CFD97
:10236000009007E0FFF718FD0099411A41F288300C
:10237000814256D830688007F4D42FB1DBF80010C2
:1023800021F08051CBF80010A069C8B33D49091D68
:102390000968C1F3810102294AD00228504607D0BA
:1023A000C8F8600000E03CE0FFF7F6FC04463BE0C4
:1023B0004746C8F86000FFF7EFFC064605E000BF9F
:1023C000FFF7EAFC801B02282BD828688001F7D48D
:1023D000D4E907010843A16A2E4A490802EB0141EA
:1023E000626A41EA8211084394F82C1040EA0161C4
:1023F000C9F8001001203866FFF7CEFC044606E05D
:102400003EE000BFFFF7C8FC001B022809D828687F
:102410008001F7D534E000BFFFF7BEFC001B0228A7
:1024200002D90320BDE8F88F28688001F4D427E0A2
:102430000128F7D0D9F80000E26900F48001914248
:102440001CD1226A00F03F01914217D147F6C071BA
:10245000626A0140B1EB821F10D1A26A4FF0FF33D4
:1024600000F4403103EB5202B1EB024F06D194F875
:102470002C1000F07060B0EB016F01D00120D1E7AB
:102480000020CFE70438024000004742800E474258
:10249000007000400000FFFF7047704770B590F873
:1024A0003C20012A32D0012480F83C40022280F8EE
:1024B0003D2003685A689D6822F070060A6832431E
:1024C0005A60134B02689A4214D0B2F1804F11D077
:1024D000104B9A420ED0104B9A420BD00F4B9A429F
:1024E00008D00F4B9A4205D00E4B9A4202D00E4BA9
:1024F0009A4204D1496825F080031943916080F81D
:102500003D40002180F83C10084670BD022070BD9F
:10251000000001400004004000080040000C0040A2
:1025200000040140004001400018004010B50400C4
:1025300003D094F83D0010B107E0012010BD002049
:1025400084F83C00204600F01FF8022084F83D008B
:10255000211D206801F0ACFE012084F8460084F8BB
:102560003E0084F83F0084F8400084F8410084F87D
:10257000420084F8430084F8440084F8450084F85D
:102580003D00002010BD000008B5006806498842E3
:1025900008D10648016841F008010160006800F0B8
:1025A0000800009008BD0000000C004040380240C8
:1025B00090F83D10012901D001207047022180F8D8
:1025C0003D100168CA6842F00102CA600068114902
:1025D000884214D0B0F1804F11D00F4988420ED0FC
:1025E0000E4988420BD00E49884208D00D498842D6
:1025F00005D00D49884202D00C49884204D1816837
:1026000001F00701062903D0016841F001010160D2
:102610000020704700000140000400400008004016
:10262000000C004000040140004001400018004040
:1026300070B5044690F83C00012817D0012584F8B5
:102640003C50022084F83D002068826822F0770226
:1026500022F47F4282600868502830D00DDC2028A8
:102660004DD005DC98B310283BD148E0022070BD66
:10267000302844D0402834D139E0602828D0702850
:1026800006D0B0F5805F2CD0B0F5005F29D10AE00C
:10269000CB68D1E90121206801F07BFE20688168C8
:1026A00041F0770109E0CB68D1E90121206801F010
:1026B00070FE2068816841F48041816011E0CA6841
:1026C0004968206801F03AFF5021206807E016E0D1
:1026D000CA684968206801F042FF6021206801F063
:1026E00062FE84F83D50002084F83C0070BDCA684A
:1026F0004968206801F022FF40212068EFE7226846
:1027000001461046EBE7704770B504460068016962
:102710004FF00005C943890715D4C168C94389072B
:1027200011D4E91E016101202077206880698007AB
:10273000204602D0FFF7E7FF04E000F0D5F820467E
:1027400000F064F9257720680169C943490717D467
:10275000C168C943490713D46FF004010161022025
:1027600020772068806910F4407F204602D0FFF770
:10277000CAFF04E000F0B8F8204600F047F92577DA
:1027800020680169C943090716D4C168C94309070C
:1027900012D46FF008010161042020772068C0691D
:1027A0008007204602D0FFF7AEFF04E000F09CF85F
:1027B000204600F02BF9257720680169C943C90636
:1027C00017D4C168C943C90613D46FF01001016161
:1027D000082020772068C06910F4407F204602D08E
:1027E000FFF791FF04E000F07FF8204600F00EF9BB
:1027F000257720680169C943C90708D1C168C94361
:10280000C90704D1891E0161204600F065F92068DE
:102810000169C943090609D4C168C943090605D439
:102820006FF0800101612046FFF736FE20680169E4
:10283000C943490609D4C168C943490605D46FF0A4
:1028400040010161204600F051F920680169C94347
:1028500089060BD4C168C943890607D46FF02001EB
:1028600001612046BDE87040FFF717BE70BD000053
:1028700030B587B0044614216846FDF75FFD164960
:102880002068884226D115480024016841F48071EF
:102890000160016801F480710591016841F08001D7
:1028A00001600068022500F0800005900120009082
:1028B000CDE9015469460A48CDE90345FFF74AF9D5
:1028C000E8020090CDE9015469460648CDE9034588
:1028D000FFF740F907B030BD000C0040303802402F
:1028E00000200240001C0240704770B5044690F87A
:1028F0003C000D4601280AD0012084F83C0042B17A
:10290000042A18D0082A2AD00C2A4DD139E00220F6
:1029100070BD206801F050FD2068816941F0080118
:1029200081612068816921F00401816120688169E9
:102930002A69114311E0206801F06EFD2068816969
:1029400041F4006181612068816921F480618161C5
:10295000206881692A6941EA0221816124E02068B6
:1029600001F090FD2068C16941F00801C161206853
:10297000C16921F00401C1612068C1692A6911435C
:1029800011E0206801F0B2FD2068C16941F40061E6
:10299000C1612068C16921F48061C1612068C16999
:1029A0002A6941EA0221C161002084F83C0070BD1F
:1029B00010B5040003D094F83D0010B107E00120E9
:1029C00010BD002084F83C00204600F01EF80220D4
:1029D00084F83D00211D206801F06AFC012084F884
:1029E000460084F83E0084F83F0084F8400084F8F4
:1029F000410084F8420084F8430084F8440084F8DD
:102A0000450084F83D00002010BD7047704700006D
:102A100010B50446022249B104290ED0082913D06A
:102A200094F84100012816D0012010BD94F83E0012
:102A30000128F9D184F83E200FE094F83F000128E6
:102A4000F2D184F83F2008E094F840000128EBD14F
:102A500084F8402001E084F841200122206801F040
:102A60008BFC16492068164A884201D0904203D157
:102A7000436C43F4004343642068884213D0B0F1B0
:102A8000804F10D00F4988420DD00F4988420AD09C
:102A90000E49884207D0904205D00D49884202D0A5
:102AA0000C49884204D1816801F00701062903D04E
:102AB000016841F001010160002010BD00000140EB
:102AC000000401400004004000080040000C0040E9
:102AD000004001400018004000680349884201D1CD
:102AE000FFF760B970470000002000407047704752
:102AF00010B504460068416994F83D20C1F3C01147
:102B0000212A0BD151B1416921F080014161606BF3
:102B100008B1FEF766FE204601F0B6FD2068416967
:102B200094F83E20C1F38011222A0BD151B14169A2
:102B300021F040014161A06B08B1FEF752FE204632
:102B400001F08AFD002010BD704770B5040004D06C
:102B500094F83D00002510B106E0012070BD84F816
:102B60003C50204600F022F8242084F83D002068E4
:102B7000C16821F40051C160204601F08FFD20683A
:102B8000016921F4904101612068416921F02A0125
:102B900041612068C16841F40051C1602564202072
:102BA00084F83D0084F83E00002070BD2DE9F0431C
:102BB00087B0064614216846FDF7C0FB4F48DFF892
:102BC00038C1143835684D49022203230024071503
:102BD000654535D10D6845F010050D60096801F0B7
:102BE00010010591016841F0020101600068694629
:102BF00000F002000590C0208DE815000720CDE907
:102C000003303F48FEF7A6FF3F4D3E48286078045A
:102C1000C5E90104C5E903476C61AC61EC612C6254
:102C200028466C62FEF7F4FE08B1FEF7D6F9B563EC
:102C3000002205212520AE63FFF73AF9252055E053
:102C4000DFF8C8C0654553D10D6845F020050D601B
:102C5000096801F020010591016841F0400101601F
:102C60000068694600F0400005904FF484408DE80C
:102C700015000820CDE903302548FEF76BFF224DF3
:102C800020486035183828604FF02069C5E9019464
:102C9000C5E903476C614FF40038AC61C5E90748EA
:102CA00028466C62FEF7B4FE08B1FEF796F9B563EC
:102CB000AE63154D1348C0356030E5E80209402089
:102CC00091C5114845F81449C030AC61C5E90748C1
:102CD0006C62FEF79DFE08B1FEF77FF97563002276
:102CE00005214720AE63FFF7E3F84720FFF7D2F84E
:102CF00007B0BDE8F08300000010014044380240F6
:102D00000004024040640240900200200014014090
:102D10000018024090F83E30202B0ED159B152B12C
:102D200090F83C30012B08D0012380F83C30002380
:102D3000036301F039BD01207047022070477047DE
:102D40007047FEE701490968084070470401002008
:102D5000084890F86C1000290AD090F82810C9078C
:102D600006D090F82A10C90702D1C16AC943C162CE
:102D700070470000E05D002038B54FF40061234843
:102D8000FFF700F80146224C002504F11400012948
:102D90001BD09FED200A84ED0E0AB4F9041000EE5A
:102DA000101AB8EEC00A84ED0D0A00F065FA00951D
:102DB00094ED0F0A00231946BDEEC00A10EE100A6A
:102DC00002B21548FDF7CEFD1CE09FED140A84ED1C
:102DD0000E0AB4F9041000EE101AB8EEC00A84ED21
:102DE0000D0A00F049FA009594ED0F0A00231946E8
:102DF000BDEEC00A10EE100A02B20748FDF7B2FDA0
:102E0000A08808B1002038BD012038BD001C024058
:102E10005C5600200000FAC4980100200000000069
:102E2000024A002142F8201070470000505E002046
:102E3000104810B50E4901600221416000214FF099
:102E40004072C0E90212921102614FF4A002426185
:102E5000017641768176C17601774177FEF739FBBD
:102E6000002803D0BDE81040FEF7B7B810BD000041
:102E70000064004070010020104810B50E49016048
:102E80000221416000214FF04072C0E9021292110C
:102E900002614FF4A0024261017641768176C176EB
:102EA00001774177FEF715FB002803D0BDE81040FD
:102EB000FEF793B810BD00000068004098010020A4
:102EC000114808B5016841F48001016000680022E2
:102ED00000F48000009005213920FEF7E9FF392039
:102EE000FEF7D8FF002205213A20FEF7E1FF3A2045
:102EF000FEF7D0FF002205214520FEF7D9FFBDE8EF
:102F000008404520FEF7C6BF3038024010B5144BCC
:102F100000220121134801F057FE134C02212061C9
:102F200001F08EFE0E4A0021903A104801F006FE94
:102F30000B4A20606C3A00210D4801F0FFFD084A61
:102F40006060483A00210B4801F0F8FD044AA06097
:102F5000243A0021084801F0F1FDE06010BD0000B6
:102F600008650008D941000800000020BD410008A4
:102F700085410008C94100089541000870B586B038
:102F800014216846FDF7DAF92D480024016841F064
:102F900040010160016801F040010591016841F0C4
:102FA00001010160016801F001010591016841F032
:102FB00002010160016801F002010591016841F020
:102FC00008010160016801F008010591016841F400
:102FD00080710160016801F480710591016841F020
:102FE00020010160016801F020010591016841F0B4
:102FF000800101600068134E00F0800005900022FF
:1030000003213046FEF7C3FE402002258DE8310043
:1030100069460D48FEF79EFD0320009001AA01209D
:1030200082E8310069463046FEF794FD4FF4406077
:103030008DE8310069460548FEF78CFD06B070BD8D
:10304000303802400014024000200240001C0240C0
:1030500010B58EB000240794089409940A940B9438
:103060001C2168460C94FDF769F924482249016047
:103070004F21C0E9011444F61F61C0E903148461C3
:10308000FFF754FA08B1FDF7A8FF4FF480500790FE
:1030900007A91A48FFF7CCFA08B1FDF79EFF1748B9
:1030A000FFF786FC08B1FDF798FF0B940BA91348B6
:1030B0000C94FFF7F3F908B1FDF78FFF6020CDE91D
:1030C00000040294082269460C480494FFF70DFCA2
:1030D00008B1FDF782FF4FF4FA7001900C226946A7
:1030E0000648FFF702FC08B1FDF777FF0348FFF73A
:1030F000BFFB0EB010BD0000000C0040C00100205E
:103100000E4810B50C4901600D4941604FF48051E3
:1031100081604900C160C910016104214161002141
:103120008161C161FFF711FD002803D0BDE81040A7
:10313000FDF753BF10BD0000001001400802002041
:10314000A08601000C4810B50A4901604FF4E13136
:103150004160002181600C22C160C0E904128161DC
:10316000C161FFF7F2FC002803D0BDE81040FDF775
:1031700034BF10BD001401404C020020FEE70000E7
:10318000F0B5B0F9002042800B8800255BBA1BB275
:1031900003804C889F1A64BA84808C88134A64BA6E
:1031A000C48089790172104E1478B0F90A10B7F50D
:1031B000805F05DD012C01D1B04208D0491E09E035
:1031C00017F5805F07DA012C03D1B04201D11570E9
:1031D00001E0491C41810169C160B0F90A1003EBAB
:1031E00041310161F0BD00003C540020B8000020D6
:1031F000C0ED0C1A80ED102A00F11402002182ECBF
:10320000030A483280F8441080ED1E4AC0ED224A7D
:10321000C2EC032A80F88C1070472DED028B00F170
:103220004C02DDED038A9DED028A80ED050A80EDFA
:10323000061AC0ED071AC0ED0C3A80ED104AC0ED39
:10324000120A022182EC032A483280F84410C0EDB1
:10325000174AC0ED185A80ED196A80ED1E8AC0ED3C
:10326000228A80ED245AC2EC036A80F88C10BDECEF
:10327000028B7047FEE7000000B5D0ED041AC0EDE8
:10328000051A90ED030A80ED040AD0ED090A90EDCD
:10329000081A70EEC10AC0ED030A90F8301021B18F
:1032A00001292FD0022946D0ABE090ED061A71EE2D
:1032B000201AC0ED061A90ED071AF4EEC11AF1EECD
:1032C00010FA01DD80ED061AD0ED061AB1EE411AB2
:1032D000F4EEC11AF1EE10FA01D280ED061A90ED6B
:1032E000001AD0ED011A90ED062A21EE201A30EED8
:1032F000C00AD0ED020A01EE821A00EE801A80EDBB
:103300000A1A7EE030EEC01A90ED002AF0EE002A94
:1033100021EE021AB0EE602A00EE622A90ED010A58
:1033200072EE211A00EE211A00EE201A90ED0A0A20
:1033300031EE000A4CE070EE601A9FED3D1AC0EDD0
:10334000111A90ED0E2AF4EEC20AF1EE10FA02DD27
:1033500090ED0B0A51E0B1EE422AF4EEC20AF1EE12
:1033600010FA04D290ED0B0AB1EE400A45E0D0ED20
:103370000F2AB0EEE02AB4EEE22AF1EE10FA2AD2D9
:1033800090ED061A31EE201A80ED061AD0ED070AEC
:10339000B4EEE01AF1EE10FA01DDC0ED060A90ED90
:1033A000061AF1EE600AB4EEE01AF1EE10FA01D25C
:1033B000C0ED060AD0ED0D0A90ED061A20EE800A47
:1033C000D0ED010A00EE810AD0ED020A00EEA10A5A
:1033D00080ED0A0A15E001F015FBD0ED101AD0EDD2
:1033E000040A40EE210A90ED000AD0ED111A20EEF9
:1033F000800AD0ED020A00EEA10A80ED0A0A80EDF3
:10340000061AD0ED0A0A90ED0B0AF4EEC00AF1EEAE
:1034100010FA01DD80ED0A0AD0ED0A0AB1EE400A89
:10342000F4EEC00AF1EE10FA01D280ED0A0A00BDF6
:1034300000000000704700002DE9F04129480127F5
:10344000294DB0F90410294CA1F580614FF0000816
:10345000002901DD2F600AE003DA4FF0FF31296017
:1034600005E0A16B2A681144A163C5F80080B0F99A
:103470000010FAEE000AA1F5806100EE101AB8EE15
:10348000C00A20EE200AFBEE000A84ED0B0AB0F918
:103490000810A1F5806100EE101AB8EEC00A20EE07
:1034A000200A84ED0C0AB0F90260A6F58060FCF7F2
:1034B000C2FF95ED021B53EC112BFCF74AFF41ECC8
:1034C000100B01F024FA51EC100BFCF7D8FF6063ED
:1034D000B6F5806F02DA2771BDE8F08184F80480C8
:1034E000FAE70000E05D002008010020805E002077
:1034F000144810B5B0F9041000EE101AB8EEC00A66
:1035000080ED0D0A1048B0F9041000EE101AB8EE64
:10351000C00A80ED0D0A0D48B0F9041000EE101A33
:10352000B8EEC00A80ED0D0A06481430FFF7A4FE7D
:1035300005481430FFF7A0FE0448BDE810401430E1
:10354000FFF79ABE4C5500205C5600206C570020B7
:103550002DE9F843324C334E334D20784FF00008BC
:10356000F0B301283AD1A078002837D1FDF736FA18
:103570002E4894ED0B0A2E4F80ED0E0A94ED0C0AA6
:1035800087ED0E0AFFF7B4FF2A48CDF8008000212E
:1035900090ED0F0ABDEEC00A10EE100A97ED0F0A6B
:1035A00003B2BDEEC00A10EE100A02B22248FDF7C7
:1035B000D9F9207960B3012810D10122114628469B
:1035C000FEF7E5FB002202212846FEF7E0FB94ED22
:1035D0000D0ABCEEC00A10EE100A3060BDE8F88398
:1035E000FFE700231A4619461348CDF80080FDF77F
:1035F000B9F942F20F703060002201212846FEF72F
:10360000C6FB2846BDE8F84300220221FEF7BFBBF7
:10361000002201212846FEF7BAFB0122D3E7000071
:10362000805E00203C0C0040001402404C550020FD
:103630005C5600206C5700209801002038B50168C6
:1036400004460868C00630D50868486800901748E6
:103650000268406816484FF40012814202D91448AB
:103660004C3804E01348814203D9114850380260B5
:1036700008E0104B0F48603BB838994201D9C2604E
:1036800000E082602046FFF733FAA06B00684068D4
:1036900020B900F0BBFB0020FFF7C2FB2046BDE8CD
:1036A000384012220449FFF735BB38BD00100140F5
:1036B00058640240B8600240CC5D002038B54FF439
:1036C00080612348FEF75EFB224C01004FF00005AD
:1036D00004F114001ED09FED200A84ED0E0AB4F907
:1036E000041000EE101AB8EEC00A84ED0D0AFFF7C0
:1036F000C3FD009594ED0F0A00231946BDEEC00AE4
:1037000010EE100A02B21548FDF72CF9A088E8B1B6
:10371000002038BD9FED120A84ED0E0AB4F90410A2
:1037200000EE101AB8EEC00A84ED0D0AFFF7A4FDF2
:10373000009594ED0F0A00231946BDEEC00A10EE65
:10374000100A02B20548FDF70DF9E1E7012038BD86
:10375000001C02405C560020000000009801002080
:103760000000FA442DE9F8439FED750A754FDFF824
:10377000DC91DFED750A764C87ED0E0A754DC9EDCB
:103780000E0A84ED0E0AC5ED0E0A9FED730A734E04
:1037900086ED0E0A9FED720ADFF8C88188ED0E0AE9
:1037A000B7F9040000EE100AB8EEC00A87ED0D0A62
:1037B000B9F9040000EE100AB8EEC00A89ED0D0A4E
:1037C000B4F9040000EE100AB8EEC00A84ED0D0A48
:1037D000B5F9040000EE100AB8EEC00A85ED0D0A36
:1037E000B6F9040000EE100AB8EEC00A86ED0D0A24
:1037F000B8F9040000EE100A07F11400B8EEC00A90
:1038000088ED0D0AFFF738FD09F11400FFF734FDCC
:1038100004F11400FFF730FD05F11400FFF72CFD53
:1038200006F11400FFF728FD08F11400FFF724FD4E
:1038300095ED0F0ABDEEC00A10EE100A00B200901E
:1038400094ED0F0ABDEEC00A10EE100A98ED0F0AB3
:1038500003B2BDEEC00A10EE100A96ED0F0A02B2D6
:10386000BDEEC00A10EE100A01B23F48FDF77AF82B
:103870000020009099ED0F0A0023BDEEC00A10EE63
:10388000100A97ED0F0A02B2BDEEC00A10EE100A40
:1038900001B23548FDF784F897ED0E0AD7ED0D0A11
:1038A000324830EE600AB0EEC00A10EE101A8142C3
:1038B0003DDA99ED0E0AD9ED0D0A30EE600AB0EE50
:1038C000C00A10EE101A814231DA94ED0E0AD4EDDE
:1038D0000D0A30EE600AB0EEC00A10EE101A8142F6
:1038E00025DA95ED0E0AD5ED0D0A30EE600AB0EE40
:1038F000C00A10EE101A814219DA96ED0E0AD6EDC2
:103900000D0A30EE600AB0EEC00A10EE101A8142C5
:103910000DDA98ED0E0AD8ED0D0A30EE600AB0EE21
:10392000C00A10EE101A814201DA012000E00020E6
:103930000F490028C86100D00120BDE8F8830000CD
:103940000080BBC50C5100200080BB451C520020EC
:10395000EC4E0020FC4F002000803BC5CC4C0020EA
:1039600000803B45DC4D00207001002000004842F3
:103970001801002070B51B4D00241B48C5F81240EB
:10398000AC75C5F81740EC7604604460048184721D
:103990002C7020210B30FCF7D1FC05F10A001B2113
:1039A0000460001D046010482C816C702B30FCF703
:1039B000C5FC0D4810214630FCF7C0FC0A48102118
:1039C0005630FCF7BBFCAC70EC702C71AC62AC8573
:1039D00085F82E40EC612C84C5F82240EC84EC8004
:1039E00070BD00003E010020BC5E0020474918B4B5
:1039F0008A88223940F20224CA800022ADF80020D1
:103A00000268C1F8122002798A75B0F80520ADF875
:103A1000002092B2A2F20223A24248D020DCB2F5EA
:103A2000817F3BD00FDC012A24D0022A2ED0032A2A
:103A30002FD0A2F58072013A03D1D0F80700C1F867
:103A40000A0018BC7047B2F5827F2CD0A2F58072B4
:103A5000053A57D0FC2AF4D1C11D1B222C482FE077
:103A6000092BEED2DFE803F005282F323538410567
:103A70004700E6E7264950F8072F2B390A604268CD
:103A80004A6002890A81807A8872DAE7C079087010
:103A9000D7E7C11D1E482022203811E0D0F80700CA
:103AA000C1F80E00CDE7B0F807000881C9E7C11DD5
:103AB000174810221B3003E0C11D154810222B307F
:103AC00018BCFCF722BCC0798870BAE7C079C8700E
:103AD000B7E7C0790871B4E750F8072F8A62828887
:103AE0008A85807981F82E00ABE750F8072FCA61EC
:103AF00080880884A5E750F8072FC1F82220808825
:103B0000C8849EE7C07948709BE7000060010020F0
:103B1000E75E00201F4818B40068C00637D51E486D
:103B200001680A6849680091816B09680A681B4B43
:103B300012030A684FF4007422F001020A60816BDC
:103B400009684A68C2F5007292B21A804C60816BB3
:103B500009680B680CD443F400230B60806B006889
:103B6000016841F0010101600D4901F580600BE041
:103B700023F400230B60806B0068016841F00101B1
:103B80000160084901F5007018BC00F0FABE18BCCD
:103B900070470000001401404C0200206E0100201C
:103BA000245F00202461002070B5A5263E4C00252E
:103BB00072E03D48183800F0C3FE94F886100629DC
:103BC0004BD2DFE801F003131D2D384DB0420AD16E
:103BD000012184F88610B4F88710A31D4A1CA4F8AC
:103BE0008720C85458E0A4F8875055E0A080B4F866
:103BF0008710A31D4A1CA4F88720C854022017E090
:103C0000A188A31D41EA0021A180B4F887104A1CB5
:103C1000A4F88720C854A08877281ED2032007E084
:103C2000B4F88710A31D4A1CA4F88720C8540420A8
:103C300084F8860030E0B4F88710A31D4A1CA4F86D
:103C40008720C854B4F88700052825D10521A01D78
:103C500001F0D0FE08B10520EAE784F88650C2E7FB
:103C6000A288B4F887100932914204D2A31D4A1CDD
:103C7000A4F88720C854A188B4F887000931884285
:103C80000AD384F88650A4F88750A01D01F094FE52
:103C900010B1A01DFFF7AAFE0348183800F0AFFED0
:103CA000002886D170BD00003C63002038B5114C5F
:103CB0009FED0F0A84ED0E0AB4F9040000EE100A1D
:103CC00004F11400B8EEC00A84ED0D0AFFF7D4FA2F
:103CD0000020009094ED0F0A00231946BDEEC00AA3
:103CE00010EE100A02B20448FCF73CFE38BD00009A
:103CF000000000005C560020980100202DE9F84FDC
:103D000038484FF0000A017839B101468278896B52
:103D1000CAB1807901280ED015E0002354461A4616
:103D200019463148CDF800A0FCF71CFE00231A46C6
:103D30001946009452E0002905DDFFF713FD2B49D9
:103D40008860BDE8F88F0029FBD12A4C9FED280A36
:103D5000294D2A4E84ED0E0A294F85ED0E0ADFF813
:103D6000A48086ED0E0ADFF8A09087ED0E0A88ED9C
:103D70000E0A89ED0E0A00F0D3F897ED0F0ABDEE9A
:103D8000C00A10EE100A00B2009096ED0F0ABDEEC8
:103D9000C00A10EE100A99ED0F0A03B2BDEEC00A78
:103DA00010EE100A98ED0F0A02B2BDEEC00A10EE36
:103DB000100A01B20C48FCF7D5FDCDF800A095ED36
:103DC0000F0A0023BDEEC00A10EE100A94ED0F0A90
:103DD00002B2BDEEC00A10EE100A01B20248FCF7B2
:103DE000DFFDAEE7805E002070010020180100209A
:103DF000000000000C5100201C520020EC4E00205E
:103E0000FC4F0020CC4C0020DC4D00202B4910B48E
:103E10000DC90DC12948028D428571E80B23C1E906
:103E20000D23A0F114010A88C2F30A0202804A7825
:103E3000D3088A7843EA4213C3F30A034380CB785A
:103E4000920942EA83030A7943EA8223C3F30A030D
:103E5000838053084A7943EAC213C3F30A03C38039
:103E60000B8AC3F30A03038193098372C2F301121D
:103E7000C272B1F9063003830C8944834C89848370
:103E80000C7B84774C7BC477C98901850021022A89
:103E900004D0032A05D0012A05D007E080F86C1071
:103EA00004E0012200E0022280F86C205B1D0B2B55
:103EB00000D3418310BCFEF74BBF0000E05D002043
:103EC00005480068C16841F01001C1601222034931
:103ED0000148FEF71FBF000008020020CC5D002053
:103EE00003489FED020A80ED030A704700E0624636
:103EF000805E00200848F3EE060AB0F90600A0F53F
:103F0000806000EE100A0548B8EEC00A20EE200AD4
:103F100080ED030A70470000E05D0020805E002015
:103F2000284810B5B0F9041000EE101AB8EEC00A17
:103F300080ED0D0A2448B0F9041000EE101AB8EE16
:103F4000C00A80ED0D0A2148B0F9041000EE101AE5
:103F5000B8EEC00A80ED0D0A1D48B0F9041000EE5D
:103F6000101AB8EEC00A80ED0D0A1A48B0F9041014
:103F700000EE101AB8EEC00A80ED0D0A1648B0F92E
:103F8000041000EE101AB8EEC00A80ED0D0A0D48BC
:103F90001430FFF771F90C481430FFF76DF90B4836
:103FA0001430FFF769F90A481430FFF765F909483A
:103FB0001430FFF761F90848BDE810401430FFF7EE
:103FC0005BB900000C5100201C520020EC4E002078
:103FD000FC4F0020CC4C0020DC4D00202DE9F043AC
:103FE0005B4C5C4D20462DED048B81B02378816BBA
:103FF000AA684079012B06D0022B08D1002A7CD078
:1040000001287AD195E0A37833B1012BF6D001B025
:10401000BDEC048BBDE8F083D4ED038AB1EE688A71
:1040200018EE100AFCF718FA9FED4B9B53EC192B76
:10403000FCF78FF9FCF723FA494CA06318EE900ABD
:10404000FCF70AFA53EC192BFCF783F9FCF717FA83
:10405000444DA86318EE100AFCF7FEF953EC192B37
:10406000FCF777F9FCF70BFA3F4EB06318EE900AB5
:10407000FCF7F2F953EC192BFCF76BF9FCF7FFF99D
:104080003A4FB86318EE100AFCF7E6F99FED389B3B
:1040900053EC192BFCF75DF9FCF7F1F9DFF8D88048
:1040A000C8F8380018EE900AFCF7D6F953EC192B33
:1040B000FCF74FF9FCF7E3F9DFF8C090C9F83800D6
:1040C000FFF72EFF97ED0F0ABDEEC00A10EE100AA3
:1040D00000B2009096ED0F0ABDEEC00A10EE100A75
:1040E00099ED0F0A03B2BDEEC00A10EE100A98ED6A
:1040F0000F0A02B2BDEEC00A00E01FE010EE100A87
:1041000001B21F48FCF72EFC0020009095ED0F0A2D
:104110000023BDEEC00A10EE100A94ED0F0A02B2A1
:10412000BDEEC00A10EE100A01B21548FCF738FCCB
:104130006DE70029FCDDFCF7CBFA286060790028E8
:10414000F6D101B0BDEC048BBDE8F043FFF7AEBD86
:10415000805E0020180100209A9999999999D93F79
:104160000C5100201C520020EC4E0020FC4F00207F
:104170009A9999999999C93FCC4C0020DC4D00201F
:1041800070010020FFF7E4F9FFF7B8FD022000F00E
:1041900099FCF7E74FF480620649074800F0E6FB18
:1041A00000F042FBFFF7E6FBFFF7FEFC642000F0A7
:1041B00089FCF9E7C563002024630020FFF70EFFA8
:1041C000022000F07FFCF9E7FCF78AFCFCF74AFECE
:1041D000012000F077FCF9E7704710B54FF0E020C0
:1041E000006901F061FF012803D0BDE8104001F033
:1041F0008FBC10BD30B593B030216846FCF79EF8F7
:1042000014210CA8FCF79AF81D480025016841F01C
:1042100080510160006800F08050119019480168D9
:1042200041F4404101600068022400F440401190D4
:1042300001200090000401908001CDE90640062095
:104240000890A020CDE9090404200B906846FDF7F2
:104250006DFF08B172B6FEE70CA90F2081E83100AE
:104260004FF4A0500F904FF48050109005210CA8EF
:10427000FDF750FE002801D072B6FEE713B030BD46
:1042800040380240007000400548016841F4700168
:10429000016003494FF000608039086070470000FA
:1042A00088ED00E00148FEF72FBA0000B0030020BF
:1042B000F0B50268254C264D264E274F274B4FF070
:1042C000804CA04209D0604507D0A84205D0B0423A
:1042D00003D0B84201D0984204D122F0700E4A684F
:1042E00042EA0E02A0421BD0604519D0A84217D066
:1042F000B04215D0B84213D0984211D0184DA84200
:104300000ED0184DA8420BD0174DA84208D0174D1B
:10431000A84205D0164DA84202D0164DA84203D19E
:1043200022F44075CA682A434D6922F080022A436C
:1043300002608A68C2620A688262A04201D0984222
:1043400001D10969016301214161F0BD0000014013
:104350000004004000080040000C00400004014040
:104360000040014000440140004801400018004066
:10437000001C00400020004010B501F01F03012187
:10438000046A99408C430462016A9A4011430162B5
:1043900010BD10B5846842EA032224F47F440A4326
:1043A0002243826010BD826822F070020A4342F00C
:1043B0000701816070470000F0B5026A22F0010237
:1043C0000262036A42688469124E24F073050C6825
:1043D0002C4323F002058B682B430D4DA84201D0DE
:1043E000B04205D123F00807CB683B4323F0040318
:1043F000A84201D0B04205D14D6922F44072154364
:104400008A692A4342608461496841630362F0BD5E
:104410000000014000040140F0B5026A22F01002E1
:104420000262026A436884690D6824F4E64444EA3F
:1044300005248D6822F0200242EA05120F4D104E2D
:10444000A84201D0B04206D1CF6822F0800242EAF1
:10445000071222F04002A84201D0B04207D14D69B4
:1044600023F4406343EA85038D6943EA850343608F
:104470008461496881630262F0BD00000000014070
:1044800000040140F0B5026A22F480720262026AFE
:104490004368C46922F4007224F073050C68124E5C
:1044A0002C438D6842EA05220E4DA84201D0B0424D
:1044B00006D1CF6822F4006242EA072222F4806229
:1044C000A84201D0B04207D14D6923F4405343EADA
:1044D00005138D6943EA05134360C4614968C163EC
:1044E0000262F0BD000001400004014030B5026AE4
:1044F00022F480520262046A4268C3690D6823F4A0
:10450000E64343EA05238D6824F4005444EA053465
:10451000084DA84202D0084DA84204D14D6922F4AA
:10452000804242EA85124260C361496801640462C4
:1045300030BD0000000001400004014010B5036AD6
:10454000046A24F001040462846924F0F00444EA5B
:10455000021423F00A020A438461026210BD10B5FE
:10456000036A23F0100303628369046A23F470432F
:1045700043EA023224F0A00343EA0111826101629E
:1045800010BD10B500F0D6FF002805D0D0E90021FD
:10459000BDE810400846104710BD70B5846B206818
:1045A000406994F83D10C0F3C0100025212904D1C2
:1045B00018B1E584204600F067F82068406994F857
:1045C0003E10C0F38010222904D118B1E5852046A1
:1045D00000F042F8206C40F0100020642046FEF706
:1045E000B3FA70BD10B50146806B09680968C9054A
:1045F0001BD40021C1850168CA6822F48072CA6098
:1046000001684A6922F001024A6101684A6922F0A0
:1046100040024A61202180F83E10016B012904D13B
:104620000168CA6822F01002CA60016B012902D039
:10463000FEF785FB10BD818DFEF759FA10BD10B550
:10464000806B016B012902D0FEF77AFB10BD818DD2
:104650004908FEF74CFA10BD0168CA6822F490724E
:10466000CA6001684A6922F001024A61016B0129AE
:1046700004D10168CA6822F01002CA60202180F8C3
:104680003E100021016370470168CA6822F0C00231
:10469000CA60202180F83D107047000070B50446C4
:1046A00000680169E26821F4405111430161216908
:1046B000A068E26908436169114308432168CA6838
:1046C00049F20C639A430243CA6020684169A269B7
:1046D00021F440711143416131492068884202D080
:1046E0003049884202D1FDF7DFFC01E0FDF7CCFC48
:1046F000E2690023192164253226B2F5004F626871
:1047000028D0A0FB0101930F9200FBF7CDFD0146DD
:10471000B0FBF5F06FF01802504301EB800006EBA0
:104720000010B0FBF5F000F0F002B1FBF5F002EB89
:104730000012B1FBF5F06FF01803584301EB800055
:1047400006EB0010B0FBF5F000F00F0021681044FC
:10475000886070BDA0FB010192185B41FBF7A4FDCE
:104760000146B0FBF5F00201B1FBF5F06FF0180364
:10477000584301EB800006EBC000B0FBF5F000F001
:10478000F80002EB4002B1FBF5F0584301EB80006A
:1047900006EBC000B0FBF5F000F00700D6E7000024
:1047A000001001400014014038B581628285002567
:1047B000134604460564222084F83E00A26B134889
:1047C000D063A26B12481064A26B1248D064A06B35
:1047D0000A4605652168A06B091DFDF783F920686D
:1047E00001684168009184F83C50C16841F48071CF
:1047F000C1602068416941F001014161206841695F
:1048000041F040014161002038BD0000E54500084D
:104810003F4600089B4500080148FEF70FBF000017
:1048200008020020FFF776B9294810B5016841F069
:1048300040010160016841F0800101602548006885
:10484000C16841F01001C160234801680A6822F084
:1048500001020A6001680A68D207F7D11F4CE2140E
:10486000A14202D91D4B4C3B04E01D4B994203D998
:104870001A4B503B1A6008E0194C194B603CB83B8E
:10488000A14201D9DA6000E09A60114A103A8A60C8
:1048900003681449D960036801F500711961036860
:1048A0005115596001680B6843F480230B60006860
:1048B000016841F0010101600B4801680B6823F0B9
:1048C00001030B6001680B68DB07F7D18A6010BD3C
:1048D000141401404C020020F002002058640240F1
:1048E000B8600240245F002050030020FEE7090763
:1048F000090E002804DB00F1E02080F80014704766
:1049000000F00F0000F1E02080F8141D70472DED3D
:10491000020B019820F0004001909DED000B02B0C9
:10492000704702E008C8121F08C1002AFAD1704778
:104930007047002001E001C1121F002AFBD170471F
:10494000EFF3108172B6436802699A4201D9026896
:10495000026112F8013B02618268521C8260C268E7
:10496000521E81F31088C260184670478B185B1E78
:104970000160C0E901320022C0E903214161104613
:1049800070472DE9F0475FEA01080546EFF310860E
:1049900072B62FD0AC686CB369686869884201D977
:1049A00028686861944200DD14460F1A7F1CA742F4
:1049B00006DB22464146FBF7A8FC686920440DE06F
:1049C000A4EB07093A464146FBF79FFC08EB0701B9
:1049D0004A462868FBF799FC286848446861A8683B
:1049E000001BA860E8682044E860204686F3108831
:1049F000BDE8F08786F310884FF0FF30F8E7C06815
:104A000070470000B5EEC00AF1EE10FA0AD0B5EE1C
:104A1000C00AF1EE10FA02D2BFEE000A7047B7EEFC
:104A2000000A70479FED010A704700000000000077
:104A300010B558B1084C491E0BD310F8013B534038
:104A4000DBB234F8133083EA1222F4E74FF6FF703A
:104A500010BD104610BD00003866000810B5054CAA
:104A600004E000BF10F8013B5340E25C491EF9D25C
:104A7000104610BD38650008FDF79CF9FFF7BAFB3A
:104A8000FEF77CFAFEF71CFAFEF7D2F9FEF7F4F90E
:104A9000FEF736FBFEF7DCFAFEF754FBFFF710FAE1
:104AA0000648FBF7FDFE0648FBF7FAFE00F018F893
:104AB000FEF72CFA00F026F8FEE700007001002057
:104AC0009801002010B5EFF3058111B16FF00504D6
:104AD00003E0002408B100F089FE204610BD00006C
:104AE000EFF3058010B16FF00500704704480168CE
:104AF00011B14FF0FF307047012101600020704775
:104B00007800002010B5EFF3058010B16FF00500BC
:104B100010BD08480168012902D04FF0FF3010BDD8
:104B2000054A002182F8141D0221016000F0C6FE32
:104B3000002010BD780000200BE000E02DE9FF41CF
:104B40004FEA01034FF00005EFF30581039549BBE0
:104B500040B38027182100244AB3166806B13446B2
:104B600096691EB13146761E382E02D21679F607A6
:104B700003D0002004B0BDE8F081566906B1B70843
:104B8000D2F808C0BCF1000F0DD0D5685C2D18D349
:104B900012693AB136B18DE806103A46214601F065
:104BA00058FA03900DE0D6685EB912694AB903AAB3
:104BB000CDE90012BAB2214601F01EFA012800D058
:104BC00003950398D6E700002DE9FC471C46904664
:104BD000894607464FF00006EFF3058058BB57B3F0
:104BE000082000F039FC050025D0C5E90078B9F1AE
:104BF000000F12D00122114B002094B1216801B1A5
:104C00000846A16859B1E4682C2C11D3CDE90031D4
:104C10002B46012101F0B4FB08E00022EBE7E1683C
:104C200031B900932B46012101F090FB060002D11F
:104C3000284600F037FD3046BDE8FC878345000874
:104C400008B5EFF3058212B16FF0050008BD58B149
:104C50000022134600920A46042101F0D9FB0128E4
:104C600005D06FF0020008BD6FF0030008BD002002
:104C700008BD00002DE9F041134C0F460546E668DB
:104C80002068001D00F07EFC681C07D137B1216848
:104C9000BDE8F0410D48091D00F0C4BC2068354452
:104CA000B5424560216805D2A06BBDE8F041091D01
:104CB00000F0A0BC606B091D00F09CFCA06A85425E
:104CC00000D2A562BDE8F08128000020E80800209D
:104CD0002DE9F041054600F0B1FC2D4CA068401CC8
:104CE000A06020682B4F10B1606930B32BE02560C5
:104CF000A068012827D1002606EB860007EB80007C
:104D000000F06AFC761C382EF6D3234800F064FCD1
:104D10002148143000F060FC1F48283000F05CFC93
:104D20001D483C3000F058FC1B48503000F054FC4B
:104D3000194860631430A06305E02068E96AC06A1E
:104D4000884200D82560606A401C60626864E86A36
:104D50002169884200D9206100EB800007EB8000C8
:104D6000291D00F05FFC00F089FC606900280CD070
:104D70002068E96AC06A884207D208494FF080502B
:104D80000860BFF34F8FBFF36F8FBDE8F081000065
:104D900028000020380400209808002004ED00E0DE
:104DA00038B500F04BFC104C2068C8B90F4800F033
:104DB00013FC0E48143000F00FFC0C48E060143077
:104DC00020610A4B0020F03B009003F150021021BB
:104DD0000A2000F0B3FE206010B105A100F0D0FC65
:104DE000BDE8384000F04ABC64000020EC09002017
:104DF000546D72510000000030B4026C0B46002A62
:104E00000BD0C1681144C1608468A14201D301681C
:104E1000C16030BC1846FBF778BA30BC70472DE94A
:104E2000F041856B174604460026026C82B1C7B17B
:104E3000E068FBF76AFAE168206C091AE160226811
:104E4000914202D2A168081AE060022F16D017E042
:104E50002068A8B9A06801F09FF906460020A0606C
:104E60000EE06068FBF751FA216C606808446060EE
:104E7000A168884204D32068606001E005B16D1E1E
:104E80006D1CA5633046BDE8F08110B5044690F86E
:104E9000590058B101280CD002280FD0502080F3BF
:104EA0001188BFF34F8FBFF36F8FFEE7206B00F0C9
:104EB000F9FB2046BDE8104000F0F4BB10BD000037
:104EC00010484FF47051420706D0C01D0D4920F024
:104ED0000700411AC1F570510B4A00230144C2E991
:104EE00000030839183A21F0070111604B600B608C
:104EF0000B1AC0E9001393604FF0004053605061FB
:104F000070470000CC10002094000020144E154C77
:104F1000A6F29C474FF08058DFF84C9012E000BF9B
:104F200000F08CFBF068C568281D00F02BFBA06822
:104F3000401EA0606068401E606000F09FFB284635
:104F4000FFF7A3FF60680028EAD138680128F9D983
:104F5000C9F80080BFF34F8FBFF36F8FF2E70000F7
:104F6000D40800202800002004ED00E070B51D46A4
:104F7000049C51B1C4F80020C4E90F01012120466E
:104F800000F010FE84F84C5070BD2460F4E700007F
:104F90002DE9F05F8846DDE90B94154683469100C4
:104FA0009A460A9EA522206BFBF7C1F96FF0030118
:104FB000206B01EB8501084420F00707780707D034
:104FC000502080F31188BFF34F8FBFF36F8FFEE740
:104FD0000025B8F1000F0FD05FF00000221818F87C
:104FE000001082F8341018F8001011B1401C10287D
:104FF000F4D384F8435001E084F83450382E00D3C1
:105000003726E662C4E91365201D00F0F0FA04F1CA
:10501000180000F0ECFA2461C6F138006462A06167
:10502000656584F8585052465946384600F094FA5F
:105030002060B9F1000F01D0C9F80040BDE8F09F31
:105040002DE9F0471E46DDE9089417460D0080461D
:1050500015D0002C11D0FFF7A3FE04F11801C4F8FD
:10506000008081E86002201D00F0C1FA002F04D00A
:1050700014F8280F40F004002070BDE8F08750209D
:1050800080F31188BFF34F8FBFF36F8FFEE70000EF
:1050900030B5114900E011460A688242FBD34B68E3
:1050A0005C18844203D1406818444860084643684D
:1050B0001C18944209D1084C183C2468A24209D01B
:1050C00052681A4442600A6812680260814200D045
:1050D000086030BD0460F9E79400002070B500243A
:1050E00041600B4D0061914206D8D11A826991420C
:1050F00006D2011D286907E09A4203D2994201D3E2
:10510000012403E0011DE86800F074FA204670BD38
:105110006400002010B5044600F090FAA06B28B19E
:105120005FF0000400F0AAFA204610BD0124F9E760
:1051300030B589B03C4D6EE00498002806DADDE910
:105140000601059A90470498002864DB069C606974
:1051500010B1201D00F016FA03A800F0D7F802469F
:1051600004980A2857D2DFE800F00505052D334AD8
:1051700005052D3394F8280040F0010084F828003C
:105180000599A069059B01442046FFF7A7FF68B376
:10519000216A2046884794F8280040073BD5002024
:1051A00000900598A169002342181946204601F095
:1051B0002FF9D8B9502080F31188BFF34F8FBFF378
:1051C0006F8FFEE714F8280F20F00100207022E016
:1051D00094F8280040F0010084F828000598A061A8
:1051E00028B1811813462046FFF778FF13E05020BE
:1051F00080F31188BFF34F8FBFF36F8FFEE794F8F2
:105200002800810703D4204600F04CFA03E020F088
:10521000010084F82800002204A9286800F016FE86
:10522000002889D109B030BD640000202DE9FC417F
:105230000F46054600F086FB01A800F067F804461B
:10524000019818B101F020F8BDE8FC81254EAFB1FE
:1052500030690068D0B30027291B3A46306800F057
:10526000A3FA01F011F80028EED11F494FF0805049
:105270000860BFF34F8FBFF36F8FE5E7A542EBD810
:1052800001F002F8F0682746C068C468201D00F0ED
:1052900079F994F82800410719D5A0692B464119DE
:1052A0003A462046FFF71AFFA8B100200346014600
:1052B00000902A46204601F0ABF860B9502080F3F8
:1052C0001188BFF34F8FBFF36F8FFEE707E020F029
:1052D000010084F82800216A20468847B4E70127A6
:1052E000BAE700006400002004ED00E00648416BCE
:1052F000096829B1416BC968C9684968816270470A
:105300004FF0FF31FAE700002800002070B5054695
:1053100000F0D8FE064E0446B068844203D200F086
:1053200009F8012000E0002028602046B46070BD2C
:1053300064000020F8B5194D20E0C068C468066814
:10534000201D00F01FF9216A2046884794F82800A4
:10535000400713D5A0693044B04206D9246160608B
:10536000211DE86800F046F908E0002003460146E8
:1053700000903246204601F04BF838B1E8680168E9
:105380000029DAD12969C5E90310F8BD502080F35E
:105390001188BFF34F8FBFF36F8FFEE764000020CB
:1053A00008484068401C4FF0500080F3118804D03A
:1053B000BFF34F8FBFF36F8FFEE7BFF34F8FBFF386
:1053C0006F8FFEE79C000020074CE068016841B148
:1053D000C0680021D0F80000FFF728FFFFF7A8FE03
:1053E000F3E701210020F7E7640000202DE9F041F8
:1053F000044600F023F994F9455004F1240609E02D
:10540000606A48B1304600F007FF08B100F01CFAAE
:105410006D1E6DB2002DF3DC4FF0FF3684F8456051
:1054200000F02CF900F00AF994F9445004F1100747
:1054300009E0206948B1384600F0EEFE08B100F0FE
:1054400003FA6D1E6DB2002DF3DC84F84460BDE8F4
:10545000F04100F013B900002DE9F04105460027A6
:1054600000F070FA324E306808B9FFF729FD706914
:1054700005424ED1C5B3083568070ED005F00700C8
:10548000C0F108000544680707D0502080F3118858
:10549000BFF34F8FBFF36F8FFEE72DB37068854268
:1054A00037D82348183001460C6801E020460C46E6
:1054B0006168A94202D221680029F7D131688C4283
:1054C00027D007682168016060680837411B1029F0
:1054D0000FD96019420708D0502080F31188BFF31C
:1054E0004F8FBFF36F8FFEE713E041606560FFF7FA
:1054F000CFFD61687068401A7060B268904200D257
:10550000B060706901430020C4E90001F068401CEC
:10551000F06000F0B9FE780707D0502080F31188C2
:10552000BFF34F8FBFF36F8FFEE73846BDE8F081C2
:105530007C00002010B5040006D000F07FF8E4697C
:1055400000F09CF8204610BD502080F31188BFF376
:105550004F8FBFF36F8FFEE710B5031F4FF08074BE
:105560001C601B1F21F001011960191F044B0B6007
:1055700014390A60091F6FF0020244380A6010BD36
:10558000A1530008D0E9013201699A60D0E90123F2
:105590005A604A68824201D182684A6000220261F0
:1055A0000868401E0860086870470000034B0360ED
:1055B00003F15C000860802010607047140A00202E
:1055C000044B036003F15C0008604FF480701060CE
:1055D00070470000700C002000F108014FF0FF320E
:1055E000C0E90112C1600161002101607047002122
:1055F0000161704730B50B685A1C02D000F10802F7
:1056000002E0026904E02246546825689D42FAD906
:1056100053684B6099608A60516008610168491C59
:10562000016030BD42684A6093688B60936859603E
:10563000916008610168491C01607047502080F347
:105640001188BFF34F8FBFF36F8F0A494868401C22
:10565000486001280CD10848006810F0FF0F07D0FF
:10566000502080F31188BFF34F8FBFF36F8FFEE799
:10567000704700009C00002004ED00E008494868E5
:1056800028B1401E486001D180F311887047502036
:1056900080F31188BFF34F8FBFF36F8FFEE70000D9
:1056A0009C00002070B500282AD0164DA0F10804F7
:1056B00060686969084207D1502080F31188BFF300
:1056C0004F8FBFF36F8FFEE722683AB1502080F30F
:1056D0001188BFF34F8FBFF36F8FFEE78843606081
:1056E00000F030F960686968084468602046FFF798
:1056F000CFFC2869401C2861BDE8704000F0C4BDA3
:1057000070BD00007C0000204FF0E020002101610E
:10571000816105494FF47A720968B1FBF2F1491EC3
:1057200041610721016170472400002010B5FAF79C
:10573000A5FD114910280ED300F1E02090F8F003E8
:105740000A78904207D2502080F31188BFF34F8F20
:10575000BFF36F8FFEE709480068896800F4E060D6
:10576000884207D9502080F31188BFF34F8FBFF3D1
:105770006F8FFEE710BD00009C0000200CED00E0E4
:1057800010B5084B002200BF53F832401CB1521C28
:10579000082AF9D310BD43F8321003EBC201486068
:1057A00010BD0000F803002070B515460E460446F3
:1057B000FFF744FF94F944100020491C01D184F8FC
:1057C000440094F94510491C01D184F84500FFF7C5
:1057D00055FFA06B28B92A46314604F1240000F099
:1057E00051F82046BDE87040FFF700BE10B502003A
:1057F00014D00F48006B38B1502080F31188BFF3EC
:105800004F8FBFF36F8FFEE700F09CF8002110462A
:10581000FFF730FA00F038FD002807D105494FF0B6
:1058200080500860BFF34F8FBFF36F8F10BD000033
:105830002800002004ED00E002490A6A0260C968FD
:10584000416070472800002001490120C86170476D
:105850002800002010B50C4650B1094909681831DC
:10586000FFF7C8FE2046BDE810400121FFF702BA4D
:10587000502080F31188BFF34F8FBFF36F8FFEE787
:105880002800002070B514460D4668B10A49096821
:105890001831FFF7C7FE0CB14FF0FF3521462846FF
:1058A000BDE87040FFF7E6B9502080F31188BFF3E0
:1058B0004F8FBFF36F8FFEE72800002030B587B011
:1058C0000024039405AA04A903A80494FFF76EFE1C
:1058D000DDE903010094CDE90110002315A117486B
:1058E000059A00F0B6FB164D0028E8621FD000F0C4
:1058F0005FFD012809D0401C19D1502080F3118888
:10590000BFF34F8FBFF36F8FFEE7502080F31188F6
:10591000BFF34F8FBFF36F8F4FF0FF30A8620120AE
:105920006861EC6007B0BDE8304000F077B807B0C0
:1059300030BD000049444C45000000000D4F0008F8
:10594000280000200248016B491C016370470000D9
:1059500028000020164810B5016B11B10121C1616A
:1059600010BD0021C1610169124A01E0B9B1491EAF
:1059700001EB810352F82330002BF7D001EB8103B8
:1059800002EB830202F1080453685B685360A34290
:1059900001D15B685360DA680260016110BD50207C
:1059A00080F31188BFF34F8FBFF36F8FFEE70000C6
:1059B000280000203804002030B50C46050014D023
:1059C000022C12D90A48A11E02882846FFF730F897
:1059D0002919C2B211F8023C9A4206D111F8011CF1
:1059E000B1EB102F01D1012030BD002030BD0000EF
:1059F0003C01002030B50C4605000CD0022C0AD921
:105A0000FF22611EFFF72AF8291911F8011C8142B3
:105A100001D1012030BD002030BD00001CB5374849
:105A20000168374A914207D1502080F31188BFF3B3
:105A30004F8FBFF36F8FFEE700683149491E8842E0
:105A400007D1502080F31188BFF34F8FBFF36F8FC2
:105A5000FEE72C4908780190FF20087008788DF83F
:105A600000009DF800009DF8002000F0F00090423A
:105A700007D0502080F31188BFF34F8FBFF36F8F93
:105A8000FEE79DF80000204C00F050002070072039
:105A9000A06005E09DF8002052008DF80020401E17
:105AA0009DF800201206F5D4A060032807D05020EE
:105AB00080F31188BFF34F8FBFF36F8FFEE74FF472
:105AC0004070A060019808700C482030016841F4D3
:105AD00070010160016841F070410160FFF714FE40
