:020000040800F2
:10000000605F0020850200083D2E0008252A0008B8
:10001000C12D0008D9060008653F00080000000057
:10002000000000000000000000000000C501000802
:100030002D0E00080000000021020008953900087C
:100040009F0200089F0200089F0200089F0200080C
:100050009F0200089F0200089F0200089F020008FC
:100060009F0200089F0200089F0200089F020008EC
:100070009F0200089F0200089F0200089F020008DC
:100080009F0200089F0200089F0200089F020008CC
:10009000DD0600089F0200089F0200089F0200087A
:1000A0009F0200089F0200089F0200089F020008AC
:1000B0009F0200089F0200089F0200089F0200089C
:1000C0009F0200089F0200089F0200089F0200088C
:1000D0009F020008593F00089F0200089F02000885
:1000E0009F0200089F0200089F020008713A000862
:1000F0009F0200087D3A00089F0200089F02000846
:100100009F0200089F0200089F0200089F0200084B
:100110009F0200089F0200089F0200089F0200083B
:100120009F0200089F020008B50900089F0200080E
:100130009F0200089F0200089F0200089F0200081B
:10014000E90600089F0200089F0200089F020008BD
:100150009F0200089F0200089F0200089F020008FB
:100160009F0200089F0200089F0200089F020008EB
:100170009F0200089F0200089F0200080000000084
:100180009F0200089F0200089F0200089F020008CB
:100190009F0200089F0200089F0200089F020008BB
:1001A00000000000000000009F020008DFF810D0EF
:1001B00000F034FA00480047B93F0008AFF3008070
:1001C000605F00202C4B19680868B0E8F04F80F39E
:1001D0000988BFF36F8F4FF0000080F311887047DC
:1001E0000000000008480068006880F308884FF0AD
:1001F000000080F3148862B661B6BFF34F8FBFF37F
:100200006F8F00DF00BF00BF08ED00E0DFF80C00DB
:10021000016841F470010160704700BF88ED00E0A3
:10022000EFF30980BFF36F8F134B1A681EF0100FA6
:1002300008BF20ED108A20E9F04F106009B44FF09C
:10024000500080F31188BFF34F8FBFF36F8F04F01E
:100250004DFE4FF0000080F3118809BC1968086852
:10026000B0E8F04F1EF0100F08BFB0EC108A80F31A
:100270000988BFF36F8F704724000020EFF30580DB
:10028000704700000648804706480047FEE7FEE743
:10029000FEE7FEE7FEE7FEE7FEE7FEE7FEE7FEE736
:1002A000553A0008AD0100082DE9F05F0546002031
:1002B00092469B4688460646814640241BE02846D7
:1002C00041464746224600F005F953465A46C01AB1
:1002D000914110D311461846224600F0ECF82D1A31
:1002E00067EB01084F4622460120002100F0E3F8A9
:1002F00017EB00094E41201EA4F10104DFDC484643
:1003000031462A464346BDE8F09F40EA01039B0779
:1003100003D009E008C9121F08C0042AFAD203E07A
:1003200011F8013B00F8013B521EF9D27047D2B2DE
:1003300001E000F8012B491EFBD270470022F6E7CE
:1003400010B513460A4604461946FFF7F0FF20464B
:1003500010BD2DE9FE4F81EA030404F0004421F0B2
:10036000004100944FF0000B23F0004350EA0104D9
:100370005ED052EA03045BD0C3F30A54C1F30A55BA
:100380002C44A4F2F3340194A0FB0254C1F31301F2
:1003900041F48011C3F3130343F4801301FB0244BF
:1003A00000FB034E840A970A44EA815447EA8357C4
:1003B000A4FB076802958D0A05FB07854FEA932C7D
:1003C00004FB0C542705029D4FEA065847EA1637EE
:1003D000B5EB08056EEB070C870E920E47EA811706
:1003E00042EA8312A7FB0201B6EB0B0164EB0004A7
:1003F0002B0D43EA0C335E1844EB1C50DA46514691
:10040000E7FB0201C5F313044FEA0B3343EA14532D
:100410004FEA0432019C43EA0603A4F10C0402945F
:10042000009CCDE900B400F0ABF803B0BDE8F08F5C
:1004300000200146F9E70EB5C10F80EAE0700844DC
:10044000CA07002140F233438DE80E000A460B46EE
:1004500000F096F803B000BD00F0004230F000401C
:100460000AD0C10D01F56071C0F3160042EA0151D6
:10047000C20840071143704700200146704701F051
:10048000004330B421F0004150EA010206D00A0DC9
:10049000A2F56072C1F31301002A02DC30BC002017
:1004A0007047440F44EAC104C100E01830BC00EBBF
:1004B000C25000F01FB8202A04DB203A00FA02F1F3
:1004C000002070479140C2F1200320FA03F3194342
:1004D00090407047202A04DB203A21FA02F00021E4
:1004E000704721FA02F3D040C2F120029140084344
:1004F000194670470029A8BF7047401C490008BF33
:1005000020F00100704710B4B0FA80FC00FA0CF043
:1005100050EA010404BF10BC704749B1CCF120047B
:1005200021FA04F411FA0CF118BF01212143084308
:10053000A3EB0C01CB1D4FEA00614FEA102042BF34
:10054000002010BC704700EBC35010440029A4BF2A
:1005500010BC7047401C490008BF20F0010010BCCF
:10056000704710B5141E73F1000408DA401C41F105
:10057000000192185B411A4301D120F0010010BD27
:100580002DE9F04D92469B4611B1B1FA81F202E09D
:10059000B0FA80F220329046FFF78DFF04460F46F6
:1005A00040EA0A0041EA0B0153465A46084313D079
:1005B000114653EA010019D0C8F140025046FFF736
:1005C00089FF05460E46504659464246FFF773FFDF
:1005D000084305D0012004E020463946BDE8F08DEF
:1005E0000020054346EAE0762C4337430A9863052A
:1005F000E40AA0EB08000022FD0A44EA47540A304E
:1006000002D500200146E9E7010510196941DDE93D
:10061000084500196941BDE8F04DA2E7064C074DB9
:1006200006E0E06840F0010394E8070098471034C2
:10063000AC42F6D3FFF7BEFD505A0008705A0008CE
:1006400010B50821094802F099F8094942F20F70E3
:100650000860084C01221146204601F08FFA20461E
:100660000022BDE81040022101F088BA7801002084
:100670003C0C00400014024070B5144C606890B10E
:10068000E068A0B160690125A8B11149114A0020B4
:10069000087115608A6B521E8A636060E060606159
:1006A000E061012070BD00F067F960600CE002F0CD
:1006B000D5F9E06008E0E06918B90A2003F0A0FC71
:1006C000E56102F083FD6061002070BD0001002043
:1006D000205B002024010020FEE70000014800F01C
:1006E00024BD000028010020014800F01EBD0000CC
:1006F0005001002010B5A0F201200C46092839D283
:10070000DFE800F0050B11171D2329382F00022008
:1007100002F0F8F92146184828E0032002F0F2F927
:100720002146164822E0042002F0ECF92146144844
:100730001CE0052002F0E6F92146124816E00620EA
:1007400002F0E0F92146104810E0072002F0DAF943
:1007500021460E480AE0082002F0D4F921460C4850
:1007600004E0092002F0CEF90A482146BDE8104015
:1007700002F027BB10BD0000EC4B0020D44C002041
:10078000BC4D0020A44E00208C4F0020745000204F
:100790005C5100204452002010B5A0F201200C460C
:1007A000092839D2DFE800F0050B11171D2329387D
:1007B0002F00022002F0A6F92146184828E0032065
:1007C00002F0A0F92146164822E0042002F09AF92E
:1007D000214614481CE0052002F094F921461248F5
:1007E00016E0062002F08EF92146104810E007209E
:1007F00002F088F921460E480AE0082002F082F94A
:1008000021460C4804E0092002F07CF90A48214600
:10081000BDE8104002F0D5BA10BD00002C530020F6
:1008200014540020FC540020E4550020CC56002035
:10083000B45700209C580020845900202DE9F04333
:10084000DFF8B48000258BB00646404500D1059501
:10085000DFF8A8900E274E4500D1059744F22000FE
:10086000009044F24000019044F2A0000290012464
:1008700044F2C000CDE90645CDE90305CDE90847BE
:100880006946304600F056FB08B100F0D0FA464504
:1008900000D105944E4501D10F20059044F260002F
:1008A00000904FF4814001904FF480300290CDE9E8
:1008B0000645CDE90304CDE908476946304600F016
:1008C00039FB08B100F0B3FA304600F081FE08B100
:1008D00000F0ADFA0221304600F0ABFA08B100F0AA
:1008E000A6FA1021304600F0A4FA08B100F09FFAF1
:1008F0000BB00020BDE8F08328010020500100204B
:100900003EB50D0A8DF800508DF80110110A8DF8D2
:100910000210069C190A8DF804108DF80530210A82
:100920008DF806108DF803208DF8074002AB6A465B
:10093000014900F090FA3EBDAC0000203EB50D0A22
:100940008DF800508DF80110110A8DF80210069CE8
:10095000190A8DF804108DF80530210A8DF806105B
:100960008DF803208DF8074002AB6A46014900F07C
:1009700072FA3EBDC40000200C48816B0C4801296E
:1009800010D002290BD0032904D0042905D140F24C
:100990003A2101E040F2BF4101600120704740F27E
:1009A0003A71F9E740F6C411F6E70000205B002039
:1009B000400C0040014800F085BE00007802002095
:1009C00001681823CAB2103AB2FBF3F2054B6FF379
:1009D0000901032A9B5CC36500D9091D816508468E
:1009E00070470000F859000810B5014600208B69D7
:1009F0008A6A4FF0C07453B1B3F5005F15D072B17D
:100A0000012A0CD0022A0AD0032A09D104E01AB123
:100A1000012A06D0022A03D1C96AC90100D50120E2
:100A200010BDC96AA142FAD010BD002AF7D0012A30
:100A3000F2D0022AF3D0032AF3D010BD30B50468F7
:100A4000256825F480252560046863608368402B51
:100A5000036803D099600068C26030BD9A60006886
:100A6000C16030BD10B52DED068B9FED8B0A8B4814
:100A700080ED070A9FED8A8A042180ED038A816355
:100A8000E8218848FFF75AFCE8218748FFF756FC21
:100A9000E8218648FFF752FCE8218548FFF74EFC25
:100AA000E8218448FFF74AFCE8218348FFF746FC29
:100AB000E8218248FFF742FCE8218148FFF73EFC2D
:100AC000E8218048FFF73AFCF0EE484AB0EE484A89
:100AD000F0EE483AB0EE483AF0EE482ADFED7A9A66
:100AE000B0EE692ADFED798AB0EE481AF0EE681AA6
:100AF0009FED779AF0EE490A9FED76AA6948B0EE2D
:100B00004A0A02F086F9F0EE484AB0EE484AF0EEA2
:100B1000483AB0EE483AF0EE482AB0EE692AF0EED4
:100B2000681AB0EE481AF0EE490AB0EE4A0A5E487A
:100B300002F06FF9F0EE484AB0EE484AF0EE483A5B
:100B4000B0EE483AF0EE482AB0EE692AF0EE681AA4
:100B5000B0EE481AF0EE490AB0EE4A0A534802F0E5
:100B600058F9F0EE484AB0EE484AF0EE483AB0EE96
:100B7000483AF0EE482AB0EE692AF0EE681AB0EE74
:100B8000481AF0EE490AB0EE4A0A494802F041F923
:100B9000F0EE484AB0EE484AF0EE483AB0EE483A35
:100BA000F0EE482AB0EE692AF0EE681AB0EE481A64
:100BB000F0EE490AB0EE4A0A3E4802F02AF9F0EE99
:100BC000484AB0EE484AF0EE483AB0EE483AF0EE05
:100BD000482AB0EE692AF0EE681AB0EE481AF0EE34
:100BE000490AB0EE4A0A344802F013F9DFED3A9AA6
:100BF000F0EE484AB0EE484AF0EE483AB0EE483AD5
:100C0000F0EE482AB0EE692AF0EE481AB0EE481A23
:100C1000F0EE480AB3EE040A284802F0FAF8F0EEC3
:100C2000684AB0EE684AF0EE483AB0EE483AF0EE64
:100C3000492AB0EE692AF0EE481AB0EE481AF0EEF2
:100C4000480AB1EE040A1E4802F0E3F8DFED234A39
:100C5000B0EE684AF0EE483AB0EE483ADFED202AAE
:100C60009FED202ADFED201AB0EE481AF0EE480A78
:100C7000B1EE040A134802F0CCF80C211B4801F035
:100C80007DFD1B4940F6C4100860BDEC068BBDE835
:100C90001040FFF7D5BC000000003644205B002068
:100CA000000000008C4F002074500020BC4D00203C
:100CB000A44E0020EC4B0020D44C00202C530020EC
:100CC00014540020FC54002000409C4600409C45E9
:100CD000CDCCCC3D000048420000FA4500401C4607
:100CE000CDCCCC3E00007A460000004578010020C3
:100CF000400C00402DE9F0413E4CDFF8FC802078AC
:100D00006070216911B9B8F9001021613B4E616929
:100D100011B9B6F90010616118B99FED390A84ED77
:100D2000060A384D002795F86C0018B1012001F033
:100D30007BFEE8B135489FED340A277080ED0F0A3D
:100D4000334880ED0F0A334880ED0F0A324880EDBA
:100D50000F0A324880ED0F0A314880ED0F0A314802
:100D600080ED0F0A86ED0F0A88ED0F0ABDE8F081CD
:100D700095F86C2002210120012A02D0022A02D01B
:100D800002E0207000E0217095F90A20012A0DD0C0
:100D9000032A0DD0A1702078012824D00228E5D1A3
:100DA00002F08AFCBDE8F04102F0BDB8A770F2E79E
:100DB000A070B5F9022040F29461B5F904504FF4E7
:100DC00080638A4203D19D4203D1607102E09D425B
:100DD00000D06771144B1D68012DDCD18A42DAD135
:100DE00020711F60D7E702F069FCBDE8F04102F016
:100DF0009BB80000205B0020FC540020145400200D
:100E000000003644805A0020000000008C4F002073
:100E100074500020BC4D0020A44E0020EC4B00205C
:100E2000D44C00202C53002024010020704772B6BF
:100E3000FEE790F82020012A07D0022A05D0416A57
:100E400041F48021416201207047006842690A43F1
:100E5000426100207047F0B590F820500468A46803
:100E6000012D05D0022D03D0416A41F480215DE0BF
:100E700014F0406F01D1E50055D5C4F30164022C94
:100E800003D9416A41F4000150E00125A5401D60ED
:100E90008D684FF4C0739DB1CE6835434E6845EA06
:100EA000C605066803EB0417F5514FF4C2750768D1
:100EB00005EB04150E697E51097D012905D009E075
:100EC0000E88CD6845EA4655EBE701684E5946F471
:100ED00080764E511179D579567941EA0561957937
:100EE0002D0445EA062529434FF4C676056806EB2E
:100EF0000416A9511178D57841EA056195785278A0
:100F00002D0445EA022211434FF4C475026805EB33
:100F100004155151006803EB0411425842F00102DC
:100F200042500020F0BD416A41F4001141620120AD
:100F3000F0BD000010B590F82020012A07D0022A49
:100F400005D0416A41F480214162012010BD3B4837
:100F5000D0F8002242F00102C0F80022D0F80022AE
:100F600022F47C52C0F80022D0F800224B6A42EAF8
:100F70000322C0F800220A7D02F01F0301229A40DA
:100F8000D0F81C329343C0F81C32CB69B3B9D0F807
:100F90000C329343C0F80C328C894B6864F31F43C6
:100FA0004C6900EBC404C4F840320C890B6864F34C
:100FB0001F434C6900EBC404C4F84432CB69012BD5
:100FC00016D1D0F80C321343C0F80C320C884B68A1
:100FD00064F31F434C6900EBC404C4F840320C892D
:100FE000CB6864F31F434C6900EBC404C4F844327B
:100FF0008B69002BD0F804320ED01343C0F80432B2
:101000000B69002BD0F8143208D01343C0F8143207
:10101000096A012904D008E09343EFE79343F5E719
:10102000D0F81C121143C0F81C12D0F8001221F0A5
:101030000101C0F80012002010BD00000064004053
:10104000704730B590F82040012C05D0022C03D019
:10105000416A41F480215DE00468002955D024698B
:10106000A40754D04FF4D874056804EB01142D592B
:1010700015F00405956005682D594ED0ED085560B2
:1010800005682C5904F00204D4604FF4DA74056842
:1010900004EB01142D5905F00F05156105682D5954
:1010A000C5F30725956105682C59240C54614FF44C
:1010B000DC72046802EB0112A4581C700468A45886
:1010C000240A5C700468A458240C9C700468A2581C
:1010D000120EDA704FF4DE72046802EB0112A458AB
:1010E0001C710468A458240A5C710468A458240C78
:1010F0009C710468A258120EDA71006881B101690E
:1011000041F020010161002030BDE468A8E7416A98
:1011100041F400114162012030BD6D0D1560AFE753
:10112000C16841F02001C160EDE72DE9F05F05469F
:10113000006800244669D0F804908768D0F80CB0A5
:10114000D0F810A0D0F81880F10748D0F90714D0D3
:1011500001218160B80703D5284600F066FA0CE04B
:10116000780702D54FF4006407E0380702D54FF442
:10117000805402E0284600F057FAF80516D5296891
:101180004FF480708860B80503D5284600F04FFA08
:101190000CE0780502D544F4005407E0380502D588
:1011A00044F4804402E0284600F040FAF80316D5E3
:1011B00029684FF480308860B80303D5284600F0D2
:1011C00038FA0CE0780302D544F4004407E0380311
:1011D00002D544F4803402E0284600F029FA3007B2
:1011E00007D55FEACB6004D52968102044F4007469
:1011F000C86070074FF0080707D55FEA0B7004D589
:101200002868C760284600F099F9B00706D5286815
:10121000C068800702D0284600F092F9700607D512
:101220005FEACA6004D52968102044F4806408612C
:10123000B00607D55FEA0A7004D52868076128461A
:1012400000F0A0F9F00606D528680069800702D0F2
:10125000284600F099F9B00308D55FEAC96005D5C2
:10126000296810204860284600F0B0F9F00307D53F
:101270005FEA097004D528684760284600F0DAF96B
:10128000300446D55FEA497040D5F00504D55FEAE1
:10129000C87001D044F00104B00504D55FEA88703D
:1012A00001D544F00204700504D55FEA487001D509
:1012B00044F00404300529D518F0700F26D008F04A
:1012C0007000402815D006DC102809D020280AD04C
:1012D000302816D10AE050280ED0602811D10EE037
:1012E00044F008040DE044F010040AE044F0200447
:1012F00007E044F0400404E044F0800401E044F4DA
:1013000080742868816921F0700181612968042056
:101310004860002C05D0686A204368622846FFF7C1
:101320008FFEBDE8F09F70B5040003D094F8200054
:1013300010B104E0012070BD204600F081F8206863
:10134000016821F00201016000F01EFC054605263F
:1013500004E000F019FC401B0A2811D820684068FE
:101360008007F6D42068016841F00101016000F0B7
:101370000BFC05460BE000F007FC401B0A2806D9D1
:10138000606A40F40030606284F82060D2E7206830
:101390004068C007EFD0207E0128206801683DD05A
:1013A00021F080010160607E01282068016838D04A
:1013B00021F040010160A07E01282068016833D03F
:1013C00021F020010160E07E0128206801682ED014
:1013D00041F010010160207F01282068016829D0B8
:1013E00021F008010160607F01282068016824D095
:1013F00021F004010160D4E902010843D4E9041298
:10140000114308436168491E08432168C8610020F0
:101410006062012084F82000002070BD41F080014E
:10142000C0E741F04001C5E741F02001CAE721F0E3
:101430001001CFE741F00801D4E741F00401D9E7FA
:10144000F0B587B0044614216846FEF777FF364BA7
:101450003648DFF8D0E01968D4F800C0334A0325D5
:101460000226092710300024491CF44522D11960B6
:10147000012907D1016841F000710160006800F0A6
:1014800000700590106840F0080010601068CDE909
:10149000005600F00800CDE9047069462448CDE903
:1014A000024500F081FA00220521142000F0F8FB2B
:1014B000142033E0DFF87CE0F44531D1D0F800C0EF
:1014C0004CF0806CC0F800C0D0F800C001290CF0CE
:1014D000806CCDF814C0196007D1016841F000712B
:1014E0000160006800F000700590106840F0020094
:1014F0001060106802AB00F0020005904FF44050FD
:10150000CDE9000683E8B00069460B4800F04CFACC
:1015100000220521402000F0C3FB402000F0B2FB78
:1015200007B0F0BD006400401000002030380240D9
:10153000000C0240006800400004024070470000B8
:1015400010B588B004460C4B6A460021FFF779FDC0
:1015500008B1FFF76CFC0948844205D106490098A0
:10156000FFF7C8F808B010BD05488442FAD1024917
:101570000098FFF711F9F5E79C00002028010020F2
:10158000500100207047000010B588B004460C4B95
:101590006A460121FFF755FD08B1FFF748FC0948ED
:1015A000844205D106490098FFF7A4F808B010BDA1
:1015B00005488442FAD102490098FFF7EDF8F5E7B3
:1015C000A4000020280100205001002070470000E6
:1015D00070B5044690F82000012804D0606A40F4F9
:1015E0000020606218E0022084F820002068016872
:1015F00021F00101016000F0C7FA05460EE000BFCE
:1016000000F0C2FA401B0A2808D9606A40F4003092
:101610006062052084F82000012070BD20684068C9
:10162000C007EDD1606270BD70477047704770476A
:101630007047704770472DE9F0410446876D00F010
:10164000A3FA064694F835000025022806D080202B
:10165000606584F834500120BDE8F081206801689D
:1016600021F0160101602068416921F0800141618B
:10167000206C08B9A06C20B12068016821F0080135
:1016800001602068016821F0010101600BE000F0B9
:101690007BFA801B052806D92020606504F8345F9A
:1016A00003206070D8E720680068C007EFD194F885
:1016B0005C103F208840B86004F8345F01206070FF
:1016C0000020C9E72DE9F84304464FF00009CDF8A2
:1016D000009063484FF41651A56D0068B0FBF1F718
:1016E0002E6894F85C10082000FA01F131420FD006
:1016F00021680A6852070BD50A6822F004020A60C2
:1017000094F85C108840A860606D40F0010060654E
:1017100094F85C104FF0010808FA01F0304208D04C
:1017200021684969090604D5A860606D40F002008F
:10173000606594F85C1004208840304208D021682D
:101740000968890704D5A860606D40F004006065F1
:1017500094F85C1010208840304218D02168096845
:10176000090714D5A86020680168490304D50068FA
:10177000000308D5A16C07E00168C90503D401681E
:1017800021F008010160216C09B12046884794F8D6
:101790005C1020208840304231D021680968C90699
:1017A0002DD5A86094F8350005282068016806D07A
:1017B000490347D5006800031DD4616C1CE021F08B
:1017C000160101602068416921F080014161206CAF
:1017D00008B9A06C20B12068016821F008010160FF
:1017E00094F85C103F208840A86084F8349084F816
:1017F0003580216D1FE0E16B09B120468847606D9F
:1018000000282BD0606DC00714D0052084F8350067
:101810002068016821F0010101600098401C0090DF
:10182000B84203D820680068C007F6D184F8349025
:1018300084F83580E16C002910D001B02046BDE865
:10184000F04308470168C905D5D4016821F01001AB
:10185000016084F8349084F83580CCE7BDE8F883E3
:10186000200000202DE9F041044600F08DF90646E5
:101870005CB1002584F83450022084F835002068DB
:10188000016821F0010101600DE00120BDE8F08157
:1018900000F07AF9801B052805D920206065032017
:1018A00084F83500F2E720680068C007F0D12268AC
:1018B000116820480140D4E901031843D4E90336F4
:1018C0003343184363691843A3691843E369184312
:1018D000236A18430843616A042903D1D4E90B132E
:1018E00019430843106020684069666A20F00701C8
:1018F00030460E43012704280CD1A06A0643E06A53
:1019000040B12046FFF770F820B14020606584F8B0
:101910003570BAE7206846612046FFF751F894F821
:101920005C203F2191408160656584F8357000201E
:10193000ACE700003F8010F02DE9F0410446866DD1
:1019400090F83400002501280DD0012084F83400DF
:1019500094F835700020012F07D084F83400022558
:101960002846BDE8F0810220FBE7022784F83570A5
:1019700060652046FFF762F894F85C103F208840CD
:10198000B0602068016841F016010160206C20B150
:101990002068016841F0080101602068016841F099
:1019A00001010160DCE700002DE9F84F00224FF053
:1019B000010803254FF00F0E0B6808FA02F42340CC
:1019C000A3426ED14E68012E05D0022E03D0112EF7
:1019D00001D0122E12D186684FEA420C05FA0CF79C
:1019E000BE43CF6807FA0CF7374387604668A643C3
:1019F0000C79C4F30014944034434460C668570023
:101A000005FA07FC8C6826EA0C06BC403443C46027
:101A10004C68022C01D0122C13D1D40800EB8404A2
:101A2000A346D4F8209054074FEAD46A0EFA0AF677
:101A300029EA06090E6906FA0AF646EA0906CBF80B
:101A4000206004680E7924EA0C0406F00306BE4008
:101A5000264306604C68E4006FD53B4C266846F48C
:101A600080462660246822F0030604F48044009433
:101A7000364C3444A446D4F808489607360F0EFA7C
:101A800006F7BC43324FB84201D100272EE0314F58
:101A9000B84201D1012729E02F4FB84202D10227D5
:101AA00024E04AE02D4FB84201D103271EE02C4F1D
:101AB000B84201D1042719E02A4FB84201D10527C5
:101AC00014E0294FB84201D106270FE0274FB84252
:101AD00001D107270AE0264FB84201D1082705E0C7
:101AE000244FB84201D1092700E00A27B740274315
:101AF000CCF80878204E34684F689C43FF0300D52B
:101B00001C4334601C4E361D34684F689C43BF0331
:101B100000D51C433460184E083634684F689C4327
:101B2000FF0200D51C433460134E0C3634684F68F6
:101B30009C43BF0200D51C433460521C102AFFF4A2
:101B40003BAFBDE8F88F0000443802400030014050
:101B5000000002400004024000080240000C024065
:101B6000001002400014024000180240001C024015
:101B70000020024000240240003C01400AB1816183
:101B800070470904FBE700000148806870470000C7
:101B90001400002002488168027811448160704777
:101BA000140000200B4810B5016841F40071016079
:101BB000016841F480610160016841F48071016055
:101BC000032000F08DF8002000F006F800F03EF849
:101BD000002010BD003C024010B5014688B0002234
:101BE0002D2000F05DF82D2000F04CF81348002463
:101BF000016841F480710160006805A900F48070FB
:101C00000690684600F018F900F036F90C494000DB
:101C1000B0FBF1F10C480B4A491E026040F2E7327A
:101C2000C0E90324C0E9011400F070FB10B10120E9
:101C300008B010BD044800F0AFFBF9E7403802409F
:101C400040420F0000200040D80200200C4882B023
:101C5000016841F480410160006800F48040009018
:101C60000748001F016841F08051016000680022B0
:101C700000F0805000900F21901E02B000F010B8CC
:101C800044380240002809DB00F01F020121914086
:101C90004009800000F1E020C0F80011704700000A
:101CA000F0B40E4B1B680C46C3F30223C3F10705C7
:101CB000042D00D90425191D072901D2002300E0B5
:101CC000DB1E012606FA05F1491E214099409E407F
:101CD000761E16403143F0BC02F045B90CED00E031
:101CE000064900F0070208684FF6FF03184040EA73
:101CF0000220034A10430860704700000CED00E02A
:101D00000000FA052DE9F0470E46050065D0DFF822
:101D10001481D8F80000F7B200F00F00B04207D2EB
:101D200088F80070D8F8000000F00F00B04254D1DD
:101D300028683D4C810712D5400703D5206840F440
:101D4000E05020602878000703D5206840F4604008
:101D500020602068A96820F0F000084320602878FF
:101D6000C0072DD0304968680839012812D00228F0
:101D700013D0032811D00968890700292DDA2168BA
:101D800021F0030101432160FFF7FEFE814641F28D
:101D9000883A0EE009688903EFE709688901ECE7F2
:101DA000FFF7F2FEA0EB0901514502D90320BDE87F
:101DB000F0872068696800F00C00B0EB810FEFD16C
:101DC000D8F80010404601F00F01B14207D9077062
:101DD000006800F00F00B04201D00120E7E728784A
:101DE000400705D52068E96820F4E05008432060EA
:101DF0002878000706D52068296920F4604040EA69
:101E0000C100206000F058F82168084AC1F30311AE
:101E1000515CC8400649086006480068FFF7DCFED0
:101E20000020C4E7003C024008380240005A000885
:101E300020000020180000200F2202600C4A1368C6
:101E400003F003034360136803F0F0038360136837
:101E500003F4E053C36012684FF4E05303EAD20284
:101E600002610448006800F00F000860704700003D
:101E700008380240003C02400448054900680968EF
:101E8000044AC1F38221515CC84070472000002001
:101E900008380240105A00080448054900680968DB
:101EA000044AC1F34231515CC84070472000002011
:101EB00008380240105A0008154810B5006810F0A4
:101EC0000C02144813D01449042A0FD0082A0ED14A
:101ED0000F4C241F2268236802F03F025B0207D5E3
:101EE0002068C0F38810A0FB010106E0084610BD81
:101EF0002168C1F38811A1FB00010023FEF7D4F98A
:101F00002168C1F30141491C4900B0FBF1F010BD4B
:101F1000083802400024F400001BB7002DE9F84FF8
:101F200004006ED02078DFF83C93C007A9F10405C7
:101F30004AD009F104000168C1F38101012908D0E8
:101F40000068C0F3810002280AD1D9F800004002DD
:101F500006D52868800337D560680028E1D033E0D3
:101F60006068B0F5803F10D0B0F5A02F286810D081
:101F700020F480302860286820F480202860606881
:101F8000A8B1FFF701FE06460DE0286840F4803056
:101F9000F4E740F480202860F7E700BFFFF7F4FD86
:101FA000801B642873D828688003F7D50CE0FFF7FE
:101FB000EBFD064605E000BFFFF7E6FD801B642849
:101FC000F0D828688003F7D42078DFF89C82800757
:101FD0004FF0000A3ED5A348001D016811F00C0F18
:101FE00008D00068C0F3810002280BD1D9F80000A6
:101FF000400207D42868800716D5E068012800D180
:1020000012E02BE1E068B8B10120C8F80000FFF74A
:10201000BBFD064605E000BFFFF7B6FD801B0228AA
:10202000C0D828688007F7D52868216920F0F80013
:1020300040EAC10028600DE0C8F800A0FFF7A4FD49
:10204000064604E0FFF7A0FD801B02281FD8286881
:102050008007F7D42078000722D5824E8348616933
:10206000703671B101210160FFF78EFD074604E073
:10207000FFF78AFDC01B022809D830688007F7D512
:102080000EE0C0F800A0FFF77FFD074605E082E004
:10209000FFF77AFDC01B02287DD830688007F7D48F
:1020A0002078400768D5DFF8BCB100270BF13C0B66
:1020B000DBF80000C0000BD4DBF8001041F08051C9
:1020C000CBF80010DBF80000012700F080500090F2
:1020D000674E3068C00510D4306840F480703060BE
:1020E000FFF752FD009005E0FFF74EFD0099401A02
:1020F000022850D83068C005F6D55A4EA0686C3614
:1021000001280FD00528306810D020F00100306081
:10211000306820F004003060A068B8B1FFF734FDEB
:1021200000900FE0306840F00100F4E740F0040058
:102130003060F7E7FFF728FD0099411A41F2883037
:10214000814266D830688007F4D50EE0FFF71CFDA9
:10215000009007E0FFF718FD0099411A41F288301E
:10216000814256D830688007F4D42FB1DBF80010D4
:1021700021F08051CBF80010A069C8B33949091D7E
:102180000968C1F3810102294AD00228504607D0CC
:10219000C8F8600000E03CE0FFF7F6FC04463BE0D6
:1021A0004746C8F86000FFF7EFFC064605E000BFB1
:1021B000FFF7EAFC801B02282BD828688001F7D49F
:1021C000D4E907010843A16A2A4A490802EB014100
:1021D000626A41EA8211084394F82C1040EA0161D6
:1021E000C9F8001001203866FFF7CEFC044606E06F
:1021F00036E000BFFFF7C8FC001B022809D828689A
:102200008001F7D52CE000BFFFF7BEFC001B0228C1
:1022100002D90320BDE8F88F28688001F4D41FE0BC
:102220000128F7D0D9F80000E26900F4800191425A
:1022300014D1226A00F03F0191420FD147F6C071DC
:10224000626A0140914209D1A26A00F44031914290
:1022500004D1E16A00F07060884201D00120D9E722
:102260000020D7E70438024000004742800E474272
:10227000007000400000FFFF7047704770B590F895
:102280003C20012A32D0012480F83C40022280F810
:102290003D2003685A689D6822F070060A68324340
:1022A0005A60134B02689A4214D0B2F1804F11D099
:1022B000104B9A420ED0104B9A420BD00F4B9A42C1
:1022C00008D00F4B9A4205D00E4B9A4202D00E4BCB
:1022D0009A4204D1496825F080031943916080F83F
:1022E0003D40002180F83C10084670BD022070BDC2
:1022F000000001400004004000080040000C0040C5
:1023000000040140004001400018004010B50400E6
:1023100003D094F83D0010B107E0012010BD00206B
:1023200084F83C00204600F00DF8022084F83D00BF
:10233000211D206801F0A8FB012084F83D00002049
:1023400010BD000008B5114A01681148914208D13A
:10235000016841F008010160006800F00800009089
:1023600008BD0C4A9142FBD1016841F04001016077
:102370000068002200F04000009005212B20FFF7AC
:102380008FFCBDE808402B20FFF77CBC000C004010
:1023900040380240001800400168CA6842F001025B
:1023A000CA600068816801F00701062903D001684E
:1023B00041F0010101600020704770B5044690F8BB
:1023C0003C00012817D0012584F83C50022084F8F5
:1023D0003D002068826822F0770222F47F4282600A
:1023E0000868502830D00DDC20284DD005DC98B38B
:1023F00010283BD148E0022070BD302844D040284E
:1024000034D139E0602828D0702806D0B0F5805F3C
:102410002CD0B0F5005F29D10AE0CB68D1E90121C9
:10242000206801F0A2FB2068816841F0770109E093
:10243000CB68D1E90121206801F097FB2068816811
:1024400041F48041816011E0CA684968206801F068
:1024500061FC5021206807E016E0CA6849682068DE
:1024600001F069FC6021206801F089FB84F83D508F
:10247000002084F83C0070BDCA684968206801F0FB
:1024800049FC40212068EFE7226801461046EBE74F
:10249000704770B50446006801694FF00005C943F4
:1024A000890715D4C168C943890711D4E91E0161A0
:1024B00001202077206880698007204602D0FFF73E
:1024C000E7FF04E000F0D4F8204600F056F9257745
:1024D00020680169C943490717D4C168C94349073E
:1024E00013D46FF004010161022020772068806915
:1024F00010F4407F204602D0FFF7CAFF04E000F04E
:10250000B7F8204600F039F9257720680169C943FA
:10251000090716D4C168C943090712D46FF008012E
:102520000161042020772068C0698007204602D01E
:10253000FFF7AEFF04E000F09BF8204600F01DF925
:10254000257720680169C943C90617D4C168C94302
:10255000C90613D46FF010010161082020772068AC
:10256000C06910F4407F204602D0FFF791FF04E0DD
:1025700000F07EF8204600F000F925772068016918
:10258000C943C90708D1C168C943C90704D1891E15
:102590000161204600F014F920680169C943090669
:1025A00009D4C168C943090605D46FF080010161EF
:1025B0002046FFF761FE20680169C943490609D436
:1025C000C168C943490605D46FF040010161204646
:1025D00000F000F920680169C94389060BD4C1687D
:1025E000C943890607D46FF0200101612046BDE888
:1025F0007040FFF742BE70BD30B587B0044614216D
:102600006846FDF79BFE16492068884226D115488A
:102610000024016841F480710160016801F4807157
:102620000591016841F0800101600068022500F019
:102630008000059001200090CDE9015469460A48C8
:10264000CDE90345FFF7B0F9E8020090CDE9015468
:1026500069460648CDE90345FFF7A6F907B030BD46
:10266000000C00403038024000200240001C0240B4
:10267000704770B5044690F83C000D4601280DD017
:10268000012684F83C60022084F83D0042B1042A0F
:1026900018D0082A2AD00C2A4DD139E0022070BD6A
:1026A000206801F075FA2068816941F008018161B4
:1026B0002068816921F004018161206881692A69AB
:1026C000114311E0206801F093FA2068816941F418
:1026D000006181612068816921F4806181612068E5
:1026E00081692A6941EA0221816124E0206801F0C0
:1026F000B5FA2068C16941F00801C1612068C1696B
:1027000021F00401C1612068C1692A69114311E007
:10271000206801F0D7FA2068C16941F40061C16105
:102720002068C16921F48061C1612068C1692A699A
:1027300041EA0221C16184F83D60002084F83C0038
:1027400070BD10B5040003D094F83D0010B107E04F
:10275000012010BD002084F83C00204600F00CF859
:10276000022084F83D00211D206801F08DF9012030
:1027700084F83D00002010BD7047704710B5044636
:102780000068012201F0E4F90B492068884202D078
:102790000A49884203D1416C41F4004141642068F8
:1027A000816801F00701062903D0016841F00101A9
:1027B0000160002010BD0000000001400004014045
:1027C00000680349884201D1FFF7E4B9704700006F
:1027D00000200040704710B504460068416994F835
:1027E0003920C1F3C011212A0BD151B1416921F027
:1027F00080014161206B08B1FEF71DFF204601F00A
:102800000EFB2068416994F83A20C1F38011222A16
:102810000BD151B1416921F040014161606B08B1B8
:10282000FEF709FF204601F0ECFA002010BD7047CA
:1028300070B5040004D094F83900002510B106E00A
:10284000012070BD84F83850204600F023F8242081
:1028500084F839002068C16821F40051C160204625
:1028600001F0E6FA2068016921F4904101612068D5
:10287000416921F02A0141612068C16841F4005199
:10288000C160E563202084F8390084F83A00002014
:1028900070BD0000F0B587B0064614216846FDF70C
:1028A0004DFD324F306800253149022203230724B1
:1028B000B8423BD12E481430076847F01007076034
:1028C000006800F010000590086840F00200086001
:1028D0000868694600F002000590C0208DE82500D8
:1028E000CDE903342348FFF75FF8244C22482060E9
:1028F0004FF00060C4E901054014C4E9035065616C
:10290000A561E561256220466562FEF7ABFF08B16F
:10291000FEF78DFA7463002205212520A663FFF7D8
:10292000BFF92520FFF7AEF907B0F0BD144EB04255
:10293000FAD10F481030066846F480260660006819
:1029400000F480200590086840F0080008600868DE
:10295000694600F0080005904FF440708DE82500AE
:10296000CDE903340748FFF71FF8DDE70010014009
:1029700030380240000402404064024078020020E7
:1029800000480040000C0240F8B5044690F83A00B8
:1029900020283CD1C1B3BAB394F83800012836D00E
:1029A000012084F83800A162A2850025E563222079
:1029B00084F83A00636B1748D863636B1648186451
:1029C000636B1648D864606B134605650846666BF2
:1029D000216802463046091DFEF7AEFF20680168F7
:1029E0004168009184F83850C16841F48071C16039
:1029F0002068416941F0010141612068416941F06D
:102A0000400141610020F8BDFFE70120FBE7022003
:102A1000F9E70000BD3D0008F93D0008733D0008DE
:102A200070477047FEE70000014909680840704799
:102A3000F4000020084890F86C1000290AD090F8A3
:102A40002810C90706D090F82A10C90702D1C16A18
:102A5000C943C16270470000805A0020F8B5244C79
:102A6000244900252369B1F9042001F11400BE2B8B
:102A70001DDA0E469FED200A81ED0E0A00EE102AA7
:102A8000B8EEC00A81ED0D0A00F0D9F9009596ED77
:102A90000F0A00231946BDEEC00A10EE100A02B25A
:102AA0001648FDF72DFF2069401C20611AE0DAB1BD
:102AB0009FED130A0E4681ED0E0A00EE102AB8EEC5
:102AC000C00A81ED0D0A00F0BAF9009596ED0F0AE3
:102AD00000231946BDEEC00A10EE100A02B20748E4
:102AE000FDF70EFF0020F8BD01202561F8BD0000B4
:102AF000000100201454002000803BC5500100203C
:102B000000000000024A002142F820107047000037
:102B1000F05A0020104810B50E49016002214160B2
:102B200000214FF04072C0E90212921102614FF48D
:102B3000A0024261017641768176C17601774177C4
:102B4000FEF7F1FB002803D0BDE81040FEF76FB997
:102B500010BD00000064004028010020104810B59E
:102B60000E4901600221416000214FF04072C0E92E
:102B70000212921102614FF4A00242610176417685
:102B80008176C17601774177FEF7CDFB002803D02F
:102B9000BDE81040FEF74BB910BD000000680040D2
:102BA00050010020094808B5016841F48001016026
:102BB0000068002200F48000009005213A20FFF711
:102BC0006FF8BDE808403A20FFF75CB830380240A3
:102BD00010B5104B002201210F4801F0B5FA0F4C3F
:102BE0000221E06001F0F2FA0A4A00216C3A0C4836
:102BF00001F058FA074A2060483A0021094801F0DC
:102C000051FA044A6060243A0021074801F04AFA68
:102C1000A06010BDE85900089139000800000020AC
:102C200075390008653900088139000830B587B06A
:102C300014216846FDF782FB22480024016841F018
:102C400001010160016801F001010591016841F095
:102C500002010160016801F002010591016841F083
:102C600008010160016801F008010591016841F067
:102C700020010160016801F020010591016841F423
:102C800080710160016801F480710591016841F073
:102C90008001016000680C4D00F08000059000226A
:102CA00003212846FEF76AFF032000900120CDE9AA
:102CB00001040220039069462846FEF775FE07B01E
:102CC00030BD0000303802400014024010B58EB014
:102CD00000240794089409940A940B941C216846D4
:102CE0000C94FDF72BFB2448224901604F21C0E9D9
:102CF000011444F61F61C0E903148461FFF706FB69
:102D000008B1FEF794F84FF48050079007A91A48CD
:102D1000FFF753FB08B1FEF78AF81748FFF711FDDC
:102D200008B1FEF784F80B940BA913480C94FFF735
:102D3000A5FA08B1FEF77BF86020CDE90004029403
:102D4000082269460C480494FFF793FC08B1FEF78B
:102D50006EF84FF4FA7001900C2269460648FFF7AE
:102D600088FC08B1FEF763F80348FFF745FC0EB096
:102D700010BD0000000C0040780100200E4810B586
:102D80000C4901600D4941604FF480518160490058
:102D9000C160C91001610421416100218161C161EB
:102DA000FFF746FD002803D0BDE81040FEF73FB80E
:102DB00010BD000000100140F8010020A0860100B5
:102DC000FEE710B5B0F9003043800A8852BA12B25B
:102DD00002804C88D31A64BA84808C88B3F5805FF3
:102DE00064BAC48089790172B0F90A1001DD491E04
:102DF00003E013F5805F01DA491C4181B0F90A1044
:102E000002EB413213310261272901D300214181B4
:102E100010BDC0ED0C1A80ED102A00F11402002143
:102E200082EC030A343280F8441080ED194AC0ED78
:102E30001D4AC2EC032A80F878107047FEE790ED37
:102E4000041A80ED051AD0ED030AC0ED040A90EDD6
:102E5000090AD0ED081A30EE610A80ED030A90F8F5
:102E6000301011B101292DD046E090ED061A71EE17
:102E7000001AC0ED061A90ED071AF4EEC11AF1EE31
:102E800010FA01DD80ED061AD0ED061AB1EE411AF6
:102E9000F4EEC11AF1EE10FA01D280ED061A90EDAF
:102EA000001AD0ED011A90ED062A21EE001A30EE3C
:102EB000600AD0ED020A01EE821A00EE801A80ED5F
:102EC0000A1A19E070EE601A90ED002AF0EE002A5E
:102ED00061EE821AB0EE402A00EEE22AD0ED010A3D
:102EE00032EE011A40EE811A40EE801A90ED0A0A85
:102EF00031EE800A80ED0A0AD0ED0A0A90ED0B0A45
:102F0000F4EEC00AF1EE10FA01DD80ED0A0AD0ED10
:102F10000A0AB1EE400AF4EEC00AF1EE10FA01D24C
:102F200080ED0A0A7047704770B52748DFED270A21
:102F3000274CB0F90410A1F5806100EE101AB8EE2C
:102F4000C00A20EE200AFAEE000A84ED080AB0F961
:102F50000010A1F5806100EE101AB8EEC00A20EE54
:102F6000200AFBEE000A84ED0B0AB0F90810A1F567
:102F7000806100EE101AB8EEC00A20EE200A84ED3F
:102F80000C0AB0F90250A5F58060FDF754FA41EC47
:102F9000100B104890ED001B51EC100B53EC112B53
:102FA000FDF7D7F941EC100B00F0EDFF51EC100BE1
:102FB000FDF765FA6063B5F5806F01DA012000E086
:102FC0000020E07070BD0000805A0020CDCC4C3D48
:102FD000205B0020F8000020144810B5B0F9041060
:102FE00000EE101AB8EEC00A80ED0D0A1048B0F9D4
:102FF000041000EE101AB8EEC00A80ED0D0A0D485C
:10300000B0F9041000EE101AB8EEC00A80ED0D0AF7
:1030100006481430FFF713FF05481430FFF70FFF81
:103020000448BDE810401430FFF709BF2C530020BE
:1030300014540020FC5400202DE9F8433C4C3D4E34
:103040003D4D20784FF00009F0B3012850D1A07811
:1030500000284DD1301D0168D4ED080A00EE101A89
:10306000B8EE400A30EE200ABCEEC00A10EE101A8C
:103070000160324F94ED0B0ADFF8C48087ED0E0A31
:1030800094ED0C0A88ED0E0AFFF7A6FF2D48CDF847
:10309000009090ED0F0ABDEEC00A10EE100A98EDF8
:1030A0000F0A03B2BDEEC00A10EE100A97ED0F0A28
:1030B00002B2BDEEC00A10EE100A01B22248FDF7BE
:1030C0001FFCE07868B300E014E0012810D1012271
:1030D00011462846FEF752FD002202212846FEF73F
:1030E0004DFD94ED0D0ABCEEC00A10EE100A3060E2
:1030F000BDE8F88300231A4619461348CDF800901E
:10310000FDF7FEFB42F20F703060002201212846DD
:10311000FEF734FD2846BDE8F84300220221FEF701
:103120002DBD002201212846FEF728FD0122D4E70B
:10313000205B00203C0C0040001402402C53002077
:1031400014540020FC5400205001002038B50168C0
:1031500004460868C00630D50868486800901748DB
:103160000268406816484FF40012814202D91448A0
:103170004C3804E01348814203D9114850380260AA
:1031800008E0104B0F48603BB838994201D9C26043
:1031900000E082602046FFF71EFB606B006840681D
:1031A00020B900F01FFA0020FFF7ACFC2046BDE874
:1031B000384012220449FFF7E7BB38BD0010014038
:1031C00058640240B86002406C5A0020F8B5244CA4
:1031D00024490025A369B1F9042001F11400C82B8A
:1031E0001DDA0E469FED200A81ED0E0A00EE102A30
:1031F000B8EEC00A81ED0D0AFFF721FE009596EDAD
:103200000F0A00231946BDEEC00A10EE100A02B2E2
:103210001648FDF775FBA069401CA0611AE0DAB101
:103220009FED130A0E4681ED0E0A00EE102AB8EE4D
:10323000C00A81ED0D0AFFF702FE009596ED0F0A18
:1032400000231946BDEEC00A10EE100A02B207486C
:10325000FDF756FB0020F8BD0120A561F8BD000078
:10326000000100201454002000803B455001002044
:10327000000000002DE9F8439FED750A754FDFF857
:10328000DC91DFED750A764C87ED0E0A754DC9EDC0
:103290000E0A84ED0E0AC5ED0E0A9FED730A734EF9
:1032A00086ED0E0A9FED720ADFF8C88188ED0E0ADE
:1032B000B7F9040000EE100AB8EEC00A87ED0D0A57
:1032C000B9F9040000EE100AB8EEC00A89ED0D0A43
:1032D000B4F9040000EE100AB8EEC00A84ED0D0A3D
:1032E000B5F9040000EE100AB8EEC00A85ED0D0A2B
:1032F000B6F9040000EE100AB8EEC00A86ED0D0A19
:10330000B8F9040000EE100A07F11400B8EEC00A84
:1033100088ED0D0AFFF793FD09F11400FFF78FFD0B
:1033200004F11400FFF78BFD05F11400FFF787FD92
:1033300006F11400FFF783FD08F11400FFF77FFD8D
:1033400095ED0F0ABDEEC00A10EE100A00B2009013
:1033500094ED0F0ABDEEC00A10EE100A98ED0F0AA8
:1033600003B2BDEEC00A10EE100A96ED0F0A02B2CB
:10337000BDEEC00A10EE100A01B23F48FDF7C0FAD8
:103380000020009099ED0F0A0023BDEEC00A10EE58
:10339000100A97ED0F0A02B2BDEEC00A10EE100A35
:1033A00001B23548FDF7CAFA97ED0E0AD7ED0D0ABE
:1033B000324830EE600AB0EEC00A10EE101A8142B8
:1033C0003DDA99ED0E0AD9ED0D0A30EE600AB0EE45
:1033D000C00A10EE101A814231DA94ED0E0AD4EDD3
:1033E0000D0A30EE600AB0EEC00A10EE101A8142EB
:1033F00025DA95ED0E0AD5ED0D0A30EE600AB0EE35
:10340000C00A10EE101A814219DA96ED0E0AD6EDB6
:103410000D0A30EE600AB0EEC00A10EE101A8142BA
:103420000DDA98ED0E0AD8ED0D0A30EE600AB0EE16
:10343000C00A10EE101A814201DA012000E00020DB
:103440000F490028086200D00120BDE8F883000081
:103450000080BBC58C4F00200080BB45745000200D
:10346000BC4D0020A44E002000803BC5EC4B00204A
:1034700000803B45D44C0020280100200000484239
:103480000001002038B5114C9FED0F0A84ED0E0AA3
:10349000B4F9040000EE100A04F11400B8EEC00AFA
:1034A00084ED0D0AFFF7CBFC0020009094ED0F0A8D
:1034B00000231946BDEEC00A10EE100A02B20448FD
:1034C000FDF71EFA38BD0000000000001454002073
:1034D000500100202DE9F84F38484FF0000A0178DC
:1034E00039B101468278896BCAB1407901280ED082
:1034F00015E0002354461A4619463148CDF800A07D
:10350000FDF7FEF900231A461946009452E00029FF
:1035100005DDFFF7AFFE2B498860BDE8F88F002975
:10352000FBD12A4C9FED280A294D2A4E84ED0E0A24
:10353000294F85ED0E0ADFF8A48086ED0E0ADFF82C
:10354000A09087ED0E0A88ED0E0A89ED0E0A00F0B4
:10355000CBF897ED0F0ABDEEC00A10EE100A00B2CC
:10356000009096ED0F0ABDEEC00A10EE100A99ED1C
:103570000F0A03B2BDEEC00A10EE100A98ED0F0A52
:1035800002B2BDEEC00A10EE100A01B20C48FDF7FF
:10359000B7F9CDF800A095ED0F0A0023BDEEC00AE3
:1035A00010EE100A94ED0F0A02B2BDEEC00A10EE42
:1035B000100A01B20248FDF7C1F9AEE7205B002016
:1035C0002801002000010020000000008C4F002096
:1035D00074500020BC4D0020A44E0020EC4B002075
:1035E000D44C00202B4910B40DC90DC12948028DBF
:1035F000428571E80B23C1E90D23A0F114010A886B
:10360000C2F30A0202804A78D3088A7843EA421356
:10361000C3F30A034380CB78920942EA83030A7911
:1036200043EA8223C3F30A03838053084A7943EAB7
:10363000C213C3F30A03C3800B8AC3F30A030381D3
:1036400093098372C2F30112C272B1F90630038387
:103650000C8944834C8984830C7B84774C7BC477AE
:10366000C98901850021022A04D0032A05D0012A34
:1036700005D007E080F86C1004E0012200E002228F
:1036800080F86C205B1D0B2B00D3418310BCFFF72F
:10369000D1B90000805A002005480068C16841F097
:1036A0001001C160122203490148FFF76DB9000003
:1036B000F80100206C5A0020704700000848F3EE23
:1036C000060AB0F90600A0F5806000EE100A054871
:1036D000B8EEC00A20EE200A80ED030A7047000011
:1036E000805A0020205B0020284810B5B0F9041053
:1036F00000EE101AB8EEC00A80ED0D0A2448B0F9A9
:10370000041000EE101AB8EEC00A80ED0D0A214830
:10371000B0F9041000EE101AB8EEC00A80ED0D0AE0
:103720001D48B0F9041000EE101AB8EEC00A80ED82
:103730000D0A1A48B0F9041000EE101AB8EEC00ACB
:1037400080ED0D0A1648B0F9041000EE101AB8EE1C
:10375000C00A80ED0D0A0D481430FFF770FB0C48CD
:103760001430FFF76CFB0B481430FFF768FB0A4876
:103770001430FFF764FB09481430FFF760FB08487A
:10378000BDE810401430FFF75ABB00008C4F0020FA
:1037900074500020BC4D0020A44E0020EC4B0020B3
:1037A000D44C00202DE9F047614C4FF0000A2DED7C
:1037B000048B82B0207858B1A078B8B101287DD1AF
:1037C0005C4DA868002802D02079012877D0A5E0B8
:1037D000002354461A4619465748CDF800A0FDF775
:1037E0008FF800231A461946009489E0D4ED038A25
:1037F000B1EE688A18EE100AFCF72EFE9FED4F9B83
:1038000053EC192BFCF7A5FDFCF739FE4D4CA063DA
:1038100018EE900AFCF720FE53EC192BFCF799FDEB
:10382000FCF72DFE484DA86318EE100AFCF714FEB5
:1038300053EC192BFCF78DFDFCF721FE434EB063D2
:1038400018EE900AFCF708FE53EC192BFCF781FDEB
:10385000FCF715FEDFF8F880C8F8380018EE100AFB
:10386000FCF7FAFD9FED3B9B53EC192BFCF771FD28
:10387000FCF705FE394FB86318EE900AFCF7ECFD33
:1038800053EC192BFCF765FDFCF7F9FDDFF8D09040
:10389000C9F83800FFF728FF98ED0F0ABDEEC00AFF
:1038A00010EE100A00B2009096ED0F0ABDEEC00AAD
:1038B00010EE100A99ED0F0A03B201E023E027E0B1
:1038C000BDEEC00A10EE100A97ED0F0A02B2BDEE6F
:1038D000C00A10EE100A01B21748FDF711F8CDF832
:1038E00000A095ED0F0A0023BDEEC00A10EE100AED
:1038F00094ED0F0A02B2BDEEC00A10EE100A01B23A
:103900000D48FDF71BF802B0BDEC048BBDE8F08755
:10391000A06B0028F7DDFCF7AFFE286020790028B7
:10392000F1D102B0BDEC048BBDE8F047FFF7AABDB2
:10393000205B002000010020280100209A9999991D
:103940009999D93F8C4F002074500020BC4D002025
:10395000A44E00209A9999999999C93FEC4B00205F
:10396000D44C0020FFF768FBFFF7B4FD022000F005
:1039700047FBF7E7FFF716FF022000F041FBF9E7EE
:10398000FDF770F8FDF7B6F9012000F039FBF9E713
:103990007047000010B5502080F31188BFF34F8F9F
:1039A000BFF36F8F01F016FE18B104494FF080503D
:1039B0000860002080F3118810BD000004ED00E0D5
:1039C00030B593B030216846FCF7B8FC14210CA840
:1039D000FCF7B4FC1D480025016841F080510160EE
:1039E000006800F0805011901948016841F440418E
:1039F00001600068022400F4404011900120009012
:103A0000000401908001CDE9064006200890A02026
:103A1000CDE9090404200B906846FEF77FFA08B14F
:103A200072B6FEE70CA90F2081E831004FF4A050D8
:103A30000F904FF48050109005210CA8FEF762F90A
:103A4000002801D072B6FEE713B030BD4038024006
:103A5000007000400548016841F4700101600349AD
:103A60004FF00060803908607047000088ED00E08A
:103A70000148FEF70EBD0000B80100200148FEF726
:103A800008BD0000D8020020F0B50268254C264D84
:103A9000264E274F274B4FF0804CA04209D060455F
:103AA00007D0A84205D0B04203D0B84201D0984216
:103AB00004D122F0700E4A6842EA0E02A0421BD0E6
:103AC000604519D0A84217D0B04215D0B84213D0E3
:103AD000984211D0184DA8420ED0184DA8420BD0D4
:103AE000174DA84208D0174DA84205D0164DA84240
:103AF00002D0164DA84203D122F44075CA682A4369
:103B00004D6922F080022A4302608A68C2620A6814
:103B10008262A04201D0984201D10969016301216A
:103B20004161F0BD00000140000400400008004079
:103B3000000C0040000401400040014000440140EE
:103B40000048014000180040001C004000200040D8
:103B500010B501F01F030121046A99408C430462EF
:103B6000016A9A401143016210BD10B5846842EAAF
:103B7000032224F47F440A432243826010BD8268FA
:103B800022F070020A4342F0070181607047000092
:103B9000F0B5026A22F001020262036A4268846997
:103BA000124E24F073050C682C4323F002058B6839
:103BB0002B430D4DA84201D0B04205D123F0080798
:103BC000CB683B4323F00403A84201D0B04205D1A7
:103BD0004D6922F4407215438A692A434260846128
:103BE000496841630362F0BD0000014000040140E8
:103BF000F0B5026A22F010020262026A4368846928
:103C00000D6824F4E64444EA05248D6822F020027D
:103C100042EA05120F4D104EA84201D0B04206D123
:103C2000CF6822F0800242EA071222F04002A84246
:103C300001D0B04207D14D6923F4406343EA8503C4
:103C40008D6943EA85034360846149688163026248
:103C5000F0BD00000000014000040140F0B5026A20
:103C600022F480720262026A4368C46922F400721C
:103C700024F073050C68124E2C438D6842EA05222D
:103C80000E4DA84201D0B04206D1CF6822F40062A6
:103C900042EA072222F48062A84201D0B04207D152
:103CA0004D6923F4405343EA05138D6943EA051334
:103CB0004360C4614968C1630262F0BD0000014015
:103CC0000004014030B5026A22F480520262046AA4
:103CD0004268C3690D6823F4E64343EA05238D680F
:103CE00024F4005444EA0534084DA84202D0084D9B
:103CF000A84204D14D6922F4804242EA8512426012
:103D0000C36149680164046230BD000000000140E5
:103D10000004014010B5036A046A24F0010404623F
:103D2000846924F0F00444EA021423F00A020A43EE
:103D30008461026210BD10B5036A23F010030362B0
:103D40008369046A23F4704343EA023224F0A00337
:103D500043EA01118261016210BD10B500F0BAFEA4
:103D6000002805D0D0E90021BDE8104008461047E2
:103D700010BD70B5846B2068406994F83910C0F3A9
:103D8000C0100025212904D118B1E584204600F097
:103D900046F82068406994F83A10C0F38010222950
:103DA00004D118B1E585204600F02BF8E06B40F017
:103DB0001000E0632046FEF73AFD70BD10B50146E5
:103DC000806B09680968C90513D40021C1850168A1
:103DD000CA6822F48072CA6001684A6922F001024E
:103DE0004A6101684A6922F040024A61202180F854
:103DF0003A10FEF715FE10BD10B5806BFEF711FEF0
:103E000010BD0168CA6822F49072CA6001684A69EC
:103E100022F001024A61202180F83A1070470168BF
:103E2000CA6822F0C002CA60202180F839107047A9
:103E30002DE9F041044600680169E26821F440512F
:103E4000114301612169A068E26908436169114376
:103E500008432168CA6849F20C639A430243CA6066
:103E600020684169A26921F4407111434161E06910
:103E7000192764253226B0F5004F354A35492068A8
:103E80004FF0000806D0884201D0904236D1FEF7AC
:103E900003F835E0884201D0904202D1FDF7FCFFE3
:103EA00001E0FDF7E9FF61684A18A0FB070148EB54
:103EB0000803FCF7F9F90146B0FBF5F00201B1FB8C
:103EC000F5F06FF01803584301EB800006EBC000DB
:103ED000B0FBF5F000F0F80002EB4002B1FBF5F0AA
:103EE000584301EB800006EBC000B0FBF5F000F09A
:103EF0000700216810448860BDE8F081FDF7BCFF31
:103F000061688B0F8A00A0FB0701FCF7CDF9014621
:103F1000B0FBF5F06FF01802504301EB800006EBA8
:103F20000010B0FBF5F000F0F002B1FBF5F002EB91
:103F30000012B1FBF5F06FF01803584301EB80005D
:103F400006EB0010B0FBF5F000F00F00D1E7000029
:103F500000140140001001400148FFF7F7B80000CD
:103F6000F8010020FEE70907090E002804DB00F134
:103F7000E02080F80014704700F00F0000F1E0200E
:103F800080F8141D70472DED020B019820F00040C1
:103F900001909DED000B02B0704702E008C8121FAF
:103FA00008C1002AFAD170477047002001E001C122
:103FB000121F002AFBD17047FDF7F4FDFFF700FD4B
:103FC000FEF734FEFEF7EEFDFEF7A4FDFEF7C6FD9C
:103FD000FEF7D4FEFEF77AFEFFF75EFB0648FCF71D
:103FE0002DFC0648FCF72AFC00F024F8FEF7F0FD53
:103FF00000F03AF8FEE70000280100205001002000
:1040000010B5EFF3058179B9EFF3108111B9EFF332
:10401000118119B106490968022905D0002408B1A7
:1040200000F0B0FE204610BD6FF00504FAE7000076
:1040300074000020EFF3058068B9EFF3108209499E
:10404000086812B9EFF311820AB1022803D028B12F
:104050004FF0FF3070476FF0050070470120086097
:10406000002070477400002010B5EFF3058070B990
:10407000EFF310820A49086812B9EFF311820AB10E
:10408000022804D0012805D04FF0FF3010BD6FF09A
:10409000050010BD0220086000F0DCFE002010BD0D
:1040A000740000202DE9FF414FEA01034FF00005A5
:1040B000EFF30581039599BBEFF3108111B9EFF38D
:1040C000118119B11F490968022938D040B38026EF
:1040D000182100244AB3176807B13C4697691FB1FD
:1040E00039467F1E382F02D21779FF0703D00020F0
:1040F00004B0BDE8F081576907B1BE08D2F808C026
:10410000BCF1000F0DD0D5685C2D18D312693AB1FF
:1041100037B18DE806103246214601F01CFA0390B3
:104120000DE0D7685FB912694AB903AACDE9001258
:10413000B2B2214601F0E2F9012800D003950398BC
:10414000D6E70000740000202DE9FC411C4617460C
:10415000884606464FF00005EFF3058078BBEFF385
:10416000108010B9EFF3118018B1164800680228CA
:1041700025D026B3082000F041FC03001FD0B8F181
:10418000000FC3E9006711D001220F4E00208CB14F
:10419000216801B10846A16851B1E4682C2C0ED306
:1041A000CDE90061012101F06DFB07E00022ECE7A1
:1041B000E16821B90121009601F04AFB0546284635
:1041C000BDE8FC81740000205B3D000808B5EFF3FA
:1041D0000582B2B9EFF3108212B9EFF311821AB16E
:1041E0000C4A1268022A0CD070B1002213460092C9
:1041F0000A46042101F08EFB012808D06FF002006E
:1042000008BD6FF0050008BD6FF0030008BD002079
:1042100008BD0000740000202DE9F041134C0F464A
:10422000054666692068001D00F07CFC681C07D10B
:1042300037B12168BDE8F0410D48091D00F0C2BC4E
:1042400020683544B5424560216805D2A068BDE8C4
:10425000F041091D00F09EBC6068091D00F09AFC49
:10426000206B854200D22563BDE8F0812400002048
:10427000080800202DE9F041054600F0AFFC2D4C68
:104280002069401C206120682B4F10B1E06930B3D9
:104290002BE025602069012827D1002606EB860047
:1042A00007EB800000F068FC761C382EF6D323481C
:1042B00000F062FC2148143000F05EFC1F482830FA
:1042C00000F05AFC1D483C3000F056FC1B485030B2
:1042D00000F052FC194860601430A06005E02068CE
:1042E000E96AC06A884200D82560E06A401CE06242
:1042F0006864E86AA169884200D9A06100EB800087
:1043000007EB8000291D00F05DFC00F087FCE069F0
:1043100000280CD02068E96AC06A884207D20849A0
:104320004FF080500860BFF34F8FBFF36F8FBDE831
:10433000F08100002400002058030020B80700206E
:1043400004ED00E038B500F049FC104CA068C8B995
:104350000F4800F011FC0E48143000F00DFC0C4822
:104360002060143060600A4B00202833009003F175
:10437000500210210A2000F065FEA06010B105A1D6
:1043800000F0CAFCBDE8384000F048BC60000020E6
:104390001C080020546D72510000000030B4026C03
:1043A0000B46002A0BD0C1681144C1608468A14249
:1043B00001D30168C16030BC1846FBF7A6BF30BC12
:1043C00070472DE9F041856B174604460026026CC4
:1043D00082B1C7B1E068FBF798FFE168206C091A69
:1043E000E1602268914202D2A168081AE060022FBF
:1043F00016D017E02068A8B9A06801F04FF906466A
:104400000020A0600EE06068FBF77FFF216C606811
:1044100008446060A168884204D32068606001E0BD
:1044200005B16D1E6D1CA5633046BDE8F08110B569
:10443000044690F8590058B101280CD002280FD03A
:10444000502080F31188BFF34F8FBFF36F8FFEE7CB
:10445000206B00F0F7FB2046BDE8104000F0F2BBF7
:1044600010BD000010484FF47051420706D0C01D27
:104470000D4920F00700411AC1F570510B4A002385
:104480000144C2E900030839103A21F00701116024
:104490004B600B600B1AC0E9001393604FF00040B3
:1044A0005360D06070470000EC0F002088000020AF
:1044B000144E154CA6F29C474FF08058DFF84C90F4
:1044C00012E000BF00F08AFBF068C568281D00F00C
:1044D00029FB2069401E2061E068401EE06000F07A
:1044E0009DFB2846FFF7A3FFE0680028EAD1386863
:1044F0000128F9D9C9F80080BFF34F8FBFF36F8F40
:10450000F2E70000F40700202400002004ED00E0A2
:1045100070B51D46049C51B1C4F80020C4E90F01D8
:104520000121204600F0C2FD84F84C5070BD24608B
:10453000F4E700002DE9F05F8846DDE90B941546AD
:10454000834691009A460A9EA522206BFBF7EFFE58
:104550006FF00301206B01EB8501084420F0070791
:10456000780707D0502080F31188BFF34F8FBFF337
:104570006F8FFEE70025B8F1000F0FD05FF000004D
:10458000221818F8001082F8341018F8001011B131
:10459000401C1028F4D384F8435001E084F83450D0
:1045A000382E00D33726E662C4E91365201D00F0DB
:1045B000EEFA04F1180000F0EAFA2461C6F13800BE
:1045C0006462A061656584F8585052465946384681
:1045D00000F092FA2060B9F1000F01D0C9F8004054
:1045E000BDE8F09F2DE9F0471E46DDE90894174627
:1045F0000D00804615D0002C11D0FFF7A3FE04F16A
:104600001801C4F8008081E86002201D00F0BFFAA4
:10461000002F04D014F8280F40F004002070BDE8EB
:10462000F087502080F31188BFF34F8FBFF36F8F57
:10463000FEE7000030B5114900E011460A688242E9
:10464000FBD34B685C18844203D14068184448602F
:10465000084643681C18944209D1084C103C246851
:10466000A24209D052681A4442600A681268026085
:10467000814200D0086030BD0460F9E78800002066
:1046800070B5002441600B4D0061914206D8D11AEB
:104690008269914206D2011D686807E09A4203D2FE
:1046A000994201D3012403E0011D286800F072FA49
:1046B000204670BD6000002010B5044600F08EFA60
:1046C000A06B28B15FF0000400F0A8FA204610BDEE
:1046D0000124F9E730B589B03C4D6EE0049800281C
:1046E00006DADDE90601059A90470498002864DBA4
:1046F000069C606910B1201D00F014FA03A800F0B8
:10470000D7F8024604980A2857D2DFE800F00505DA
:10471000052D334A05052D3394F8280040F001009B
:1047200084F828000599A069059B01442046FFF7FD
:10473000A7FF68B3216A2046884794F828004007FD
:104740003BD5002000900598A16900234218194626
:10475000204601F0DFF8D8B9502080F31188BFF36C
:104760004F8FBFF36F8FFEE714F8280F20F0010082
:10477000207022E094F8280040F0010084F828001E
:104780000598A06128B1811813462046FFF778FFED
:1047900013E0502080F31188BFF34F8FBFF36F8F6A
:1047A000FEE794F82800810703D4204600F04AFA77
:1047B00003E020F0010084F82800002204A9A86882
:1047C00000F0C6FD002889D109B030BD600000208E
:1047D0002DE9FC410F46054600F080FB01A800F0E2
:1047E00067F80446019818B100F0D0FFBDE8FC81DD
:1047F000254EAFB170680068D0B30027291B3A4638
:10480000B06800F09DFA00F0C1FF0028EED11F490A
:104810004FF080500860BFF34F8FBFF36F8FE5E715
:10482000A542EBD800F0B2FF30682746C068C468E4
:10483000201D00F077F994F82800410719D5A069E8
:104840002B4641193A462046FFF71AFFA8B100202F
:104850000346014600902A46204601F05BF860B905
:10486000502080F31188BFF34F8FBFF36F8FFEE7A7
:1048700007E020F0010084F82800216A20468847DC
:10488000B4E70127BAE700006000002004ED00E073
:1048900006484168096829B14168C968C96849681A
:1048A000016370474FF0FF31FAE700002400002059
:1048B00070B5054600F088FE064E04463069844215
:1048C00003D200F009F8012000E000202860204613
:1048D000346170BD60000020F8B5194D20E0C0685B
:1048E000C4680668201D00F01DF9216A204688472B
:1048F00094F82800400713D5A0693044B04206D987
:1049000024616060211D286800F044F908E000205F
:104910000346014600903246204600F0FBFF38B1C6
:10492000286801680029DAD16968C5E90010F8BD76
:10493000502080F31188BFF34F8FBFF36F8FFEE7D6
:104940006000002008484068401C4FF0500080F391
:10495000118804D0BFF34F8FBFF36F8FFEE7BFF313
:104960004F8FBFF36F8FFEE790000020074C206849
:10497000016841B1C0680021D0F80000FFF728FFAE
:10498000FFF7A8FEF3E701210020F7E76000002011
:104990002DE9F041044600F021F994F9455004F165
:1049A000240609E0606A48B1304600F0B7FE08B15D
:1049B00000F016FA6D1E6DB2002DF3DC4FF0FF36DD
:1049C00084F8456000F02AF900F008F994F94450A1
:1049D00004F1100709E0206948B1384600F09EFE56
:1049E00008B100F0FDF96D1E6DB2002DF3DC84F806
:1049F0004460BDE8F04100F011B900002DE9F0413C
:104A00000546002700F06AFA314E306808B9FFF712
:104A100029FDF06805424BD1C5B3083568070ED0B3
:104A200005F00700C0F108000544680707D05020D2
:104A300080F31188BFF34F8FBFF36F8FFEE72DB365
:104A40007068854234D82248103001460C6801E075
:104A500020460C466168A94202D221680029F7D19C
:104A600031688C4224D0076821680160606808378B
:104A7000411B10290FD96019420708D0502080F33C
:104A80001188BFF34F8FBFF36F8FFEE710E04160D7
:104A90006560FFF7CFFD61687068401A7060B268AA
:104AA000904200D2B060F06801430020C4E90001E8
:104AB00000F06CFE780707D0502080F31188BFF318
:104AC0004F8FBFF36F8FFEE73846BDE8F0810000DF
:104AD0007800002010B5040006D000F07FF8E469EB
:104AE00000F09CF8204610BD502080F31188BFF3E1
:104AF0004F8FBFF36F8FFEE710B5031F4FF0807429
:104B00001C601B1F21F001011960191F044B0B6071
:104B100014390A60091F6FF0020244380A6010BDA0
:104B200045490008D0E9013201699A60D0E90123C2
:104B30005A604A68824201D182684A60002202615A
:104B40000868401E0860086870470000034B036057
:104B500003F15C0008608020106070473409002079
:104B6000044B036003F15C0008604FF48070106038
:104B700070470000900B002000F108014FF0FF3259
:104B8000C0E90112C160016100210160704700218C
:104B90000161704730B50B685A1C02D000F1080261
:104BA00002E0026904E02246546825689D42FAD971
:104BB00053684B6099608A60516008610168491CC4
:104BC000016030BD42684A6093688B6093685960A9
:104BD000916008610168491C01607047502080F3B2
:104BE0001188BFF34F8FBFF36F8F0A494868401C8D
:104BF000486001280CD10848006810F0FF0F07D06A
:104C0000502080F31188BFF34F8FBFF36F8FFEE703
:104C1000704700009000002004ED00E0084948685B
:104C200028B1401E486001D180F3118870475020A0
:104C300080F31188BFF34F8FBFF36F8FFEE7000043
:104C40009000002070B5002827D0144DA0F1080472
:104C50006168E868014207D1502080F31188BFF3F2
:104C60004F8FBFF36F8FFEE722683AB1502080F379
:104C70001188BFF34F8FBFF36F8FFEE781436160F1
:104C800000F02CF960686968084468602046FFF706
:104C9000D1FCBDE8704000F079BD70BD7800002007
:104CA0004FF0E02000210161816105494FF47A72E3
:104CB0000968B1FBF2F1491E4161072101617047AA
:104CC0002000002010B5FBF7D9FA114910280ED3A7
:104CD00000F1E02090F8F0030A78904207D25020CB
:104CE00080F31188BFF34F8FBFF36F8FFEE7094842
:104CF0000068896800F4E060884207D9502080F39A
:104D00001188BFF34F8FBFF36F8FFEE710BD000018
:104D1000900000200CED00E010B5084B002200BF11
:104D200053F832401CB1521C082AF9D310BD43F885
:104D3000321003EBC201486010BD000018030020D0
:104D400070B515460E460446FFF748FF94F9441027
:104D50000020491C01D184F8440094F94510491CF5
:104D600001D184F84500FFF759FFA06B28B92A4606
:104D7000314604F1240000F051F82046BDE87040AF
:104D8000FFF706BE10B5020014D00F48806B38B193
:104D9000502080F31188BFF34F8FBFF36F8FFEE772
:104DA00000F09CF800211046FFF736FA00F0EEFC08
:104DB000002807D105494FF080500860BFF34F8F9E
:104DC000BFF36F8F10BD00002400002004ED00E051
:104DD00002498A6A026049694160704724000020E4
:104DE00001490120486270472400002010B50C469C
:104DF00050B1094909681831FFF7CCFE2046BDE8DB
:104E000010400121FFF708BA502080F31188BFF34A
:104E10004F8FBFF36F8FFEE72400002070B514465C
:104E20000D4668B10A4909681831FFF7CBFE0CB18D
:104E30004FF0FF3521462846BDE87040FFF7ECB93A
:104E4000502080F31188BFF34F8FBFF36F8FFEE7C1
:104E50002400002030B587B00024039405AA04A9DB
:104E600003A80494FFF772FEDDE903010094CDE985
:104E70000110002315A11748059A00F06CFB164D90
:104E8000002868631FD000F015FD012809D0401CE0
:104E900019D1502080F31188BFF34F8FBFF36F8F6C
:104EA000FEE7502080F31188BFF34F8FBFF36F8F61
:104EB0004FF0FF3028630120E8616C6107B0BDE866
:104EC000304000F045B807B030BD000049444C45C3
:104ED00000000000B1440008240000200248816B5B
:104EE000491C81637047000024000020164810B55B
:104EF000816B11B10121416210BD002141628169C4
:104F0000124A01E0B9B1491E01EB810352F8233086
:104F1000002BF7D001EB810302EB830202F10804BE
:104F200053685B685360A34201D15B685360DA68E1
:104F30000260816110BD502080F31188BFF34F8F54
:104F4000BFF36F8FFEE7000024000020580300200D
:104F50001CB537480168374A914207D1502080F389
:104F60001188BFF34F8FBFF36F8FFEE700683149A1
:104F7000491E884207D1502080F31188BFF34F8F1C
:104F8000BFF36F8FFEE72C4908780190FF2008706F
:104F900008788DF800009DF800009DF8002000F0D2
:104FA000F000904207D0502080F31188BFF34F8F5C
:104FB000BFF36F8FFEE79DF80000204B00F050001C
:104FC00018700720986005E09DF8002052008DF8C9
:104FD0000020401E9DF800201206F5D4986003289A
:104FE00007D0502080F31188BFF34F8FBFF36F8F2E
:104FF000FEE74FF440709860019808700C4820302C
:10500000016841F470010160016841F07041016084
:10501000FFF746FE00205860FBF7F8F808480168E3
:1050200041F040410160FBF7DDF800201CBD0000AD
:1050300000ED00E071C20F4100E400E090000020AC
:1050400034EF00E038B5049D18B153B1CAB181B155
:1050500020E0502080F31188BFF34F8FBFF36F8F94
:10506000FEE7502080F31188BFF34F8FBFF36F8F9F
:10507000FEE7502080F31188BFF34F8FBFF36F8F8F
:10508000FEE739B1502080F31188BFF34F8FBFF393
:105090006F8FFEE750241C46012384F846302B46D0
:1050A0000094FFF735FA204638BD000070B50D4674
:1050B000040025D0FFF792FDD4E90F20216802FB00
:1050C0000011A1600021A163216861600A46D4E952
:1050D0000F01401E00FB0121E16021464FF0FF302F
:1050E00001F8440F487004F110008DB1FFF744FD42
:1050F00004F12400FFF740FDFFF790FD012070BD93
:10510000502080F31188BFF34F8FBFF36F8FFEE7FE
:1051100021690029F0D000F001FB0028ECD00449FF
:105120004FF080500860BFF34F8FBFF36F8FE3E7FE
:1051300004ED00E02DE9FF4782B01D468A464FF09E
:105140000008040003D0BAF1000F08D011E050208D
:1051500080F31188BFF34F8FBFF36F8FFEE7206C92
:1051600038B1502080F31188BFF34F8FBFF36F8F9A
:10517000FEE7022D0AD1E06B012807D0502080F312
:105180001188BFF34F8FBFF36F8FFEE700F00EFA69
:105190003F4F4FF000094FF0805648B9049838B19E
:1051A000502080F31188BFF34F8FBFF36F8FFEE75E
:1051B000FFF714FDA06BE16B884207D3022D05D0E9
:1051C0000498D0B1B8F1000F1AD01EE02A4651461B
:1051D0002046FFF7F6F8616A19B104F1240000F0E7
:1051E0009DFA20B13E60BFF34F8FBFF36F8FFFF783
:1051F00015FD012006B0BDE8F087FFF70FFD22E0A6
:105200006846FFF7E5FD4FF00108FFF707FDFFF7E0
:1052100065FEFFF7E3FC94F94400401C01D184F8DB
:10522000449094F94500401C01D184F84590FFF763
:10523000F5FC04A9684600F027F930B12046FFF7D5
:10524000A7FB00F0A3FA0020D4E7FFF7C7FCA06B90
:10525000E16B884213D1FFF7E1FC04F110000499DF
:10526000FFF7C4FD2046FFF793FB00F08FFA0028FC
:105270009ED13E60BFF34F8FBFF36F8F98E7FFF76C
:10528000CDFC2046FFF784FB00F080FA90E7000099
:1052900004ED00E02DE9F0471F46904689460400E2
:1052A00003D0B9F1000F08D011E0502080F311882D
:1052B000BFF34F8FBFF36F8FFEE7206C38B15020E4
:1052C00080F31188BFF34F8FBFF36F8FFEE7022F7C
:1052D0000AD1E06B012807D0502080F31188BFF37A
:1052E0004F8FBFF36F8FFEE7FFF7ECFC5020EFF31B
:1052F000118680F31188BFF34F8FBFF36F8FA06BC0
:10530000E16B884206D3022F04D0002086F3118877
:10531000BDE8F08794F945503A4649462046FFF7E4
:1053200050F8681C04D06D1C84F845500120EDE74E
:10533000606A0028FAD004F1240000F0EFF9002898
:10534000F4D0B8F1000FF1D00121C8F80010EDE75A
:105350002DE9F747002683B08A46040003D0BAF14E
:10536000000F08D011E0502080F31188BFF34F8F59
:10537000BFF36F8FFEE7206C38B1502080F31188A7
:10538000BFF34F8FBFF36F8FFEE700F00FF9DFF829
:10539000F4804FF000094FF0805748B9059838B1B4
:1053A000502080F31188BFF34F8FBFF36F8FFEE75C
:1053B000FFF714FCA56BC5B151462046FEF7EEFF82
:1053C0006D1EA563206950B104F1100000F0A6F92C
:1053D00028B1C8F80070BFF34F8FBFF36F8FFFF78E
:1053E0001DFC012006B0BDE8F087059808B11EB18C
:1053F00006E0FFF713FC27E06846FFF7E9FC01260B
:10540000FFF70CFCFFF76AFDFFF7E8FB94F9440097
:10541000401C01D184F8449094F94500401C01D10E
:1054200084F84590FFF7FAFB05A9684600F02CF8D0
:10543000002820460AD0FFF7ABFA00F0A7F9204673
:10544000FFF73AF90028B3D00020CBE7FFF734F993
:1054500090B104F124000599FFF7C8FC2046FFF73E
:1054600097FA00F093F90028A2D1C8F80070BFF3B2
:105470004F8FBFF36F8F9BE72046FFF789FA00F04D
:1054800085F995E704ED00E02DE9F0410C460500B3
:1054900011D0C4B1FFF7A2FB174B5A696E682068A0
:1054A000911B471C17D02F689B6A9F4219D09642C8
:1054B00017D8012410E0502080F31188BFF34F8FDC
:1054C000BFF36F8FFEE7502080F31188BFF34F8F3B
:1054D000BFF36F8FFEE70024FFF7A0FB2046BDE877
:1054E000F081884205D9401A20602846FFF770FCF9
:1054F000F1E700202060DCE7240000202DE9FF5FB9
:105500008346DDE90E87994616468A469000FFF7E6
:1055100075FA05001CD05C20FFF770FA040014D067
:105520000020256384F85900CDE90240CDE90087C9
:105530004B46324651465846FEF7FCFF2046FEF7E2
:1055400099FE012004B0BDE8F09F2846FFF77AFBE2
:105550004FF0FF30F6E7F0B585B0DDE90B640A9D4A
:10556000A6B1DCB15C2700972663022684F8596057
:10557000002604AFCDE90246CDE90057FEF7DAFF79
:105580002046FEF777FE049805B0F0BD502080F36A
:105590001188BFF34F8FBFF36F8FFEE7502080F36A
:1055A0001188BFF34F8FBFF36F8FFEE70548C169C6
:1055B00019B1806B18B1002070470120704702209C
:1055C0007047000024000020014840697047000037
:1055D000240000202DE9F0412E4C0027A06B40B1A3
:1055E000206A401C2062606A00B101273846BDE88D
:1055F000F0816669761C666113D16068006838B115
:10560000502080F31188BFF34F8FBFF36F8FFEE7F9
:105610006068A1686160A060A06A401CA062FFF79A
:1056200037F9206BDFF87080864209D36068006824
:1056300080B16068C068C568686886420DD2206322
:105640002068C06A00EB800158F821000128CAD9FF
:105650000127C8E74FF0FF30F1E7281DFFF762FA96
:10566000A86A18B105F11800FFF75CFAE86AA169A9
:10567000884200D9A06100EB800108EB8100291D60
:10568000FFF7A0FAE86A2168C96A8842CED30127E9
:10569000CCE70000240000205803002070B504006F
:1056A0004FF0000133D01B4D2868844207D05020B2
:1056B00080F31188BFF34F8FBFF36F8FFEE7206D2C
:1056C00038B1401E2065E36CE26A9A421FD040B1B7
:1056D0001DE0502080F31188BFF34F8FBFF36F8F11
:1056E000FEE7201DFFF71EFAE06CE062C0F1380013
:1056F000A061E06AA969884200D9A861064900EB67
:10570000800001EB8000211DFFF75CFA01210846B3
:1057100070BD0000240000205803002070B5C06850
:10572000C46854B104F118000646FFF7FBF9144DA4
:10573000A86B50B13146134815E0502080F3118812
:10574000BFF34F8FBFF36F8FFEE7201DFFF7EAF91E
:10575000E06AA969884200D9A8610B4900EB800082
:1057600001EB8000211DFFF72DFAE06A2968C96A64
:10577000884202D90120686270BD002070BD00001F
:1057800024000020E0070020580300202DE9F04706
:105790002C4D00242746A86B38B1FFF71FFAA86BE1
:1057A000401EA863A86B40B146E0502080F31188EA
:1057B000BFF34F8FBFF36F8FFEE72969224E0120A1
:1057C000D1B3A6F5916980463068E0B1F068C4684D
:1057D00004F11800FFF7A6F9201DFFF7A3F9E06A0E
:1057E000A969884200D9A86100EB800109EB81001A
:1057F000211DFFF7E7F9E06A2968C96A8842E3D307
:10580000C5F82480E0E70CB1FFF742F82C6A4CB1F0
:105810004FEA0806FFF7DEFE00B16E62641EF9D1A2
:1058200000202862686A38B10849012738070860F3
:10583000BFF34F8FBFF36F8FFFF7F0F93846BDE826
:10584000F087000024000020E007002004ED00E0C5
:105850002DE9FC4781461E46174688462C200A9DA6
:10586000FFF7CCF804000AD0002084F82800CDE926
:10587000005433463A4641464846FEF7B3FE2046BA
:10588000BDE8FC877CB52C26DDE90654009644B1C2
:10589000022684F82860CDE90054FEF7A3FE2046D6
:1058A0007CBD502080F31188BFF34F8FBFF36F8F03
:1058B000FEE7000010B586B0FEF744FD114CA0686D
:1058C000B8B100200390049005AA04A903A8FFF72B
:1058D00047F9DDE9032102208DE8070000230AA132
:1058E0000B48059AFFF737FEE06010B106B00120C3
:1058F00010BD502080F31188BFF34F8FBFF36F8F1F
:10590000FEE7000060000020546D722053766300B3
:105910006D4900082DE9FF411E46134602000A9D0D
:105920004FF0000016D0144CA768002F0FD0CDE91F
:1059300000130292062917DAFFF738FE02284FF00B
:1059400000030FD000226946A068FFF7F3FB04B004
:10595000BDE8F081502080F31188BFF34F8FBFF373
:105960006F8FFEE72A46EEE7002332466946384647
:10597000FFF790FCEBE7000060000020345A0008BD
:105980000000000000000000000000000000000017
:1059900000020000180000000000000000000000ED
:1059A000245A000800000000000000000000000071
:1059B00000000000000200000800000000000000DD
:1059C00000000000185A000800000000000000005D
:1059D00000000000000000000002000008000000BD
:1059E0000000000000000000405A00080000000015
:1059F000000000000000000000061016000610164F
:105A0000000000000000000001020304060708096E
:105A1000000000000102030455736572436D645475
:105A200061736B00506F736974696F6E5461736B4F
:105A30000000000053686F6F745461736B000000C6
:105A40005375706572766973655F54696D65720030
:105A5000705A000800000020280100009A3F00084A
:105A6000985B000828010020385E0000AA3F00086B
:105A70000000000000000000000000000000000026
:105A80000000000001000000100000000000000005
:105A90000024F400000000000000000000000000EE
:105AA00000000000000000000000000000000000F6
:105AB00000000000000000000000000000000000E6
:105AC00000000000000000000000000000000000D6
:105AD00000000000000000000000000000000000C6
