:020000040800F2
:1000000000600020810200089D3200081D2E0008BB
:10001000213200082D0700080545000800000000F7
:10002000000000000000000000000000C101000806
:10003000990E0008000000001D020008F33D0008B2
:100040009B0200089B0200089B0200089B0200081C
:100050009B0200089B0200089B0200089B0200080C
:100060009B0200089B0200089B0200089B020008FC
:100070009B0200089B0200089B0200089B020008EC
:100080009B0200089B0200089B0200089B020008DC
:10009000310700089B0200089B0200089B02000831
:1000A0009B0200089B0200089B0200089B020008BC
:1000B0009B0200089B0200089B0200089B020008AC
:1000C0009B0200089B0200089B0200089B0200089C
:1000D0009B020008ED4400089B0200089B020008F8
:1000E0009B0200089B0200089B0200089B0200087C
:1000F0009B020008BD3E00089B0200089B0200080E
:100100009B0200089B0200089B0200089B0200085B
:100110009B0200089B0200089B0200089B0200084B
:100120009B020008090A0008150A00089B02000843
:100130009B0200089B0200089B0200089B0200082B
:100140003D0700089B0200089B0200089B02000874
:100150009B020008210A00089B020008F9440008DD
:100160009B0200089B0200089B0200089B020008FB
:100170009B0200089B0200089B0200080000000090
:100180009B0200089B0200089B0200089B020008DB
:100190009B0200089B0200089B0200089B020008CB
:1001A00000000000000000009B020008DFF80CD0F7
:1001B00000F032FA0048004759450008006000206E
:1001C0002C4B19680868B0E8F04F80F30988BFF33A
:1001D0006F8F4FF0000080F311887047000000001F
:1001E00008480068006880F308884FF0000080F33A
:1001F000148862B661B6BFF34F8FBFF36F8F00DF15
:1002000000BF00BF08ED00E0DFF80C00016841F41A
:1002100070010160704700BF88ED00E0EFF30980D6
:10022000BFF36F8F134B1A681EF0100F08BF20ED3D
:10023000108A20E9F04F106009B44FF0500080F3AD
:100240001188BFF34F8FBFF36F8F05F0F1F84FF0B8
:10025000000080F3118809BC19680868B0E8F04F05
:100260001EF0100F08BFB0EC108A80F30988BFF3AE
:100270006F8F704724000020EFF305807047000067
:100280000648804706480047FEE7FEE7FEE7FEE730
:10029000FEE7FEE7FEE7FEE7FEE7FEE7A13E000819
:1002A000AD0100082DE9F05F0546002092469B460F
:1002B00088460646814640241BE02846414647467C
:1002C000224600F005F953465A46C01A914110D310
:1002D00011461846224600F0ECF82D1A67EB01088B
:1002E0004F4622460120002100F0E3F817EB0009F9
:1002F0004E41201EA4F10104DFDC484631462A4667
:100300004346BDE8F09F40EA01039B0703D009E0A4
:1003100008C9121F08C0042AFAD203E011F8013BF1
:1003200000F8013B521EF9D27047D2B201E000F84A
:10033000012B491EFBD270470022F6E710B5134689
:100340000A4604461946FFF7F0FF204610BD2DE986
:10035000FE4F81EA030404F0004421F000410094C0
:100360004FF0000B23F0004350EA01045ED052EA44
:1003700003045BD0C3F30A54C1F30A552C44A4F21E
:10038000F3340194A0FB0254C1F3130141F4801132
:10039000C3F3130343F4801301FB024400FB034E39
:1003A000840A970A44EA815447EA8357A4FB076802
:1003B00002958D0A05FB07854FEA932C04FB0C542C
:1003C0002705029D4FEA065847EA1637B5EB0805A0
:1003D0006EEB070C870E920E47EA811742EA8312F2
:1003E000A7FB0201B6EB0B0164EB00042B0D43EA03
:1003F0000C335E1844EB1C50DA465146E7FB020111
:10040000C5F313044FEA0B3343EA14534FEA0432A3
:10041000019C43EA0603A4F10C040294009CCDE97C
:1004200000B400F0ABF803B0BDE8F08F0020014647
:10043000F9E70EB5C10F80EAE0700844CA07002151
:1004400040F233438DE80E000A460B4600F096F862
:1004500003B000BD00F0004230F000400AD0C10DF2
:1004600001F56071C0F3160042EA0151C20840076D
:100470001143704700200146704701F0004330B43B
:1004800021F0004150EA010206D00A0DA2F5607287
:10049000C1F31301002A02DC30BC00207047440F76
:1004A00044EAC104C100E01830BC00EBC25000F0C7
:1004B0001FB8202A04DB203A00FA02F1002070471E
:1004C0009140C2F1200320FA03F319439040704792
:1004D000202A04DB203A21FA02F00021704721FA99
:1004E00002F3D040C2F12002914008431946704700
:1004F0000029A8BF7047401C490008BF20F0010038
:10050000704710B4B0FA80FC00FA0CF050EA010415
:1005100004BF10BC704749B1CCF1200421FA04F4A7
:1005200011FA0CF118BF012121430843A3EB0C0180
:10053000CB1D4FEA00614FEA102042BF002010BCE3
:10054000704700EBC35010440029A4BF10BC704793
:10055000401C490008BF20F0010010BC704710B5D6
:10056000141E73F1000408DA401C41F100019218D6
:100570005B411A4301D120F0010010BD2DE9F04D7F
:1005800092469B4611B1B1FA81F202E0B0FA80F2D4
:1005900020329046FFF78DFF04460F4640EA0A00DE
:1005A00041EA0B0153465A46084313D0114653EA19
:1005B000010019D0C8F140025046FFF789FF0546F7
:1005C0000E46504659464246FFF773FF084305D092
:1005D000012004E020463946BDE8F08D00200543A7
:1005E00046EAE0762C4337430A986305E40AA0EB19
:1005F00008000022FD0A44EA47540A3002D50020D0
:100600000146E9E7010510196941DDE908450019CE
:100610006941BDE8F04DA2E7064C074D06E0E068F1
:1006200040F0010394E8070098471034AC42F6D339
:10063000FFF7C0FDC45F0008E45F000870B58C18C8
:1006400010F8015B15F0070301D110F8013B2A11E6
:1006500006D110F8012B03E010F8016B01F8016BD3
:100660005B1EF9D12B0705D40023521E0DD401F8CF
:10067000013BFAE710F8013BCB1A921C03E013F898
:10068000015B01F8015B521EF9D5A142D8D30020CD
:1006900070BD000010B50821094802F01DF9094994
:1006A00042F20F700860084C01221146204601F00A
:1006B000D1FA20460022BDE81040022101F0CABA5A
:1006C000800100203C0C00400014024070B5144C26
:1006D000606890B1E068A0B160690125A8B11149D6
:1006E000114A0020087115608A6B521E8A6360608F
:1006F000E0606061E061012070BD00F067F960605A
:100700000CE002F0A7FBE06008E0E06918B90A20FD
:1007100003F048FFE56102F089FF6061002070BDD1
:1007200008010020C05B00202C010020FEE7000033
:10073000014800F026BD000030010020014800F013
:1007400020BD00005801002010B5A0F201200C4689
:10075000092839D2DFE800F0050B11171D232938CD
:100760002F00022002F0CAFB2146184828E003208F
:1007700002F0C4FB2146164822E0042002F0BEFB32
:10078000214614481CE0052002F0B8FB214612481F
:1007900016E0062002F0B2FB2146104810E00720C8
:1007A00002F0ACFB21460E480AE0082002F0A6FB4E
:1007B00021460C4804E0092002F0A0FB0A4821462B
:1007C000BDE8104002F02DBD10BD00008C4C002093
:1007D000744D00205C4E0020444F00202C5000201F
:1007E00014510020FC510020E452002010B5A0F26A
:1007F00001200C46092839D2DFE800F0050B11175B
:100800001D2329382F00022002F078FB21461848CA
:1008100028E0032002F072FB2146164822E0042063
:1008200002F06CFB214614481CE0052002F066FB38
:100830002146124816E0062002F060FB21461048CF
:1008400010E0072002F05AFB21460E480AE008207B
:1008500002F054FB21460C4804E0092002F04EFB54
:100860000A482146BDE8104002F0DBBC10BD000084
:10087000CC530020B45400209C5500208456002006
:100880006C570020545800203C590020245A002066
:100890002DE9F043DFF8B48000258BB006464045D3
:1008A00000D10595DFF8A8900E274E4500D1059799
:1008B00044F22000009044F24000019044F2A00075
:1008C0000290012444F2C000CDE90645CDE90305BC
:1008D000CDE908476946304600F058FB08B100F002
:1008E000DCFA464500D105944E4501D10F20059014
:1008F00044F2600000904FF4814001904FF480304A
:100900000290CDE90645CDE90304CDE908476946E3
:10091000304600F03BFB08B100F0BFFA304600F073
:1009200083FE08B100F0B9FA0221304600F0B7FAB0
:1009300008B100F0B2FA1021304600F0B0FA08B168
:1009400000F0ABFA0BB00020BDE8F08330010020CE
:10095000580100203EB50D0A8DF800508DF80110A9
:10096000110A8DF80210069C190A8DF804108DF8F2
:100970000530210A8DF806108DF803208DF8074008
:1009800002AB6A46014900F09CFA3EBDB40000206B
:100990003EB50D0A8DF800508DF80110110A8DF842
:1009A0000210069C190A8DF804108DF80530210AF2
:1009B0008DF806108DF803208DF8074002AB6A46CB
:1009C000014900F07EFA3EBDCC0000200C48816B4E
:1009D0000C48012910D002290BD0032904D0042986
:1009E00005D140F23A2101E040F2BF41016001200F
:1009F000704740F23A71F9E740F6C411F6E700009B
:100A0000C05B0020400C0040014800F099BE00008F
:100A1000B0020020014800F093BE00005002002008
:100A2000014800F08DBE000010030020016818236B
:100A3000CAB2103AB2FBF3F2054B6FF30901032A75
:100A40009B5CC36500D9091D81650846704700009D
:100A50006C5F000810B5014600208B698A6A4FF070
:100A6000C07453B1B3F5005F15D072B1012A0CD038
:100A7000022A0AD0032A09D104E01AB1012A06D0B9
:100A8000022A03D1C96AC90100D5012010BDC96A73
:100A9000A142FAD010BD002AF7D0012AF2D0022AD2
:100AA000F3D0032AF3D010BD30B50468256825F4CF
:100AB00080252560046863608368402B036803D049
:100AC00099600068C26030BD9A600068C16030BD46
:100AD00010B52DED068B9FED8B0A8B4880ED070A34
:100AE0009FED8A8A042180ED038A8163E82188488A
:100AF000FFF722FCE8218748FFF71EFCE821864823
:100B0000FFF71AFCE8218548FFF716FCE821844826
:100B1000FFF712FCE8218348FFF70EFCE82182482A
:100B2000FFF70AFCE8218148FFF706FCE82180482E
:100B3000FFF702FCF0EE484AB0EE484AF0EE483AC1
:100B4000B0EE483AF0EE482ADFED7A9AB0EE692A24
:100B5000DFED798AB0EE481AF0EE681A9FED779AC9
:100B6000F0EE490A9FED76AA6948B0EE4A0A02F013
:100B700080FBF0EE484AB0EE484AF0EE483AB0EE5C
:100B8000483AF0EE482AB0EE692AF0EE681AB0EE64
:100B9000481AF0EE490AB0EE4A0A5E4802F069FBD4
:100BA000F0EE484AB0EE484AF0EE483AB0EE483A25
:100BB000F0EE482AB0EE692AF0EE681AB0EE481A54
:100BC000F0EE490AB0EE4A0A534802F052FBF0EE4A
:100BD000484AB0EE484AF0EE483AB0EE483AF0EEF5
:100BE000482AB0EE692AF0EE681AB0EE481AF0EE24
:100BF000490AB0EE4A0A494802F03BFBF0EE484A87
:100C0000B0EE484AF0EE483AB0EE483AF0EE482AE4
:100C1000B0EE692AF0EE681AB0EE481AF0EE490A12
:100C2000B0EE4A0A3E4802F024FBF0EE484AB0EE2D
:100C3000484AF0EE483AB0EE483AF0EE482AB0EEB4
:100C4000692AF0EE681AB0EE481AF0EE490AB0EEE2
:100C50004A0A344802F00DFBDFED3A9AF0EE484ABA
:100C6000B0EE484AF0EE483AB0EE483AF0EE482A84
:100C7000B0EE692AF0EE481AB0EE481AF0EE480AD3
:100C8000B3EE040A284802F0F4FAF0EE684AB0EE37
:100C9000684AF0EE483AB0EE483AF0EE492AB0EE33
:100CA000692AF0EE481AB0EE481AF0EE480AB1EEA2
:100CB000040A1E4802F0DDFADFED234AB0EE684A6E
:100CC000F0EE483AB0EE483ADFED202A9FED202AB8
:100CD000DFED201AB0EE481AF0EE480AB1EE040A31
:100CE000134802F0C6FA0C211B4801F0F5FD1B4920
:100CF00040F6C4100860BDEC068BBDE81040FFF75D
:100D0000C9BC000000003644C05B002000000000A9
:100D10002C500020145100205C4E0020444F002035
:100D20008C4C0020744D0020CC530020B454002083
:100D30009C55002000409C4600409C45CDCCCC3DBD
:100D4000000048420000FA4500401C46CDCCCC3E95
:100D500000007A460000004580010020400C004061
:100D60002DE9F0413E4CDFF8FC802078607021696D
:100D700011B9B8F9001021613B4E616911B9B6F99A
:100D80000010616118B99FED390A84ED060A384DEB
:100D9000002795F86C0018B1012002F041F8E8B185
:100DA00035489FED340A277080ED0F0A334880EDF7
:100DB0000F0A334880ED0F0A324880ED0F0A32489F
:100DC00080ED0F0A314880ED0F0A314880ED0F0A9F
:100DD00086ED0F0A88ED0F0ABDE8F08195F86C20CA
:100DE00002210120012A02D0022A02D002E0207052
:100DF00000E0217095F90A20012A0DD0032A0DD0B8
:100E0000A1702078012824D00228E5D102F084FEC8
:100E1000BDE8F04102F0B7BAA770F2E7A070B5F9EB
:100E2000022040F29461B5F904504FF480638A4285
:100E300003D19D4203D1607102E09D4200D06771F1
:100E4000144B1D68012DDCD18A42DAD120711F605C
:100E5000D7E702F063FEBDE8F04102F095BA00006A
:100E6000C05B00209C550020B45400200000364494
:100E7000205B0020000000002C50002014510020B6
:100E80005C4E0020444F00208C4C0020744D00200C
:100E9000CC5300202C010020704772B6FEE790F87A
:100EA0002020012A07D0022A05D0416A41F480217E
:100EB000416201207047006842690A434261002094
:100EC0007047F0B590F820500468A468012D05D053
:100ED000022D03D0416A41F4802153E014F0406FA9
:100EE00001D1E5004BD5C4F30164022C03D9416A5A
:100EF00041F4000146E00125A5401D608D684FF4D6
:100F0000C0739DB1CE6835434E6845EAC605066894
:100F100003EB0417F5514FF4C275076805EB041590
:100F20000E697E51097D012905D009E00E88CD6842
:100F300045EA4655EBE701684E5946F480764E5136
:100F40001179D2F805504FF4C67641EA05250168BB
:100F500006EB04168D511178D2F801204FF4C475B8
:100F600041EA0221026805EB04155151006803EBC8
:100F70000411425842F0010242500020F0BD416A83
:100F800041F4001141620120F0BD000010B590F85D
:100F90002020012A07D0022A05D0416A41F480218D
:100FA0004162012010BD3B48D0F8002242F001020E
:100FB000C0F80022D0F8002222F47C52C0F80022AF
:100FC000D0F800224B6A42EA0322C0F800220A7DD0
:100FD00002F01F0301229A40D0F81C329343C0F85C
:100FE0001C32CB69B3B9D0F80C329343C0F80C3241
:100FF0008C894B6864F31F434C6900EBC404C4F84C
:1010000040320C890B6864F31F434C6900EBC40445
:10101000C4F84432CB69012B16D1D0F80C321343FB
:10102000C0F80C320C884B6864F31F434C6900EB2A
:10103000C404C4F840320C89CB6864F31F434C6984
:1010400000EBC404C4F844328B69002BD0F804329E
:101050000ED01343C0F804320B69002BD0F81432C1
:1010600008D01343C0F81432096A012904D008E0FB
:101070009343EFE79343F5E7D0F81C121143C0F810
:101080001C12D0F8001221F00101C0F8001200205B
:1010900010BD000000640040704730B590F820405B
:1010A000012C05D0022C03D0416A41F480215DE07F
:1010B0000468002955D02469A40754D04FF4D8748B
:1010C000056804EB01142D5915F0040595600568B9
:1010D0002D594ED0ED08556005682C5904F00204D6
:1010E000D4604FF4DA74056804EB01142D5905F04F
:1010F0000F05156105682D59C5F30725956105682C
:101100002C59240C54614FF4DC72046802EB011278
:10111000A4581C700468A458240A5C700468A4587D
:10112000240C9C700468A258120EDA704FF4DE7220
:10113000046802EB0112A4581C710468A458240A24
:101140005C710468A458240C9C710468A258120EA7
:10115000DA71006881B1016941F02001016100206C
:1011600030BDE468A8E7416A41F400114162012002
:1011700030BD6D0D1560AFE7C16841F02001C16061
:10118000EDE72DE9F05F0546006800244669D0F8D8
:1011900004908768D0F80CB0D0F810A0D0F8188070
:1011A000F10748D0F90714D001218160B80703D5B1
:1011B000284600F066FA0CE0780702D54FF4006488
:1011C00007E0380702D54FF4805402E0284600F0CB
:1011D00057FAF80516D529684FF480708860B8056D
:1011E00003D5284600F04FFA0CE0780502D544F408
:1011F000005407E0380502D544F4804402E0284654
:1012000000F040FAF80316D529684FF48030886062
:10121000B80303D5284600F038FA0CE0780302D56D
:1012200044F4004407E0380302D544F4803402E07B
:10123000284600F029FA300707D55FEACB6004D5CD
:101240002968102044F40074C86070074FF0080744
:1012500007D55FEA0B7004D52868C760284600F000
:1012600099F9B00706D52868C068800702D02846DB
:1012700000F092F9700607D55FEACA6004D52968C4
:10128000102044F480640861B00607D55FEA0A7054
:1012900004D528680761284600F0A0F9F00606D5B5
:1012A00028680069800702D0284600F099F9B00349
:1012B00008D55FEAC96005D529681020486028462E
:1012C00000F0B0F9F00307D55FEA097004D528688B
:1012D0004760284600F0DAF9300446D55FEA4970E5
:1012E00040D5F00504D55FEAC87001D044F0010490
:1012F000B00504D55FEA887001D544F0020470059A
:1013000004D55FEA487001D544F00404300529D5BE
:1013100018F0700F26D008F07000402815D006DCB9
:10132000102809D020280AD0302816D10AE05028E9
:101330000ED0602811D10EE044F008040DE044F016
:1013400010040AE044F0200407E044F0400404E004
:1013500044F0800401E044F480742868816921F03D
:1013600070018161296804204860002C05D0686AFA
:10137000204368622846FFF78FFEBDE8F09F70B5F6
:10138000040003D094F8200010B104E0012070BDE7
:10139000204600F081F82068016821F00201016018
:1013A00000F05EFC0546052604E000F059FC401BF9
:1013B0000A2811D8206840688007F6D420680168A0
:1013C00041F00101016000F04BFC05460BE000F02C
:1013D00047FC401B0A2806D9606A40F4003060626E
:1013E00084F82060D2E720684068C007EFD0207EF4
:1013F0000128206801683DD021F080010160607EF5
:1014000001282068016838D021F040010160A07EE9
:1014100001282068016833D021F020010160E07EBE
:101420000128206801682ED041F010010160207F62
:1014300001282068016829D021F008010160607F3F
:1014400001282068016824D021F004010160D4E95A
:1014500002010843D4E90412114308436168491E9C
:1014600008432168C86100206062012084F82000E0
:10147000002070BD41F08001C0E741F04001C5E7A8
:1014800041F02001CAE721F01001CFE741F0080147
:10149000D4E741F00401D9E7F0B587B00446142140
:1014A0006846FEF749FF364B3648DFF8D0E019684A
:1014B000D4F800C0334A032502260927103000243F
:1014C000491CF44522D11960012907D1016841F076
:1014D00000710160006800F000700590106840F035
:1014E000080010601068CDE9005600F00800CDE952
:1014F000047069462448CDE9024500F093FA0022C1
:101500000521142000F038FC142033E0DFF87CE0E3
:10151000F44531D1D0F800C04CF0806CC0F800C068
:10152000D0F800C001290CF0806CCDF814C019600F
:1015300007D1016841F000710160006800F000709F
:101540000590106840F002001060106802AB00F0D7
:10155000020005904FF44050CDE9000683E8B0004A
:1015600069460B4800F05EFA00220521402000F099
:1015700003FC402000F0F2FB07B0F0BD0064004027
:101580001000002030380240000C0240006800408B
:10159000000402407047000010B588B004460C4BB0
:1015A0006A460021FFF779FD08B1FFF776FC09488C
:1015B000844205D106490098FFF7C6F808B010BD6F
:1015C00005488442FAD102490098FFF70FF9F5E780
:1015D000A4000020300100205801002070470000C6
:1015E00010B588B004460C4B6A460121FFF755FD43
:1015F00008B1FFF752FC0948844205D1064900981A
:10160000FFF7A2F808B010BD05488442FAD102499C
:101610000098FFF7EBF8F5E7AC0000203001002060
:10162000580100207047000070B5044690F8200073
:10163000012804D0606A40F40020606218E00220B3
:1016400084F820002068016821F00101016000F0A9
:1016500007FB05460EE000BF00F002FB401B0A2816
:1016600008D9606A40F400306062052084F82000E8
:10167000012070BD20684068C007EDD1606270BD78
:1016800070477047704770477047704770472DE943
:10169000F0410446876D00F0E3FA064694F8350001
:1016A0000025022806D08020606584F8345001208F
:1016B000BDE8F0812068016821F016010160206812
:1016C000416921F080014161206C08B9A06C20B112
:1016D0002068016821F0080101602068016821F09C
:1016E000010101600BE000F0BBFA801B052806D960
:1016F0002020606504F8345F03206070D8E720681C
:101700000068C007EFD194F85C103F208840B860B3
:1017100004F8345F012060700020C9E790F83510AC
:10172000022903D08021416501207047052180F8FE
:1017300035100068016821F0010101600020704748
:101740002DE9F84304464FF00009CDF800906348B6
:101750004FF41651A56D0068B0FBF1F72E6894F8B0
:101760005C10082000FA01F131420FD021680A68AC
:1017700052070BD50A6822F004020A6094F85C1044
:101780008840A860606D40F00100606594F85C10CE
:101790004FF0010808FA01F0304208D02168496989
:1017A000090604D5A860606D40F00200606594F8F9
:1017B0005C1004208840304208D0216809688907FD
:1017C00004D5A860606D40F00400606594F85C107A
:1017D00010208840304218D021680968090714D5C4
:1017E000A86020680168490304D50068000308D593
:1017F000A16C07E00168C90503D4016821F0080164
:101800000160216C09B12046884794F85C102020C3
:101810008840304231D021680968C9062DD5A860BA
:1018200094F8350005282068016806D0490347D59B
:10183000006800031DD4616C1CE021F016010160FA
:101840002068416921F080014161206C08B9A06CD9
:1018500020B12068016821F00801016094F85C1053
:101860003F208840A86084F8349084F83580216D4A
:101870001FE0E16B09B120468847606D00282BD03E
:10188000606DC00714D0052084F835002068016819
:1018900021F0010101600098401C0090B84203D87B
:1018A00020680068C007F6D184F8349084F8358049
:1018B000E16C002910D001B02046BDE8F043084794
:1018C0000168C905D5D4016821F01001016084F8D0
:1018D000349084F83580CCE7BDE8F8832000002000
:1018E0002DE9F041044600F0BBF906465CB1002545
:1018F00084F83450022084F835002068016821F013
:10190000010101600DE00120BDE8F08100F0A8F9BF
:10191000801B052805D920206065032084F8350048
:10192000F2E720680068C007F0D1226811682048FB
:101930000140D4E901031843D4E903363343184383
:1019400063691843A3691843E3691843236A18437A
:101950000843616A042903D1D4E90B1319430843EE
:10196000106020684069666A20F0070130460E4327
:10197000012704280CD1A06A0643E06A40B1204642
:10198000FFF768F820B14020606584F83570BAE749
:10199000206846612046FFF749F894F85C203F2113
:1019A00091408160656584F835700020ACE70000E7
:1019B0003F8010F02DE9F0410446866D90F8340028
:1019C000002501280DD0012084F8340094F83570EA
:1019D0000020012F07D084F8340002252846BDE8F6
:1019E000F0810220FBE7022784F83570606520460D
:1019F000FFF75AF894F85C103F208840B0602068E8
:101A0000016841F016010160206C20B12068016876
:101A100041F0080101602068016841F001010160A6
:101A2000DCE700002DE9F84FDFF8F4A100220124E3
:101A30000AF1040B03254FF00F090BF1040E00BF50
:101A40000B6804FA02F63340B3426FD10F7907F006
:101A50000307012F01D0022F16D187684FEA4208F1
:101A600005FA08FC27EA0C07D1F80CC00CFA08FCB0
:101A70004CEA070CC0F808C04768B7430E79C6F3B4
:101A8000001696403E4346600E79F643B6070AD0EC
:101A9000C7684FEA420C05FA0CF6B7438E6806FA9F
:101AA0000CF63E43C6600E7906F00306022E10D1F6
:101AB000D60800EB8608D8F8206057074FEAD76CA5
:101AC00009FA0CF7BE430F6907FA0CF73743C8F859
:101AD000207006684FEA420C05FA0CF7BE430F79F6
:101AE00007F0030707FA0CF7374307604E68F60064
:101AF0001CD54C4E376847F480473760366822F073
:101B0000030706F480460096474E07EB060CDCF808
:101B1000086897073F0F09FA07F826EA0806DFF872
:101B20000C81404503D14FF0000841E072E0DFF83E
:101B30000081404502D14FF0010839E0DFF8F48020
:101B4000404502D14FF0020832E0DFF8EC8040451A
:101B500002D14FF003082BE0DFF8E080404502D1CE
:101B60004FF0040824E0DFF8D880404502D14FF060
:101B700005081DE0DFF8CC80404502D14FF0060893
:101B800016E0DFF8C480404502D14FF007080FE0AF
:101B9000DFF8B880404502D14FF0080808E0DFF8D0
:101BA000B080404502D14FF0090801E04FF00A082B
:101BB00008FA07F848EA0608CCF80888DAF800605E
:101BC0005746D1F804C09E435FEACC3C00D51E4383
:101BD0003E60DBF800605F46D1F804C09E435FEAD8
:101BE0008C3C00D51E433E60DEF800607746D1F89D
:101BF00004C09E435FEACC2C00D51E433E60084FD4
:101C00000C373E68D1F804C09E435FEA8C2C00D5A7
:101C10001E433E60521C102AFFF412AFBDE8F88F3D
:101C2000003C0140443802400030014000000240C6
:101C30000004024000080240000C02400010024074
:101C40000014024000180240001C02400020024024
:101C5000002402400AB1816170470904FBE70000DB
:101C60000148806870470000140000200248816825
:101C70000278114481607047140000200B4810B5B1
:101C8000016841F400710160016841F48061016004
:101C9000016841F480710160032000F08DF800209C
:101CA00000F006F800F03EF8002010BD003C0240B5
:101CB00010B5014688B000222D2000F05DF82D20DF
:101CC00000F04CF813480024016841F48071016071
:101CD000006805A900F480700690684600F018F9C5
:101CE00000F036F90C494000B0FBF1F10C480B4A0A
:101CF000491E026040F2E732C0E90324C0E9011442
:101D000000F078FB10B1012008B010BD044800F0CD
:101D1000B3FBF9E74038024040420F00002000408A
:101D2000700300200C4882B0016841F480410160DA
:101D3000006800F4804000900748001F016841F0EF
:101D4000805101600068002200F0805000900F2157
:101D5000901E02B000F010B844380240002809DBA1
:101D600000F01F02012191404009800000F1E020B5
:101D7000C0F8001170470000F0B40E4B1B680C4611
:101D8000C3F30223C3F10705042D00D90425191D4F
:101D9000072901D2002300E0DB1E012606FA05F127
:101DA000491E214099409E40761E16403143F0BCAA
:101DB00002F0A9BB0CED00E0064900F0070208683C
:101DC0004FF6FF03184040EA0220034A1043086020
:101DD000704700000CED00E00000FA052DE9F04727
:101DE0000E46050065D0DFF81481D8F80000F7B280
:101DF00000F00F00B04207D288F80070D8F8000059
:101E000000F00F00B04254D128683D4C810712D534
:101E1000400703D5206840F4E05020602878000790
:101E200003D5206840F4604020602068A96820F055
:101E3000F000084320602878C0072DD0304968683A
:101E40000839012812D0022813D0032811D00968BC
:101E5000890700292DDA216821F00301014321605F
:101E6000FFF7FEFE814641F2883A0EE009688903D9
:101E7000EFE709688901ECE7FFF7F2FEA0EB090143
:101E8000514502D90320BDE8F0872068696800F059
:101E90000C00B0EB810FEFD1D8F80010404601F0F4
:101EA0000F01B14207D90770006800F00F00B0427F
:101EB00001D00120E7E72878400705D52068E968C8
:101EC00020F4E050084320602878000706D52068F9
:101ED000296920F4604040EAC100206000F058F811
:101EE0002168084AC1F30311515CC84006490860E3
:101EF00006480068FFF7DCFE0020C4E7003C024013
:101F000008380240745F00082000002018000020FC
:101F10000F2202600C4A136803F003034360136846
:101F200003F0F0038360136803F4E053C3601268A6
:101F30004FF4E05303EAD20202610448006800F063
:101F40000F0008607047000008380240003C024063
:101F50000448054900680968044AC1F38221515CBC
:101F6000C84070472000002008380240845F000805
:101F70000448054900680968044AC1F34231515CCC
:101F8000C84070472000002008380240845F0008E5
:101F9000154810B5006810F00C02144813D014490D
:101FA000042A0FD0082A0ED10F4C241F2268236860
:101FB00002F03F025B0207D52068C0F38810A0FB47
:101FC000010106E0084610BD2168C1F38811A1FB9C
:101FD00000010023FEF766F92168C1F30141491CA5
:101FE0004900B0FBF1F010BD083802400024F400B5
:101FF000001BB7002DE9F84F04006ED02078DFF801
:102000004C93C007A9F104054AD009F10400016806
:10201000C1F38101012908D00068C0F381000228C2
:102020000AD1D9F80000400206D52868800337D5C8
:1020300060680028E1D033E06068B0F5803F10D0E0
:10204000B0F5A02F286810D020F4803028602868D0
:1020500020F4802028606068A8B1FFF701FE0646E2
:102060000DE0286840F48030F4E740F480202860D8
:10207000F7E700BFFFF7F4FD801B642873D82868DA
:102080008003F7D50CE0FFF7EBFD064605E000BF47
:10209000FFF7E6FD801B6428F0D828688003F7D49A
:1020A0002078DFF8AC8280074FF0000A3ED5A748C1
:1020B000001D016811F00C0F08D00068C0F381000A
:1020C00002280BD1D9F80000400207D42868800705
:1020D00016D5E068012800D112E033E1E068B8B11C
:1020E0000120C8F80000FFF7BBFD064605E000BF71
:1020F000FFF7B6FD801B0228C0D828688007F7D5F7
:102100002868216920F0F80040EAC10028600DE04D
:10211000C8F800A0FFF7A4FD064604E0FFF7A0FD05
:10212000801B02281FD828688007F7D42078000772
:1021300022D5864F87486169703771B101210160EE
:10214000FFF78EFD064604E0FFF78AFD801B02289C
:1021500009D838688007F7D50EE0C0F800A0FFF76F
:102160007FFD064605E082E0FFF77AFD801B02282E
:102170007DD838688007F7D42078400768D5DFF825
:10218000CCB100270BF13C0BDBF80000C0000BD4F6
:10219000DBF8001041F08051CBF80010DBF80000B4
:1021A000012700F0805000906B4E3068C00510D4BD
:1021B000306840F480703060FFF752FD009005E019
:1021C000FFF74EFD0099401A022850D83068C0052C
:1021D000F6D55E4EA0686C3601280FD00528306811
:1021E00010D020F001003060306820F00400306032
:1021F000A068B8B1FFF734FD00900FE0306840F000
:102200000100F4E740F004003060F7E7FFF728FD35
:102210000099411A41F28830814266D830688007BF
:10222000F4D50EE0FFF71CFD009007E0FFF718FD66
:102230000099411A41F28830814256D830688007AF
:10224000F4D42FB1DBF8001021F08051CBF800104E
:10225000A069C8B33D49091D0968C1F3810102297C
:102260004AD00228504607D0C8F8600000E03CE0A1
:10227000FFF7F6FC04463BE04746C8F86000FFF76E
:10228000EFFC064605E000BFFFF7EAFC801B0228D2
:102290002BD828688001F7D4D4E907010843A16A44
:1022A0002E4A490802EB0141626A41EA8211084361
:1022B00094F82C1040EA0161C9F80010012038663A
:1022C000FFF7CEFC044606E03EE000BFFFF7C8FC87
:1022D000001B022809D828688001F7D534E000BF28
:1022E000FFF7BEFC001B022802D90320BDE8F88FCF
:1022F00028688001F4D427E00128F7D0D9F800003D
:10230000E26900F4800191421CD1226A00F03F0191
:10231000914217D147F6C071626A0140B1EB821F4A
:1023200010D1A26A4FF0FF3300F4403103EB5202A8
:10233000B1EB024F06D194F82C1000F07060B0EBB6
:10234000016F01D00120D1E70020CFE7043802401F
:1023500000004742800E4742007000400000FFFF2F
:102360007047704770B590F83C20012A32D00124A4
:1023700080F83C40022280F83D2003685A689D683E
:1023800022F070060A6832435A60134B02689A4280
:1023900014D0B2F1804F11D0104B9A420ED0104B96
:1023A0009A420BD00F4B9A4208D00F4B9A4205D05D
:1023B0000E4B9A4202D00E4B9A4204D1496825F046
:1023C00080031943916080F83D40002180F83C1063
:1023D000084670BD022070BD0000014000040040AE
:1023E00000080040000C0040000401400040014093
:1023F0000018004010B5040003D094F83D0010B15F
:1024000007E0012010BD002084F83C00204600F0C9
:102410001FF8022084F83D00211D206801F054FDC2
:10242000012084F8460084F83E0084F83F0084F8D8
:10243000400084F8410084F8420084F8430084F8A6
:10244000440084F8450084F83D00002010BD0000E1
:1024500008B500680649884208D10648016841F07D
:1024600008010160006800F00800009008BD00004D
:10247000000C00404038024090F83D10012901D086
:1024800001207047022180F83D100168CA6842F0BF
:102490000102CA6000681149884214D0B0F1804F2F
:1024A00011D00F4988420ED00E4988420BD00E49F8
:1024B000884208D00D49884205D00D49884202D093
:1024C0000C49884204D1816801F00701062903D034
:1024D000016841F0010101600020704700000140E7
:1024E0000004004000080040000C004000040140CF
:1024F000004001400018004070B5044690F83C00D0
:10250000012817D0012584F83C50022084F83D00B2
:102510002068826822F0770222F47F428260086895
:10252000502830D00DDC20284DD005DC98B3102881
:102530003BD148E0022070BD302844D0402834D13F
:1025400039E0602828D0702806D0B0F5805F2CD004
:10255000B0F5005F29D10AE0CB68D1E901212068FC
:1025600001F023FD2068816841F0770109E0CB6824
:10257000D1E90121206801F018FD2068816841F44B
:102580008041816011E0CA684968206801F0E2FD7D
:102590005021206807E016E0CA684968206801F009
:1025A000EAFD6021206801F00AFD84F83D5000201A
:1025B00084F83C0070BDCA684968206801F0CAFD13
:1025C00040212068EFE7226801461046EBE770479C
:1025D00070B50446006801694FF00005C9438907DA
:1025E00015D4C168C943890711D4E91E01610120CE
:1025F0002077206880698007204602D0FFF7E7FF38
:1026000004E000F0D5F8204600F064F92577206852
:102610000169C943490717D4C168C943490713D49D
:102620006FF004010161022020772068806910F4B6
:10263000407F204602D0FFF7CAFF04E000F0B8F860
:10264000204600F047F9257720680169C94309074A
:1026500016D4C168C943090712D46FF0080101619B
:10266000042020772068C0698007204602D0FFF749
:10267000AEFF04E000F09CF8204600F02BF925772F
:1026800020680169C943C90617D4C168C943C9068E
:1026900013D46FF010010161082020772068C06911
:1026A00010F4407F204602D0FFF791FF04E000F0D5
:1026B0007FF8204600F00EF9257720680169C943AC
:1026C000C90708D1C168C943C90704D1891E01617E
:1026D000204600F065F920680169C943090609D45C
:1026E000C168C943090605D46FF080010161204625
:1026F000FFF736FE20680169C943490609D4C1685D
:10270000C943490605D46FF040010161204600F03D
:1027100051F920680169C94389060BD4C168C943CE
:10272000890607D46FF0200101612046BDE87040A2
:10273000FFF717BE70BD000030B587B00446142106
:102740006846FDF7F9FD16492068884226D11548EC
:102750000024016841F480710160016801F4807116
:102760000591016841F0800101600068022500F0D8
:102770008000059001200090CDE9015469460A4887
:10278000CDE90345FFF74EF9E8020090CDE9015489
:1027900069460648CDE90345FFF744F907B030BD67
:1027A000000C00403038024000200240001C024073
:1027B000704770B5044690F83C000D4601280AD0D9
:1027C000012084F83C0042B1042A18D0082A2AD0FB
:1027D0000C2A4DD139E0022070BD206801F0F8FBD1
:1027E0002068816941F0080181612068816921F0D8
:1027F00004018161206881692A69114311E0206820
:1028000001F016FC2068816941F400618161206853
:10281000816921F480618161206881692A6941EAC6
:102820000221816124E0206801F038FC2068C16940
:1028300041F00801C1612068C16921F00401C16152
:102840002068C1692A69114311E0206801F05AFC2F
:102850002068C16941F40061C1612068C16921F447
:102860008061C1612068C1692A6941EA0221C161B0
:10287000002084F83C0070BD10B5040003D094F82B
:102880003D0010B107E0012010BD002084F83C009D
:10289000204600F01EF8022084F83D00211D20682B
:1028A00001F012FB012084F8460084F83E0084F811
:1028B0003F0084F8400084F8410084F8420084F826
:1028C000430084F8440084F8450084F83D0000206B
:1028D00010BD70477047000010B50446022249B190
:1028E00004290ED0082913D094F84100012816D0ED
:1028F000012010BD94F83E000128F9D184F83E2053
:102900000FE094F83F000128F2D184F83F2008E05E
:1029100094F840000128EBD184F8402001E084F8CD
:1029200041200122206801F033FB16492068164A35
:10293000884201D0904203D1436C43F40043436486
:102940002068884213D0B0F1804F10D00F498842E0
:102950000DD00F4988420AD00E49884207D09042D4
:1029600005D00D49884202D00C49884204D18168C3
:1029700001F00701062903D0016841F0010101605F
:10298000002010BD00000140000401400004004090
:1029900000080040000C00400040014000180040CA
:1029A00000680349884201D1FFF760B97047000011
:1029B000002000407047704710B504460068416928
:1029C00094F83D20C1F3C011212A0BD151B14169C6
:1029D00021F080014161606B08B1FEF758FE20468E
:1029E00001F066FC2068416994F83E20C1F3801133
:1029F000222A0BD151B1416921F040014161A06B04
:102A000008B1FEF744FE204601F03AFC002010BD5C
:102A100070470000F8B5026804461068D168536931
:102A200010F00F0F4FF0000554D003F0010601F431
:102A3000907737435FD0C20705D0CA0503D5226C13
:102A400042F001022264420705D5DA0703D0226C66
:102A500042F002022264820705D5DA0703D0226C15
:102A600042F004022264020707D501F0200232433B
:102A700003D0226C42F008022264226C002A35D076
:102A8000800604D5880602D5204601F01AFC20688D
:102A90004069216CC0F3801001F008010143204619
:102AA00025D001F0EDFB2068416949061BD541693D
:102AB00021F040014161A06BA8B159490165A06BAB
:102AC000FEF72CFE002811D0A06B016D01B0BDE80F
:102AD000F040084783060ED58B060CD52046BDE88E
:102AE000F84001F0EEBB2046FFF792FFF8BDFFF77C
:102AF0008FFF2564F8BD266B2023012E53D1C60617
:102B000051D5CE064FD510685068009050694006E8
:102B10002BD5A16B086840680004000CEAD0A68D94
:102B20008642E7D9E085C869B0F5807F18D0D068C3
:102B300020F48070D0602068416921F0010141617A
:102B40002068416921F04001416184F83E302563ED
:102B50002068C16821F01001C160A06BFEF797FDED
:102B6000A08DE18D401A81B219E0A08DE18D401A4F
:102B700081B2E08D0028BDD00029BBD0D06820F400
:102B80009070D0602068426922F00102426184F8AE
:102B90003E3025632068C26822F01002C2602046E1
:102BA000FFF709FFF8BD05062BD50D0629D594F8CA
:102BB0003D002128F6D1A068B0F5805F01D12069E1
:102BC000B0B1206A411C2162216800784860E08C25
:102BD000401E0004000CE084E4D12068C16821F0AC
:102BE0008001C1602068C16841F04001C160F8BD4A
:102BF000206A0088C0F308005060206A801C2062B0
:102C0000E5E74006F3D54806F1D5D168204621F026
:102C10004001D16084F83D3000F0FFF8F8BD0000BD
:102C2000B341000870B5040004D094F83D000025BD
:102C300010B106E0012070BD84F83C50204600F041
:102C400023F8242084F83D002068C16821F4005155
:102C5000C160204601F08CFB2068016921F490419D
:102C600001612068416921F02A0141612068C16841
:102C700041F40051C1602564202084F83D0084F8AF
:102C80003E00002070BD00002DE9F04186B00646F0
:102C900014216846FDF750FB4E494D4F35684D48AD
:102CA00014390222032300244FF48068BD4236D138
:102CB000056845F010050560006800F010000590FB
:102CC000086840F0020008600868694600F00200E9
:102CD0000590C0208DE815000720CDE903303E485F
:102CE000FEF7A0FE3E4D3D4828604FF00060C5E96C
:102CF0000104C5E903486C61AC61EC612C622846B3
:102D00006C62FEF7EDFD08B1FEF7C7F8B56300226F
:102D100005212520AE63FFF72FF8252052E0314F23
:102D2000BD4251D1056845F020050560006800F0FE
:102D300020000590086840F0400008600868694677
:102D400000F0400005904FF484408DE81500082005
:102D5000CDE903302448FEF765FE2048204D1838A1
:102D6000603587052860C5E90174C5E903486C61D1
:102D7000AC61EC612C6228466C62FEF7B1FD08B1D3
:102D8000FEF78BF8B563AE63154D1448C03560305F
:102D9000E5E802074020A5E81101114845F814496B
:102DA000C030AC61EC612C626C62FEF799FD08B139
:102DB000FEF773F87563002205214720AE63FEF726
:102DC000DBFF4720FEF7CAFF06B0BDE8F081000038
:102DD00000100140443802400004024040640240B8
:102DE00050020020001401400018024090F83E30CC
:102DF000202B0ED159B152B190F83C30012B08D0A4
:102E0000012380F83C300023036301F037BB01202D
:102E1000704702207047704770477047FEE7000018
:102E20000149096808407047FC000020084890F8F4
:102E30006C1000290AD090F82810C90706D090F825
:102E40002A10C90702D1C16AC943C1627047000094
:102E5000205B0020F8B5244C244900252369B1F9F2
:102E6000042001F11400BE2B1DDA0E469FED200A4E
:102E700081ED0E0A00EE102AB8EEC00A81ED0D0AAF
:102E800000F00DFA009596ED0F0A00231946BDEEED
:102E9000C00A10EE100A02B21648FDF75BFD206969
:102EA000401C20611AE0DAB19FED130A0E4681ED55
:102EB0000E0A00EE102AB8EEC00A81ED0D0A00F0ED
:102EC000EEF9009596ED0F0A00231946BDEEC00AF3
:102ED00010EE100A02B20748FDF73CFD0020F8BDD5
:102EE00001202561F8BD000008010020B454002035
:102EF00000803BC55801002000000000024A00216C
:102F000042F8201070470000905B0020104810B578
:102F10000E4901600221416000214FF04072C0E97A
:102F20000212921102614FF4A002426101764176D1
:102F30008176C17601774177FEF721FA002803D028
:102F4000BDE81040FDF7A9BF10BD000000640040BF
:102F500030010020104810B50E4901600221416087
:102F600000214FF04072C0E90212921102614FF449
:102F7000A0024261017641768176C1760177417780
:102F8000FEF7FDF9002803D0BDE81040FDF785BF2E
:102F900010BD00000068004058010020114808B52D
:102FA000016841F4800101600068002200F48000A3
:102FB000009005213920FEF7DFFE3920FEF7CEFE16
:102FC000002205213A20FEF7D7FE3A20FEF7C6FE82
:102FD000002205214520FEF7CFFEBDE80840452030
:102FE000FEF7BCBE3038024010B5104B0022012164
:102FF0000F4801F057FB0F4C0221E06001F08EFBFF
:103000000A4A00216C3A0C4801F008FB074A20608C
:10301000483A0021094801F001FB044A6060243A63
:103020000021074801F0FAFAA06010BD5C5F0008BB
:10303000F13D000800000020D53D0008C53D000816
:10304000E13D000830B587B014216846FDF774F9FA
:1030500026480024016841F040010160016801F048
:1030600040010591016841F001010160016801F032
:1030700001010591016841F002010160016801F060
:1030800002010591016841F008010160016801F049
:1030900008010591016841F020010160016801F01B
:1030A00020010591016841F480710160016801F41B
:1030B00080710591016841F08001016000680C4D4C
:1030C00000F080000590002203212846FEF7C2FD93
:1030D000032000900120CDE90104022003906946FD
:1030E0002846FEF79FFC07B030BD00003038024094
:1030F0000014024010B58EB000240794089409947F
:103100000A940B941C2168460C94FDF715F9244889
:10311000224901604F21C0E9011444F61F61C0E952
:1031200003148461FFF766F908B1FDF7B6FE4FF4AA
:103130008050079007A91A48FFF7DEF908B1FDF79C
:10314000ACFE1748FFF798FB08B1FDF7A6FE0B94FD
:103150000BA913480C94FFF705F908B1FDF79DFE84
:103160006020CDE900040294082269460C480494CA
:10317000FFF71FFB08B1FDF790FE4FF4FA700190C6
:103180000C2269460648FFF714FB08B1FDF785FEDF
:103190000348FFF7D1FA0EB010BD0000000C00404C
:1031A000800100200E4810B50C4901600D494160B6
:1031B0004FF4805181604900C160C9100161042150
:1031C000416100218161C161FFF72CFD002803D01E
:1031D000BDE81040FDF761BE10BD000000100140C9
:1031E000C8010020A08601000C4810B50A49016002
:1031F0004FF4E1314160002181600C22C160C0E9DF
:1032000004128161C161FFF70DFD002803D0BDE804
:103210001040FDF742BE10BD001401400C0200201A
:10322000FEE710B5B0F9003043800A8852BA12B2F6
:1032300002804C88D31A64BA84808C88B3F5805F8E
:1032400064BAC48089790172B0F90A1001DD491E9F
:1032500003E013F5805F01DA491C4181B0F90A10DF
:1032600002EB413213310261272901D30021418150
:1032700010BDC0ED0C1A80ED102A00F114020021DF
:1032800082EC030A343280F8441080ED194AC0ED14
:103290001D4AC2EC032A80F878107047FEE790EDD3
:1032A000041A80ED051AD0ED030AC0ED040A90ED72
:1032B000090AD0ED081A30EE610A80ED030A90F891
:1032C000301011B101292DD046E090ED061A71EEB3
:1032D000001AC0ED061A90ED071AF4EEC11AF1EECD
:1032E00010FA01DD80ED061AD0ED061AB1EE411A92
:1032F000F4EEC11AF1EE10FA01D280ED061A90ED4B
:10330000001AD0ED011A90ED062A21EE001A30EED7
:10331000600AD0ED020A01EE821A00EE801A80EDFA
:103320000A1A19E070EE601A90ED002AF0EE002AF9
:1033300061EE821AB0EE402A00EEE22AD0ED010AD8
:1033400032EE011A40EE811A40EE801A90ED0A0A20
:1033500031EE800A80ED0A0AD0ED0A0A90ED0B0AE0
:10336000F4EEC00AF1EE10FA01DD80ED0A0AD0EDAC
:103370000A0AB1EE400AF4EEC00AF1EE10FA01D2E8
:1033800080ED0A0A7047704770B52748DFED270ABD
:10339000274CB0F90410A1F5806100EE101AB8EEC8
:1033A000C00A20EE200AFAEE000A84ED080AB0F9FD
:1033B0000010A1F5806100EE101AB8EEC00A20EEF0
:1033C000200AFBEE000A84ED0B0AB0F90810A1F503
:1033D000806100EE101AB8EEC00A20EE200A84EDDB
:1033E0000C0AB0F90250A5F58060FDF722F841EC17
:1033F000100B104890ED001B51EC100B53EC112BEF
:10340000FCF7A5FF41EC100B01F08DF851EC100B0F
:10341000FDF733F86063B5F5806F01DA012000E055
:103420000020E07070BD0000205B0020CDCC4C3D42
:10343000C05B002000010020144810B5B0F9041052
:1034400000EE101AB8EEC00A80ED0D0A1048B0F96F
:10345000041000EE101AB8EEC00A80ED0D0A0D48F7
:10346000B0F9041000EE101AB8EEC00A80ED0D0A93
:1034700006481430FFF713FF05481430FFF70FFF1D
:103480000448BDE810401430FFF709BFCC530020BA
:10349000B45400209C5500202DE9F8433C4C3D4E8F
:1034A0003D4D20784FF00009F0B3012850D1A078AD
:1034B00000284DD1301D0168D4ED080A00EE101A25
:1034C000B8EE400A30EE200ABCEEC00A10EE101A28
:1034D0000160324F94ED0B0ADFF8C48087ED0E0ACD
:1034E00094ED0C0A88ED0E0AFFF7A6FF2D48CDF8E3
:1034F000009090ED0F0ABDEEC00A10EE100A98ED94
:103500000F0A03B2BDEEC00A10EE100A97ED0F0AC3
:1035100002B2BDEEC00A10EE100A01B22248FDF759
:1035200019FAE07868B300E014E0012810D1012214
:1035300011462846FEF78EFB002202212846FEF7A0
:1035400089FB94ED0D0ABCEEC00A10EE100A306043
:10355000BDE8F88300231A4619461348CDF80090B9
:10356000FDF7F8F942F20F70306000220121284681
:10357000FEF770FB2846BDE8F84300220221FEF763
:1035800069BB002201212846FEF764FB0122D4E733
:10359000C05B00203C0C004000140240CC530020D3
:1035A000B45400209C5500205801002038B5016813
:1035B00004460868C00630D5086848680090174877
:1035C0000268406816484FF40012814202D914483C
:1035D0004C3804E01348814203D911485038026046
:1035E00008E0104B0F48603BB838994201D9C260DF
:1035F00000E082602046FFF7DFF9A06B00684068BA
:1036000020B900F01FFA0020FFF778FC2046BDE843
:10361000384012220449FFF7E9BB38BD00100140D1
:1036200058640240B86002400C5B0020F8B5244C9E
:1036300024490025A369B1F9042001F11400C82B25
:103640001DDA0E469FED200A81ED0E0A00EE102ACB
:10365000B8EEC00A81ED0D0AFFF721FE009596ED48
:103660000F0A00231946BDEEC00A10EE100A02B27E
:103670001648FDF76FF9A069401CA0611AE0DAB1A5
:103680009FED130A0E4681ED0E0A00EE102AB8EEE9
:10369000C00A81ED0D0AFFF702FE009596ED0F0AB4
:1036A00000231946BDEEC00A10EE100A02B2074808
:1036B000FDF750F90020F8BD0120A561F8BD00001C
:1036C00008010020B454002000803B455801002030
:1036D000000000002DE9F8439FED750A754FDFF8F3
:1036E000DC91DFED750A764C87ED0E0A754DC9ED5C
:1036F0000E0A84ED0E0AC5ED0E0A9FED730A734E95
:1037000086ED0E0A9FED720ADFF8C88188ED0E0A79
:10371000B7F9040000EE100AB8EEC00A87ED0D0AF2
:10372000B9F9040000EE100AB8EEC00A89ED0D0ADE
:10373000B4F9040000EE100AB8EEC00A84ED0D0AD8
:10374000B5F9040000EE100AB8EEC00A85ED0D0AC6
:10375000B6F9040000EE100AB8EEC00A86ED0D0AB4
:10376000B8F9040000EE100A07F11400B8EEC00A20
:1037700088ED0D0AFFF793FD09F11400FFF78FFDA7
:1037800004F11400FFF78BFD05F11400FFF787FD2E
:1037900006F11400FFF783FD08F11400FFF77FFD29
:1037A00095ED0F0ABDEEC00A10EE100A00B20090AF
:1037B00094ED0F0ABDEEC00A10EE100A98ED0F0A44
:1037C00003B2BDEEC00A10EE100A96ED0F0A02B267
:1037D000BDEEC00A10EE100A01B23F48FDF7BAF87C
:1037E0000020009099ED0F0A0023BDEEC00A10EEF4
:1037F000100A97ED0F0A02B2BDEEC00A10EE100AD1
:1038000001B23548FDF7C4F897ED0E0AD7ED0D0A61
:10381000324830EE600AB0EEC00A10EE101A814253
:103820003DDA99ED0E0AD9ED0D0A30EE600AB0EEE0
:10383000C00A10EE101A814231DA94ED0E0AD4ED6E
:103840000D0A30EE600AB0EEC00A10EE101A814286
:1038500025DA95ED0E0AD5ED0D0A30EE600AB0EED0
:10386000C00A10EE101A814219DA96ED0E0AD6ED52
:103870000D0A30EE600AB0EEC00A10EE101A814256
:103880000DDA98ED0E0AD8ED0D0A30EE600AB0EEB2
:10389000C00A10EE101A814201DA012000E0002077
:1038A0000F490028086200D00120BDE8F88300001D
:1038B0000080BBC52C5000200080BB451451002067
:1038C0005C4E0020444F002000803BC58C4C002003
:1038D00000803B45744D002030010020000048422C
:1038E0000801002038B5114C9FED0F0A84ED0E0A37
:1038F000B4F9040000EE100A04F11400B8EEC00A96
:1039000084ED0D0AFFF7CBFC0020009094ED0F0A28
:1039100000231946BDEEC00A10EE100A02B2044898
:10392000FDF718F838BD000000000000B454002076
:10393000580100202DE9F84F38484FF0000A01786F
:1039400039B101468278896BCAB1407901280ED01D
:1039500015E0002354461A4619463148CDF800A018
:10396000FCF7F8FF00231A461946009452E000299C
:1039700005DDFFF7AFFE2B498860BDE8F88F002911
:10398000FBD12A4C9FED280A294D2A4E84ED0E0AC0
:10399000294F85ED0E0ADFF8A48086ED0E0ADFF8C8
:1039A000A09087ED0E0A88ED0E0A89ED0E0A00F050
:1039B000CBF897ED0F0ABDEEC00A10EE100A00B268
:1039C000009096ED0F0ABDEEC00A10EE100A99EDB8
:1039D0000F0A03B2BDEEC00A10EE100A98ED0F0AEE
:1039E00002B2BDEEC00A10EE100A01B20C48FCF79C
:1039F000B1FFCDF800A095ED0F0A0023BDEEC00A7F
:103A000010EE100A94ED0F0A02B2BDEEC00A10EEDD
:103A1000100A01B20248FCF7BBFFAEE7C05B002012
:103A20003001002008010020000000002C50002080
:103A3000145100205C4E0020444F00208C4C00208C
:103A4000744D00202B4910B40DC90DC12948028DB9
:103A5000428571E80B23C1E90D23A0F114010A8806
:103A6000C2F30A0202804A78D3088A7843EA4213F2
:103A7000C3F30A034380CB78920942EA83030A79AD
:103A800043EA8223C3F30A03838053084A7943EA53
:103A9000C213C3F30A03C3800B8AC3F30A0303816F
:103AA00093098372C2F30112C272B1F90630038323
:103AB0000C8944834C8984830C7B84774C7BC4774A
:103AC000C98901850021022A04D0032A05D0012AD0
:103AD00005D007E080F86C1004E0012200E002222B
:103AE00080F86C205B1D0B2B00D3418310BCFFF7CB
:103AF0009DB90000205B002005480068C16841F0C6
:103B00001001C160122203490148FFF76FB900009C
:103B1000C80100200C5B0020704700000848F3EE4D
:103B2000060AB0F90600A0F5806000EE100A05480C
:103B3000B8EEC00A20EE200A80ED030A70470000AC
:103B4000205B0020C05B0020284810B5B0F90410AD
:103B500000EE101AB8EEC00A80ED0D0A2448B0F944
:103B6000041000EE101AB8EEC00A80ED0D0A2148CC
:103B7000B0F9041000EE101AB8EEC00A80ED0D0A7C
:103B80001D48B0F9041000EE101AB8EEC00A80ED1E
:103B90000D0A1A48B0F9041000EE101AB8EEC00A67
:103BA00080ED0D0A1648B0F9041000EE101AB8EEB8
:103BB000C00A80ED0D0A0D481430FFF770FB0C4869
:103BC0001430FFF76CFB0B481430FFF768FB0A4812
:103BD0001430FFF764FB09481430FFF760FB084816
:103BE000BDE810401430FFF75ABB00002C500020F5
:103BF000145100205C4E0020444F00208C4C0020CB
:103C0000744D00202DE9F047614C4FF0000A2DED76
:103C1000048B82B0207858B1A078B8B101287DD14A
:103C20005C4DA868002802D02079012877D0A5E053
:103C3000002354461A4619465748CDF800A0FCF711
:103C400089FE00231A461946009489E0D4ED038AC0
:103C5000B1EE688A18EE100AFCF7FCFB9FED4F9B53
:103C600053EC192BFCF773FBFCF707FC4D4CA063DE
:103C700018EE900AFCF7EEFB53EC192BFCF767FBF0
:103C8000FCF7FBFB484DA86318EE100AFCF7E2FBBB
:103C900053EC192BFCF75BFBFCF7EFFB434EB063D7
:103CA00018EE900AFCF7D6FB53EC192BFCF74FFBF0
:103CB000FCF7E3FBDFF8F880C8F8380018EE100ACC
:103CC000FCF7C8FB9FED3B9B53EC192BFCF73FFB2C
:103CD000FCF7D3FB394FB86318EE900AFCF7BAFB38
:103CE00053EC192BFCF733FBFCF7C7FBDFF8D09044
:103CF000C9F83800FFF728FF98ED0F0ABDEEC00A9B
:103D000010EE100A00B2009096ED0F0ABDEEC00A48
:103D100010EE100A99ED0F0A03B201E023E027E04C
:103D2000BDEEC00A10EE100A97ED0F0A02B2BDEE0A
:103D3000C00A10EE100A01B21748FCF70BFECDF8CE
:103D400000A095ED0F0A0023BDEEC00A10EE100A88
:103D500094ED0F0A02B2BDEEC00A10EE100A01B2D5
:103D60000D48FCF715FE02B0BDEC048BBDE8F087F2
:103D7000A06B0028F7DDFCF7A9FC2860207900285B
:103D8000F1D102B0BDEC048BBDE8F047FFF7AABD4E
:103D9000C05B002008010020300100209A99999909
:103DA0009999D93F2C500020145100205C4E0020DE
:103DB000444F00209A9999999999C93F8C4C0020B9
:103DC000744D0020FFF768FBFFF7B4FD022000F000
:103DD000E9FBF7E7FFF716FF022000F0E3FBF9E746
:103DE000FCF776FEFCF7BCFF012000F0DBFBF9E7F7
:103DF000704710B54FF0E020006901F091FE0128F6
:103E000003D0BDE8104001F0BFBB10BD30B593B08A
:103E100030216846FCF790FA14210CA8FCF78CFAC4
:103E20001D480025016841F080510160006800F0E4
:103E3000805011901948016841F4404101600068C8
:103E4000022400F4404011900120009000040190F1
:103E50008001CDE9064006200890A020CDE90904A4
:103E600004200B906846FEF7C5F808B172B6FEE76D
:103E70000CA90F2081E831004FF4A0500F904FF4AF
:103E80008050109005210CA8FDF7A8FF002801D054
:103E900072B6FEE713B030BD4038024000700040FB
:103EA0000548016841F47001016003494FF000606A
:103EB000803908607047000088ED00E00148FEF797
:103EC00087BB000070030020F0B50268254C264D2A
:103ED000264E274F274B4FF0804CA04209D060451B
:103EE00007D0A84205D0B04203D0B84201D09842D2
:103EF00004D122F0700E4A6842EA0E02A0421BD0A2
:103F0000604519D0A84217D0B04215D0B84213D09E
:103F1000984211D0184DA8420ED0184DA8420BD08F
:103F2000174DA84208D0174DA84205D0164DA842FB
:103F300002D0164DA84203D122F44075CA682A4324
:103F40004D6922F080022A4302608A68C2620A68D0
:103F50008262A04201D0984201D109690163012126
:103F60004161F0BD00000140000400400008004035
:103F7000000C0040000401400040014000440140AA
:103F80000048014000180040001C00400020004094
:103F900010B501F01F030121046A99408C430462AB
:103FA000016A9A401143016210BD10B5846842EA6B
:103FB000032224F47F440A432243826010BD8268B6
:103FC00022F070020A4342F007018160704700004E
:103FD000F0B5026A22F001020262036A4268846953
:103FE000124E24F073050C682C4323F002058B68F5
:103FF0002B430D4DA84201D0B04205D123F0080754
:10400000CB683B4323F00403A84201D0B04205D162
:104010004D6922F4407215438A692A4342608461E3
:10402000496841630362F0BD0000014000040140A3
:10403000F0B5026A22F010020262026A43688469E3
:104040000D6824F4E64444EA05248D6822F0200239
:1040500042EA05120F4D104EA84201D0B04206D1DF
:10406000CF6822F0800242EA071222F04002A84202
:1040700001D0B04207D14D6923F4406343EA850380
:104080008D6943EA85034360846149688163026204
:10409000F0BD00000000014000040140F0B5026ADC
:1040A00022F480720262026A4368C46922F40072D8
:1040B00024F073050C68124E2C438D6842EA0522E9
:1040C0000E4DA84201D0B04206D1CF6822F4006262
:1040D00042EA072222F48062A84201D0B04207D10E
:1040E0004D6923F4405343EA05138D6943EA0513F0
:1040F0004360C4614968C1630262F0BD00000140D1
:104100000004014030B5026A22F480520262046A5F
:104110004268C3690D6823F4E64343EA05238D68CA
:1041200024F4005444EA0534084DA84202D0084D56
:10413000A84204D14D6922F4804242EA85124260CD
:10414000C36149680164046230BD000000000140A1
:104150000004014010B5036A046A24F001040462FB
:10416000846924F0F00444EA021423F00A020A43AA
:104170008461026210BD10B5036A23F0100303626C
:104180008369046A23F4704343EA023224F0A003F3
:1041900043EA01118261016210BD10B500F038FFE1
:1041A000002805D0D0E90021BDE81040084610479E
:1041B00010BD10B5806B0021C185C184FEF728FCBD
:1041C00010BD70B5846B2068406994F83D10C0F351
:1041D000C0100025212904D118B1E584204600F043
:1041E00067F82068406994F83E10C0F380102229D7
:1041F00004D118B1E585204600F042F8206C40F06B
:10420000100020642046FEF703FC70BD10B5014687
:10421000806B09680968C9051BD40021C185016844
:10422000CA6822F48072CA6001684A6922F00102F9
:104230004A6101684A6922F040024A61202180F8FF
:104240003E10016B012904D10168CA6822F01002F6
:10425000CA60016B012902D0FEF7DDFD10BD818D22
:10426000FEF7A9FB10BD10B5806B016B012902D0D0
:10427000FEF7D2FD10BD818D4908FEF79CFB10BDF5
:104280000168CA6822F49072CA6001684A6922F023
:1042900001024A61016B012904D10168CA6822F058
:1042A0001002CA60202180F83E100021016370478F
:1042B0000168CA6822F0C002CA60202180F83D105F
:1042C000704710B5044690F83E00222801D0022025
:1042D00010BDA1684FF48052914201D1206920B1F4
:1042E000A06A91421BD049B10AE02168A06A4968DE
:1042F000C1F308010180A06A801C08E0216971B146
:104300002168496801F07F010170A06A401CA06229
:10431000E08D401E0004000CE08503D01CE0216805
:104320004968F1E72068C16821F02001C160206878
:10433000C16821F48071C1602068416921F00101E8
:104340004161202084F83E00206B012806D02046E1
:10435000FEF761FD00202063002010BD2068C168C9
:1043600021F01001C160A18D2046FEF724FBF1E78A
:1043700070B5044600680169E26821F440511143B8
:1043800001612169A068E26908436169114308433A
:104390002168CA6849F20C639A430243CA602068E4
:1043A0004169A26921F4407111434161314920689A
:1043B000884202D03049884202D1FDF7D9FD01E0A0
:1043C000FDF7C6FDE2690023192164253226B2F506
:1043D000004F626828D0A0FB0101930F9200FBF709
:1043E00061FF0146B0FBF5F06FF01802504301EB9E
:1043F000800006EB0010B0FBF5F000F0F002B1FB1E
:10440000F5F002EB0012B1FBF5F06FF01803584322
:1044100001EB800006EB0010B0FBF5F000F00F00A0
:1044200021681044886070BDA0FB010192185B41B7
:10443000FBF738FF0146B0FBF5F00201B1FBF5F0E8
:104440006FF01803584301EB800006EBC000B0FB8F
:10445000F5F000F0F80002EB4002B1FBF5F0584334
:1044600001EB800006EBC000B0FBF5F000F00700A8
:10447000D6E70000001001400014014038B5816209
:1044800082850025134604460564222084F83E00F8
:10449000A26B1348D063A26B12481064A26B12483F
:1044A000D064A06B0A4605652168A06B091DFDF765
:1044B00081FA206801684168009184F83C50C16825
:1044C00041F48071C1602068416941F0010141619E
:1044D0002068416941F040014161002038BD000081
:1044E0000D42000867420008C34100080148FFF779
:1044F0005DB80000C80100200148FEF78BBA00003B
:104500000C020020FEE70907090E002804DB00F179
:10451000E02080F80014704700F00F0000F1E02068
:1045200080F8141D70472DED020B019820F000401B
:1045300001909DED000B02B0704702E008C8121F09
:1045400008C1002AFAD170477047002001E001C17C
:10455000121F002AFBD17047FDF790FBFFF756FCB6
:10456000FEF770FDFEF71AFDFEF7D0FCFEF7F2FC39
:10457000FEF718FEFEF7BEFDFEF736FEFFF7BCFAAB
:104580000648FCF785F90648FCF782F900F018F8B0
:10459000FEF72AFD00F026F8FEE7000030010020BB
:1045A0005801002010B5EFF3058111B16FF005043B
:1045B00003E0002408B100F087FE204610BD000093
:1045C000EFF3058010B16FF00500704704480168F3
:1045D00011B14FF0FF30704701210160002070479A
:1045E0007400002010B5EFF3058010B16FF00500E6
:1045F00010BD08480168012902D04FF0FF3010BDFE
:10460000054A002182F8141D0221016000F0C4FE59
:10461000002010BD740000200BE000E02DE9FF41F8
:104620000B464FF00005EFF30581039549BB40B3FE
:104630008027182100244AB3166806B134469669CB
:104640001EB13146761E382E02D21679F60703D0F7
:10465000002004B0BDE8F081566906B1B708D2F871
:1046600008C0BCF1000F0DD0D5685C2D18D31269BD
:104670003AB136B18DE806103A46214601F025FAE6
:1046800003900DE0D6685EB912694AB903AACDE974
:104690000012BAB2214601F0EBF9012800D00395CF
:1046A0000398D6E72DE9FC471C4690468946074605
:1046B0004FF00006EFF3058058BB57B3082000F019
:1046C00039FC050025D0C5E90078B9F1000F12D0FA
:1046D0000122114B002094B1216801B10846A16864
:1046E00059B1E4682C2C11D3CDE900312B460121BE
:1046F00001F082FB08E00022EBE7E16831B90093AA
:104700002B46012101F05EFB060002D1284600F095
:1047100037FD3046BDE8FC879B41000808B5EFF344
:10472000058212B16FF0050008BD58B10022134692
:1047300000920A46042101F0A7FB012805D06FF082
:10474000020008BD6FF0030008BD002008BD000096
:104750002DE9F041134C0F460546E6682068001D20
:1047600000F07EFC681C07D137B12168BDE8F0413C
:104770000D48091D00F0C4BC20683544B5424560B1
:10478000216805D2A06BBDE8F041091D00F0A0BC76
:10479000606B091D00F09CFCA06A854200D2A562F6
:1047A000BDE8F08124000020A80800202DE9F04198
:1047B000054600F0B1FC2D4CA068401CA0602068AC
:1047C0002B4F10B1606930B32BE02560A068012841
:1047D00027D1002606EB860007EB800000F06AFC7C
:1047E000761C382EF6D3234800F064FC21481430A0
:1047F00000F060FC1F48283000F05CFC1D483C3095
:1048000000F058FC1B48503000F054FC194860631D
:104810001430A06305E02068E96AC06A884200D8C5
:104820002560606A401C60626864E86A21698842A9
:1048300000D9206100EB800007EB8000291D00F00B
:104840005FFC00F089FC606900280CD02068E96AF0
:10485000C06A884207D208494FF080500860BFF311
:104860004F8FBFF36F8FBDE8F08100002400002060
:10487000F80300205808002004ED00E038B500F0EF
:104880004BFC104C2068C8B90F4800F013FC0E48D0
:10489000143000F00FFC0C48E060143020610A4B2B
:1048A0000020F03B009003F1500210210A2000F09C
:1048B00081FE206010B105A100F0D0FCBDE83840B9
:1048C00000F04ABC60000020AC090020546D725119
:1048D0000000000030B4026C0B46002A0BD0C16807
:1048E0001144C1608468A14201D30168C16030BC39
:1048F0001846FBF708BD30BC70472DE9F041856BC9
:10490000174604460026026C82B1C7B1E068FBF787
:10491000FAFCE168206C091AE1602268914202D237
:10492000A168081AE060022F16D017E02068A8B925
:10493000A06801F06DF906460020A0600EE06068F6
:10494000FBF7E1FC216C606808446060A168884264
:1049500004D32068606001E005B16D1E6D1CA56385
:104960003046BDE8F08110B5044690F8590058B1C2
:1049700001280CD002280FD0502080F31188BFF3FB
:104980004F8FBFF36F8FFEE7206B00F0F9FB2046DF
:10499000BDE8104000F0F4BB10BD000010484FF41B
:1049A0007051420706D0C01D0D4920F00700411A82
:1049B000C1F570510B4A00230144C2E900030839D4
:1049C000183A21F0070111604B600B600B1AC0E927
:1049D000001393604FF00040536050617047000037
:1049E0008C10002090000020144E154CA6F29C471D
:1049F0004FF08058DFF84C9012E000BF00F08CFBC5
:104A0000F068C568281D00F02BFBA068401EA06060
:104A10006068401E606000F09FFB2846FFF7A3FF20
:104A200060680028EAD138680128F9D9C9F80080FF
:104A3000BFF34F8FBFF36F8FF2E7000094080020A1
:104A40002400002004ED00E070B51D46049C51B127
:104A5000C4F80020C4E90F010121204600F0DEFD6A
:104A600084F84C5070BD2460F4E700002DE9F05F3D
:104A70008846DDE90B941546834691009A460A9EC6
:104A8000A522206BFBF751FC6FF00301206B01EBBB
:104A90008501084420F00707780707D0502080F3ED
:104AA0001188BFF34F8FBFF36F8FFEE70025B8F17A
:104AB000000F0FD05FF00000221818F8001082F8E5
:104AC000341018F8001011B1401C1028F4D384F8E9
:104AD000435001E084F83450382E00D33726E66284
:104AE000C4E91365201D00F0F0FA04F1180000F08D
:104AF000ECFA2461C6F138006462A061656584F84F
:104B0000585052465946384600F094FA2060B9F1A0
:104B1000000F01D0C9F80040BDE8F09F2DE9F04733
:104B20001E46DDE9089417460D00804615D0002C7E
:104B300011D0FFF7A3FE04F11801C4F8008081E84A
:104B40006002201D00F0C1FA002F04D014F8280FD5
:104B500040F004002070BDE8F087502080F31188F9
:104B6000BFF34F8FBFF36F8FFEE7000030B51149E1
:104B700000E011460A688242FBD34B685C1884420D
:104B800003D1406818444860084643681C189442A2
:104B900009D1084C183C2468A24209D052681A4432
:104BA00042600A6812680260814200D0086030BD2D
:104BB0000460F9E79000002070B5002441600B4DBF
:104BC0000061914206D8D11A8269914206D2011D34
:104BD000286907E09A4203D2994201D3012403E0F5
:104BE000011DE86800F074FA204670BD60000020E6
:104BF00010B5044600F090FAA06B28B15FF00004F5
:104C000000F0AAFA204610BD0124F9E730B589B0BA
:104C10003C4D6EE00498002806DADDE90601059AAD
:104C200090470498002864DB069C606910B1201D41
:104C300000F016FA03A800F0D7F8024604980A28F4
:104C400057D2DFE800F00505052D334A05052D3361
:104C500094F8280040F0010084F828000599A06924
:104C6000059B01442046FFF7A7FF68B3216A204651
:104C7000884794F8280040073BD50020009005980D
:104C8000A169002342181946204601F0FDF8D8B961
:104C9000502080F31188BFF34F8FBFF36F8FFEE773
:104CA00014F8280F20F00100207022E094F828006A
:104CB00040F0010084F828000598A06128B181180F
:104CC00013462046FFF778FF13E0502080F3118849
:104CD000BFF34F8FBFF36F8FFEE794F82800810773
:104CE00003D4204600F04CFA03E020F0010084F8E1
:104CF0002800002204A9286800F0E4FD002889D1DA
:104D000009B030BD600000202DE9FC410F4605468A
:104D100000F086FB01A800F067F80446019818B17E
:104D200000F0EEFFBDE8FC81254EAFB130690068B0
:104D3000D0B30027291B3A46306800F0A3FA00F0F0
:104D4000DFFF0028EED11F494FF080500860BFF30D
:104D50004F8FBFF36F8FE5E7A542EBD800F0D0FF90
:104D6000F0682746C068C468201D00F079F994F8FF
:104D70002800410719D5A0692B4641193A4620461B
:104D8000FFF71AFFA8B100200346014600902A460B
:104D9000204601F079F860B9502080F31188BFF304
:104DA0004F8FBFF36F8FFEE707E020F0010084F81C
:104DB0002800216A20468847B4E70127BAE70000A7
:104DC0006000002004ED00E00648416B096829B14D
:104DD000416BC968C9684968816270474FF0FF310B
:104DE000FAE700002400002070B5054600F0A6FE9A
:104DF000064E0446B068844203D200F009F8012050
:104E000000E0002028602046B46070BD60000020F3
:104E1000F8B5194D20E0C068C4680668201D00F090
:104E20001FF9216A2046884794F82800400713D5C7
:104E3000A0693044B04206D924616060211DE86851
:104E400000F046F908E00020034601460090324693
:104E5000204601F019F838B1E86801680029DAD174
:104E60002969C5E90310F8BD502080F31188BFF30C
:104E70004F8FBFF36F8FFEE7600000200848406847
:104E8000401C4FF0500080F3118804D0BFF34F8FC7
:104E9000BFF36F8FFEE7BFF34F8FBFF36F8FFEE758
:104EA00098000020074CE068016841B1C06800210B
:104EB000D0F80000FFF728FFFFF7A8FEF3E7012175
:104EC0000020F7E7600000202DE9F041044600F0E3
:104ED00023F994F9455004F1240609E0606A48B1C9
:104EE000304600F0D5FE08B100F01CFA6D1E6DB220
:104EF000002DF3DC4FF0FF3684F8456000F02CF90C
:104F000000F00AF994F9445004F1100709E020690F
:104F100048B1384600F0BCFE08B100F003FA6D1E3F
:104F20006DB2002DF3DC84F84460BDE8F04100F080
:104F300013B900002DE9F0410546002700F070FA92
:104F4000324E306808B9FFF729FD706905424ED12D
:104F5000C5B3083568070ED005F00700C0F108009A
:104F60000544680707D0502080F31188BFF34F8FA6
:104F7000BFF36F8FFEE72DB37068854237D82348A3
:104F8000183001460C6801E020460C466168A942D1
:104F900002D221680029F7D131688C4227D00768F6
:104FA0002168016060680837411B10290FD960191A
:104FB000420708D0502080F31188BFF34F8FBFF312
:104FC0006F8FFEE713E041606560FFF7CFFD61681A
:104FD0007068401A7060B268904200D2B060706928
:104FE00001430020C4E90001F068401CF06000F0BB
:104FF00087FE780707D0502080F31188BFF34F8FCA
:10500000BFF36F8FFEE73846BDE8F08178000020DF
:1050100010B5040006D000F07FF8E46900F09CF8B9
:10502000204610BD502080F31188BFF34F8FBFF38F
:105030006F8FFEE710B5031F4FF080741C601B1FBD
:1050400021F001011960191F044B0B6014390A602B
:10505000091F6FF0020244380A6010BD7D4E00083F
:10506000D0E9013201699A60D0E901235A604A68A7
:10507000824201D182684A60002202610868401EB3
:105080000860086870470000034B036003F15C0090
:105090000860802010607047D4090020044B036032
:1050A00003F15C0008604FF48070106070470000EE
:1050B000300C002000F108014FF0FF32C0E901126E
:1050C000C1600161002101607047002101617047EA
:1050D00030B50B685A1C02D000F1080202E00269E8
:1050E00004E02246546825689D42FAD953684B6013
:1050F00099608A60516008610168491C016030BD97
:1051000042684A6093688B60936859609160086157
:105110000168491C01607047502080F31188BFF37B
:105120004F8FBFF36F8F0A494868401C48600128C1
:105130000CD10848006810F0FF0F07D0502080F312
:105140001188BFF34F8FBFF36F8FFEE770470000EA
:105150009800002004ED00E00849486828B1401E8E
:10516000486001D180F311887047502080F3118886
:10517000BFF34F8FBFF36F8FFEE700009800002052
:1051800070B500282AD0164DA0F10804606869693E
:10519000084207D1502080F31188BFF34F8FBFF32F
:1051A0006F8FFEE722683AB1502080F31188BFF379
:1051B0004F8FBFF36F8FFEE78843606000F030F9D8
:1051C00060686968084468602046FFF7CFFC28697A
:1051D000401C2861BDE8704000F092BD70BD000029
:1051E000780000204FF0E020002101618161054935
:1051F0004FF47A720968B1FBF2F1491E416107214F
:10520000016170472000002010B5FBF735F8114907
:1052100010280ED300F1E02090F8F0030A789042B5
:1052200007D2502080F31188BFF34F8FBFF36F8FE9
:10523000FEE709480068896800F4E060884207D901
:10524000502080F31188BFF34F8FBFF36F8FFEE7BD
:1052500010BD0000980000200CED00E010B5084BD8
:10526000002200BF53F832401CB1521C082AF9D367
:1052700010BD43F8321003EBC201486010BD0000BE
:10528000B803002070B515460E460446FFF744FFEC
:1052900094F944100020491C01D184F8440094F989
:1052A0004510491C01D184F84500FFF755FFA06B5C
:1052B00028B92A46314604F1240000F051F820466E
:1052C000BDE87040FFF700BE10B5020014D00F48D3
:1052D000006B38B1502080F31188BFF34F8FBFF3BC
:1052E0006F8FFEE700F09CF800211046FFF730FAC0
:1052F00000F006FD002807D105494FF080500860F6
:10530000BFF34F8FBFF36F8F10BD0000240000204C
:1053100004ED00E002490A6A0260C9684160704712
:105320002400002001490120C861704724000020AA
:1053300010B50C4650B1094909681831FFF7C8FE8D
:105340002046BDE810400121FFF702BA502080F34B
:105350001188BFF34F8FBFF36F8FFEE7240000204B
:1053600070B514460D4668B10A4909681831FFF74F
:10537000C7FE0CB14FF0FF3521462846BDE870400E
:10538000FFF7E6B9502080F31188BFF34F8FBFF3CA
:105390006F8FFEE72400002030B587B0002403940F
:1053A00005AA04A903A80494FFF76EFEDDE9030132
:1053B0000094CDE90110002315A11748059A00F0CB
:1053C00084FB164D0028E8621FD000F02DFD012857
:1053D00009D0401C19D1502080F31188BFF34F8FA2
:1053E000BFF36F8FFEE7502080F31188BFF34F8F1C
:1053F000BFF36F8F4FF0FF30A86201206861EC604F
:1054000007B0BDE8304000F045B807B030BD00003F
:1054100049444C4500000000E949000824000020F0
:105420000248016B491C0163704700002400002002
:10543000164810B5016B11B10121C16110BD0021E9
:10544000C1610169124A01E0B9B1491E01EB810352
:1054500052F82330002BF7D001EB810302EB8302DB
:1054600002F1080453685B685360A34201D15B6892
:105470005360DA680260016110BD502080F311882A
:10548000BFF34F8FBFF36F8FFEE7000024000020B3
:10549000F80300201CB537480168374A914207D10C
:1054A000502080F31188BFF34F8FBFF36F8FFEE75B
:1054B00000683149491E884207D1502080F3118885
:1054C000BFF34F8FBFF36F8FFEE72C490878019031
:1054D000FF20087008788DF800009DF800009DF806
:1054E000002000F0F000904207D0502080F3118897
:1054F000BFF34F8FBFF36F8FFEE79DF80000204C86
:1055000000F0500020700720A06005E09DF800200A
:1055100052008DF80020401E9DF800201206F5D4A0
:10552000A060032807D0502080F31188BFF34F8F6D
:10553000BFF36F8FFEE74FF44070A06001980870D2
:105540000C482030016841F470010160016841F0AD
:1055500070410160FFF746FE00206060FAF754FEDC
:105560000848016841F040410160FAF739FE002027
:105570001CBD000000ED00E071C20F4100E400E03E
:105580009800002034EF00E010B5502080F311881F
:10559000BFF34F8FBFF36F8F00F0D6FA18B10449F5
:1055A0004FF080500860002080F3118810BD00008B
:1055B00004ED00E038B5049D18B153B1CAB181B112
:1055C00020E0502080F31188BFF34F8FBFF36F8F1F
:1055D000FEE7502080F31188BFF34F8FBFF36F8F2A
:1055E000FEE7502080F31188BFF34F8FBFF36F8F1A
:1055F000FEE739B1502080F31188BFF34F8FBFF31E
:105600006F8FFEE750241C46012384F846302B465A
:105610000094FFF719FA204638BD000070B50D461A
:10562000040025D0FFF778FDD4E90F20216802FBA4
:105630000011A1600021A163216861600A46D4E9DC
:105640000F01401E00FB0121E16021464FF0FF30B9
:1056500001F8440F487004F110008DB1FFF72AFDE6
:1056600004F12400FFF726FDFFF776FD012070BD51
:10567000502080F31188BFF34F8FBFF36F8FFEE789
:1056800021690029F0D000F003FB0028ECD0044988
:105690004FF080500860BFF34F8FBFF36F8FE3E789
:1056A00004ED00E02DE9FF4782B01D468A464FF029
:1056B0000008040003D0BAF1000F08D011E0502018
:1056C00080F31188BFF34F8FBFF36F8FFEE7206C1D
:1056D00038B1502080F31188BFF34F8FBFF36F8F25
:1056E000FEE7022D0AD1E06B012807D0502080F39D
:1056F0001188BFF34F8FBFF36F8FFEE700F010FAF2
:105700003F4F4FF000094FF0805648B9049838B128
:10571000502080F31188BFF34F8FBFF36F8FFEE7E8
:10572000FFF7FAFCA06BE16B884207D3022D05D08E
:105730000498D0B1B8F1000F1AD01EE02A465146A5
:105740002046FFF7DAF8616A19B104F1240000F08D
:105750009FFA20B13E60BFF34F8FBFF36F8FFFF70B
:10576000FBFC012006B0BDE8F087FFF7F5FC22E066
:105770006846FFF7CFFD4FF00108FFF7EDFCFFF79C
:105780004FFEFFF7C9FC94F94400401C01D184F896
:10579000449094F94500401C01D184F84590FFF7EE
:1057A000DBFC04A9684600F029F930B12046FFF778
:1057B0008BFB00F0A5FA0020D4E7FFF7ADFCA06B4F
:1057C000E16B884213D1FFF7C7FC04F11000049984
:1057D000FFF7AEFD2046FFF777FB00F091FA0028B7
:1057E0009ED13E60BFF34F8FBFF36F8F98E7FFF7F7
:1057F000B3FC2046FFF768FB00F082FA90E7000058
:1058000004ED00E02DE9F0471F469046894604006C
:1058100003D0B9F1000F08D011E0502080F31188B7
:10582000BFF34F8FBFF36F8FFEE7206C38B150206E
:1058300080F31188BFF34F8FBFF36F8FFEE7022F06
:105840000AD1E06B012807D0502080F31188BFF304
:105850004F8FBFF36F8FFEE7FFF7D6FC5020EFF3BB
:10586000118680F31188BFF34F8FBFF36F8FA06B4A
:10587000E16B884206D3022F04D0002086F3118802
:10588000BDE8F08794F94550A06B3A46494620465A
:10589000FFF733F8681C04D06D1C84F845500120D4
:1058A000ECE7606A0028FAD004F1240000F0F0F977
:1058B0000028F4D0B8F1000FF1D00121C8F8001091
:1058C000EDE700002DE9F747002683B08A46040083
:1058D00003D0BAF1000F08D011E0502080F31188F6
:1058E000BFF34F8FBFF36F8FFEE7206C38B15020AE
:1058F00080F31188BFF34F8FBFF36F8FFEE700F087
:105900000FF9DFF8F4804FF000094FF0805748B9E5
:10591000059838B1502080F31188BFF34F8FBFF343
:105920006F8FFEE7FFF7F8FBA56BC5B15146204628
:10593000FEF7D0FF6D1EA563206950B104F1100081
:1059400000F0A6F928B1C8F80070BFF34F8FBFF37D
:105950006F8FFFF701FC012006B0BDE8F0870598C6
:1059600008B11EB106E0FFF7F7FB27E06846FFF736
:10597000D1FC0126FFF7F0FBFFF752FDFFF7CCFB50
:1059800094F94400401C01D184F8449094F94500F6
:10599000401C01D184F84590FFF7DEFB05A968465D
:1059A00000F02CF8002820460AD0FFF78DFA00F00E
:1059B000A7F92046FFF71CF90028B3D00020CBE759
:1059C000FFF716F990B104F124000599FFF7B0FC38
:1059D0002046FFF779FA00F093F90028A2D1C8F821
:1059E0000070BFF34F8FBFF36F8F9BE72046FFF729
:1059F0006BFA00F085F995E704ED00E02DE9F04140
:105A00000C46050011D0C4B1FFF786FB174BDA68CE
:105A10006E682068911B471C17D02F681B6A9F4235
:105A200019D0964217D8012410E0502080F3118835
:105A3000BFF34F8FBFF36F8FFEE7502080F31188C5
:105A4000BFF34F8FBFF36F8FFEE70024FFF784FB98
:105A50002046BDE8F081884205D9401A20602846DA
:105A6000FFF758FCF1E700202060DCE7240000206D
:105A70002DE9FF5F8346DDE90E87994616468A4683
:105A80009000FFF757FA05001CD05C20FFF752FA90
:105A9000040014D00020256384F85900CDE90240A9
:105AA000CDE900874B46324651465846FEF7DEFFA9
:105AB0002046FEF77BFE012004B0BDE8F09F28469B
:105AC000FFF75EFB4FF0FF30F6E7F0B585B0DDE99C
:105AD0000B640A9DA6B1DCB15C2700972663022601
